{
  "contractName": "Nekobasu",
  "abi": [
    {
      "anonymous": false,
      "inputs": [
        {
          "indexed": false,
          "internalType": "uint256",
          "name": "tripId",
          "type": "uint256"
        }
      ],
      "name": "CancelledTrip",
      "type": "event"
    },
    {
      "anonymous": false,
      "inputs": [
        {
          "indexed": false,
          "internalType": "uint256",
          "name": "tripId",
          "type": "uint256"
        }
      ],
      "name": "FinishedTrip",
      "type": "event"
    },
    {
      "anonymous": false,
      "inputs": [
        {
          "indexed": false,
          "internalType": "uint256",
          "name": "tripId",
          "type": "uint256"
        },
        {
          "indexed": false,
          "internalType": "uint256",
          "name": "bidId",
          "type": "uint256"
        },
        {
          "components": [
            {
              "internalType": "address",
              "name": "passenger",
              "type": "address"
            },
            {
              "internalType": "uint256",
              "name": "amount",
              "type": "uint256"
            },
            {
              "internalType": "uint256",
              "name": "tripId",
              "type": "uint256"
            },
            {
              "internalType": "bool",
              "name": "accepted",
              "type": "bool"
            }
          ],
          "indexed": false,
          "internalType": "struct Nekobasu.Bid",
          "name": "bid",
          "type": "tuple"
        },
        {
          "indexed": false,
          "internalType": "address",
          "name": "passenger",
          "type": "address"
        }
      ],
      "name": "NewTripBid",
      "type": "event"
    },
    {
      "anonymous": false,
      "inputs": [
        {
          "indexed": false,
          "internalType": "uint256",
          "name": "tripId",
          "type": "uint256"
        },
        {
          "components": [
            {
              "internalType": "address",
              "name": "driver",
              "type": "address"
            },
            {
              "internalType": "string",
              "name": "info",
              "type": "string"
            },
            {
              "internalType": "uint8",
              "name": "seats",
              "type": "uint8"
            },
            {
              "internalType": "uint256",
              "name": "cost",
              "type": "uint256"
            },
            {
              "internalType": "bool",
              "name": "started",
              "type": "bool"
            }
          ],
          "indexed": false,
          "internalType": "struct Nekobasu.Trip",
          "name": "trip",
          "type": "tuple"
        },
        {
          "indexed": false,
          "internalType": "uint256",
          "name": "cost",
          "type": "uint256"
        },
        {
          "indexed": false,
          "internalType": "address",
          "name": "driver",
          "type": "address"
        }
      ],
      "name": "NewTripOffer",
      "type": "event"
    },
    {
      "anonymous": false,
      "inputs": [
        {
          "indexed": false,
          "internalType": "uint256",
          "name": "tripId",
          "type": "uint256"
        },
        {
          "indexed": false,
          "internalType": "uint256",
          "name": "bidId",
          "type": "uint256"
        },
        {
          "components": [
            {
              "internalType": "address",
              "name": "driver",
              "type": "address"
            },
            {
              "internalType": "string",
              "name": "info",
              "type": "string"
            },
            {
              "internalType": "uint8",
              "name": "seats",
              "type": "uint8"
            },
            {
              "internalType": "uint256",
              "name": "cost",
              "type": "uint256"
            },
            {
              "internalType": "bool",
              "name": "started",
              "type": "bool"
            }
          ],
          "indexed": false,
          "internalType": "struct Nekobasu.Trip",
          "name": "trip",
          "type": "tuple"
        },
        {
          "components": [
            {
              "internalType": "address",
              "name": "passenger",
              "type": "address"
            },
            {
              "internalType": "uint256",
              "name": "amount",
              "type": "uint256"
            },
            {
              "internalType": "uint256",
              "name": "tripId",
              "type": "uint256"
            },
            {
              "internalType": "bool",
              "name": "accepted",
              "type": "bool"
            }
          ],
          "indexed": false,
          "internalType": "struct Nekobasu.Bid",
          "name": "bid",
          "type": "tuple"
        }
      ],
      "name": "SeatOccupied",
      "type": "event"
    },
    {
      "anonymous": false,
      "inputs": [
        {
          "indexed": false,
          "internalType": "uint256",
          "name": "tripId",
          "type": "uint256"
        }
      ],
      "name": "StartedTrip",
      "type": "event"
    },
    {
      "anonymous": false,
      "inputs": [
        {
          "indexed": false,
          "internalType": "uint256",
          "name": "tripId",
          "type": "uint256"
        },
        {
          "indexed": false,
          "internalType": "uint256",
          "name": "bidId",
          "type": "uint256"
        },
        {
          "indexed": false,
          "internalType": "address",
          "name": "passenger",
          "type": "address"
        }
      ],
      "name": "WithdrawBid",
      "type": "event"
    },
    {
      "inputs": [],
      "name": "getTripFee",
      "outputs": [
        {
          "internalType": "uint256",
          "name": "",
          "type": "uint256"
        }
      ],
      "stateMutability": "view",
      "type": "function",
      "constant": true
    },
    {
      "inputs": [
        {
          "internalType": "uint256",
          "name": "tripId",
          "type": "uint256"
        }
      ],
      "name": "getTrip",
      "outputs": [
        {
          "components": [
            {
              "internalType": "address",
              "name": "driver",
              "type": "address"
            },
            {
              "internalType": "string",
              "name": "info",
              "type": "string"
            },
            {
              "internalType": "uint8",
              "name": "seats",
              "type": "uint8"
            },
            {
              "internalType": "uint256",
              "name": "cost",
              "type": "uint256"
            },
            {
              "internalType": "bool",
              "name": "started",
              "type": "bool"
            }
          ],
          "internalType": "struct Nekobasu.Trip",
          "name": "",
          "type": "tuple"
        }
      ],
      "stateMutability": "view",
      "type": "function",
      "constant": true
    },
    {
      "inputs": [
        {
          "internalType": "uint256",
          "name": "bidId",
          "type": "uint256"
        }
      ],
      "name": "getBid",
      "outputs": [
        {
          "components": [
            {
              "internalType": "address",
              "name": "passenger",
              "type": "address"
            },
            {
              "internalType": "uint256",
              "name": "amount",
              "type": "uint256"
            },
            {
              "internalType": "uint256",
              "name": "tripId",
              "type": "uint256"
            },
            {
              "internalType": "bool",
              "name": "accepted",
              "type": "bool"
            }
          ],
          "internalType": "struct Nekobasu.Bid",
          "name": "",
          "type": "tuple"
        }
      ],
      "stateMutability": "view",
      "type": "function",
      "constant": true
    },
    {
      "inputs": [],
      "name": "hasActiveTrip",
      "outputs": [
        {
          "internalType": "bool",
          "name": "",
          "type": "bool"
        }
      ],
      "stateMutability": "view",
      "type": "function",
      "constant": true
    },
    {
      "inputs": [],
      "name": "hasActiveBid",
      "outputs": [
        {
          "internalType": "bool",
          "name": "",
          "type": "bool"
        }
      ],
      "stateMutability": "view",
      "type": "function",
      "constant": true
    },
    {
      "inputs": [
        {
          "internalType": "string",
          "name": "info",
          "type": "string"
        },
        {
          "internalType": "uint8",
          "name": "seats",
          "type": "uint8"
        },
        {
          "internalType": "uint256",
          "name": "cost",
          "type": "uint256"
        }
      ],
      "name": "offerTrip",
      "outputs": [],
      "stateMutability": "payable",
      "type": "function",
      "payable": true
    },
    {
      "inputs": [
        {
          "internalType": "uint256",
          "name": "tripId",
          "type": "uint256"
        }
      ],
      "name": "makeBid",
      "outputs": [],
      "stateMutability": "payable",
      "type": "function",
      "payable": true
    },
    {
      "inputs": [
        {
          "internalType": "address",
          "name": "passenger",
          "type": "address"
        }
      ],
      "name": "acceptBid",
      "outputs": [],
      "stateMutability": "nonpayable",
      "type": "function"
    },
    {
      "inputs": [],
      "name": "withdrawBid",
      "outputs": [],
      "stateMutability": "nonpayable",
      "type": "function"
    },
    {
      "inputs": [],
      "name": "startTrip",
      "outputs": [],
      "stateMutability": "nonpayable",
      "type": "function"
    },
    {
      "inputs": [],
      "name": "cancelTrip",
      "outputs": [],
      "stateMutability": "nonpayable",
      "type": "function"
    },
    {
      "inputs": [],
      "name": "finishTrip",
      "outputs": [],
      "stateMutability": "nonpayable",
      "type": "function"
    }
  ],
  "bytecode": "0x6080604052601e60005534801561001557600080fd5b5061302f806100256000396000f3fe6080604052600436106100a75760003560e01c806348c8eaa71161006457806348c8eaa7146101af5780636ba74f17146101cb5780637f7b79e1146101f45780639cf0d4661461020b578063f2f8a9f314610222578063f63a3a5414610239576100a7565b806301011705146100ac57806315e1f22b146100e9578063175b2304146101145780632e92aacc1461013057806337271cc71461015b5780633c889e6f14610172575b600080fd5b3480156100b857600080fd5b506100d360048036038101906100ce9190612156565b610264565b6040516100e09190612319565b60405180910390f35b3480156100f557600080fd5b506100fe610423565b60405161010b919061234a565b60405180910390f35b61012e60048036038101906101299190612156565b61046c565b005b34801561013c57600080fd5b50610145610968565b6040516101529190612374565b60405180910390f35b34801561016757600080fd5b50610170610971565b005b34801561017e57600080fd5b5061019960048036038101906101949190612156565b610bd8565b6040516101a691906123e4565b60405180910390f35b6101c960048036038101906101c49190612490565b610cf3565b005b3480156101d757600080fd5b506101f260048036038101906101ed9190612530565b611046565b005b34801561020057600080fd5b506102096116a8565b005b34801561021757600080fd5b5061022061195f565b005b34801561022e57600080fd5b50610237611dcc565b005b34801561024557600080fd5b5061024e611fa0565b60405161025b919061234a565b60405180910390f35b61026c611fe9565b6001805490508211156102b4576040517f08c379a00000000000000000000000000000000000000000000000000000000081526004016102ab906125ba565b60405180910390fd5b6000600180846102c49190612609565b815481106102d5576102d461263d565b5b90600052602060002090600502016040518060a00160405290816000820160009054906101000a900473ffffffffffffffffffffffffffffffffffffffff1673ffffffffffffffffffffffffffffffffffffffff1673ffffffffffffffffffffffffffffffffffffffff1681526020016001820180546103549061269b565b80601f01602080910402602001604051908101604052809291908181526020018280546103809061269b565b80156103cd5780601f106103a2576101008083540402835291602001916103cd565b820191906000526020600020905b8154815290600101906020018083116103b057829003601f168201915b505050505081526020016002820160009054906101000a900460ff1660ff1660ff168152602001600382015481526020016004820160009054906101000a900460ff161515151581525050905080915050919050565b600080600360003373ffffffffffffffffffffffffffffffffffffffff1673ffffffffffffffffffffffffffffffffffffffff1681526020019081526020016000205411905090565b600033905060003490506000600560008473ffffffffffffffffffffffffffffffffffffffff1673ffffffffffffffffffffffffffffffffffffffff16815260200190815260200160002054146104f8576040517f08c379a00000000000000000000000000000000000000000000000000000000081526004016104ef90612718565b60405180910390fd5b600180549050831115610540576040517f08c379a000000000000000000000000000000000000000000000000000000000815260040161053790612784565b60405180910390fd5b6000600180856105509190612609565b815481106105615761056061263d565b5b90600052602060002090600502016040518060a00160405290816000820160009054906101000a900473ffffffffffffffffffffffffffffffffffffffff1673ffffffffffffffffffffffffffffffffffffffff1673ffffffffffffffffffffffffffffffffffffffff1681526020016001820180546105e09061269b565b80601f016020809104026020016040519081016040528092919081815260200182805461060c9061269b565b80156106595780601f1061062e57610100808354040283529160200191610659565b820191906000526020600020905b81548152906001019060200180831161063c57829003601f168201915b505050505081526020016002820160009054906101000a900460ff1660ff1660ff168152602001600382015481526020016004820160009054906101000a900460ff161515151581525050905080606001518210156106ed576040517f08c379a00000000000000000000000000000000000000000000000000000000081526004016106e4906127f0565b60405180910390fd5b806080015115610732576040517f08c379a00000000000000000000000000000000000000000000000000000000081526004016107299061285c565b60405180910390fd5b8273ffffffffffffffffffffffffffffffffffffffff16816000015173ffffffffffffffffffffffffffffffffffffffff16036107a4576040517f08c379a000000000000000000000000000000000000000000000000000000000815260040161079b906128c8565b60405180910390fd5b6000816040015160ff16116107ee576040517f08c379a00000000000000000000000000000000000000000000000000000000081526004016107e590612934565b60405180910390fd5b600060405180608001604052808573ffffffffffffffffffffffffffffffffffffffff168152602001848152602001868152602001600015158152509050600281908060018154018082558091505060019003906000526020600020906004020160009091909190915060008201518160000160006101000a81548173ffffffffffffffffffffffffffffffffffffffff021916908373ffffffffffffffffffffffffffffffffffffffff160217905550602082015181600101556040820151816002015560608201518160030160006101000a81548160ff02191690831515021790555050506000600280549050905080600560008773ffffffffffffffffffffffffffffffffffffffff1673ffffffffffffffffffffffffffffffffffffffff168152602001908152602001600020819055507f981b957e210e9b1ca618883b28a87636be60896b76781a91a10fb2fbbe51743c868284886040516109589493929190612963565b60405180910390a1505050505050565b60008054905090565b60003390506000600560008373ffffffffffffffffffffffffffffffffffffffff1673ffffffffffffffffffffffffffffffffffffffff168152602001908152602001600020549050600081036109fd576040517f08c379a00000000000000000000000000000000000000000000000000000000081526004016109f4906129f4565b60405180910390fd5b60006002600183610a0e9190612609565b81548110610a1f57610a1e61263d565b5b90600052602060002090600402016040518060800160405290816000820160009054906101000a900473ffffffffffffffffffffffffffffffffffffffff1673ffffffffffffffffffffffffffffffffffffffff1673ffffffffffffffffffffffffffffffffffffffff16815260200160018201548152602001600282015481526020016003820160009054906101000a900460ff1615151515815250509050806060015115610b04576040517f08c379a0000000000000000000000000000000000000000000000000000000008152600401610afb90612a60565b60405180910390fd5b6000600560008573ffffffffffffffffffffffffffffffffffffffff1673ffffffffffffffffffffffffffffffffffffffff168152602001908152602001600020819055508273ffffffffffffffffffffffffffffffffffffffff166108fc82602001519081150290604051600060405180830381858888f19350505050158015610b93573d6000803e3d6000fd5b507f9fa51e6fcc1ea495b771509dde92669732f871ec2e79b405f33d17d7ead38f6681604001518385604051610bcb93929190612adf565b60405180910390a1505050565b610be0612033565b600180549050821115610c28576040517f08c379a0000000000000000000000000000000000000000000000000000000008152600401610c1f90612b62565b60405180910390fd5b60006002600184610c399190612609565b81548110610c4a57610c4961263d565b5b90600052602060002090600402016040518060800160405290816000820160009054906101000a900473ffffffffffffffffffffffffffffffffffffffff1673ffffffffffffffffffffffffffffffffffffffff1673ffffffffffffffffffffffffffffffffffffffff16815260200160018201548152602001600282015481526020016003820160009054906101000a900460ff161515151581525050905080915050919050565b60003390506000543414610d3c576040517f08c379a0000000000000000000000000000000000000000000000000000000008152600401610d3390612bce565b60405180910390fd5b60008360ff1611610d82576040517f08c379a0000000000000000000000000000000000000000000000000000000008152600401610d7990612c3a565b60405180910390fd5b6000600360008373ffffffffffffffffffffffffffffffffffffffff1673ffffffffffffffffffffffffffffffffffffffff1681526020019081526020016000205414610e04576040517f08c379a0000000000000000000000000000000000000000000000000000000008152600401610dfb90612ca6565b60405180910390fd5b60006040518060a001604052808373ffffffffffffffffffffffffffffffffffffffff16815260200187878080601f016020809104026020016040519081016040528093929190818152602001838380828437600081840152601f19601f8201169050808301925050505050505081526020018560ff168152602001848152602001600015158152509050600181908060018154018082558091505060019003906000526020600020906005020160009091909190915060008201518160000160006101000a81548173ffffffffffffffffffffffffffffffffffffffff021916908373ffffffffffffffffffffffffffffffffffffffff1602179055506020820151816001019080519060200190610f1e929190612073565b5060408201518160020160006101000a81548160ff021916908360ff1602179055506060820151816003015560808201518160040160006101000a81548160ff02191690831515021790555050506000600180549050905080600360008573ffffffffffffffffffffffffffffffffffffffff1673ffffffffffffffffffffffffffffffffffffffff16815260200190815260200160002081905550600054600460008573ffffffffffffffffffffffffffffffffffffffff1673ffffffffffffffffffffffffffffffffffffffff168152602001908152602001600020819055507f97b004ae367511ffcdbe6af03e1703e2af08ba6de65ccecd1cad04ea3baa5295818386866040516110359493929190612cc6565b60405180910390a150505050505050565b6000600560008373ffffffffffffffffffffffffffffffffffffffff1673ffffffffffffffffffffffffffffffffffffffff168152602001908152602001600020549050600081116110cd576040517f08c379a00000000000000000000000000000000000000000000000000000000081526004016110c4906129f4565b60405180910390fd5b600060026001836110de9190612609565b815481106110ef576110ee61263d565b5b90600052602060002090600402016040518060800160405290816000820160009054906101000a900473ffffffffffffffffffffffffffffffffffffffff1673ffffffffffffffffffffffffffffffffffffffff1673ffffffffffffffffffffffffffffffffffffffff16815260200160018201548152602001600282015481526020016003820160009054906101000a900460ff16151515158152505090508060600151156111d4576040517f08c379a00000000000000000000000000000000000000000000000000000000081526004016111cb90612a60565b60405180910390fd5b600060018083604001516111e89190612609565b815481106111f9576111f861263d565b5b90600052602060002090600502016040518060a00160405290816000820160009054906101000a900473ffffffffffffffffffffffffffffffffffffffff1673ffffffffffffffffffffffffffffffffffffffff1673ffffffffffffffffffffffffffffffffffffffff1681526020016001820180546112789061269b565b80601f01602080910402602001604051908101604052809291908181526020018280546112a49061269b565b80156112f15780601f106112c6576101008083540402835291602001916112f1565b820191906000526020600020905b8154815290600101906020018083116112d457829003601f168201915b505050505081526020016002820160009054906101000a900460ff1660ff1660ff168152602001600382015481526020016004820160009054906101000a900460ff161515151581525050905060003390508073ffffffffffffffffffffffffffffffffffffffff16826000015173ffffffffffffffffffffffffffffffffffffffff16146113b5576040517f08c379a00000000000000000000000000000000000000000000000000000000081526004016113ac90612d5e565b60405180910390fd5b8160800151156113fa576040517f08c379a00000000000000000000000000000000000000000000000000000000081526004016113f19061285c565b60405180910390fd5b6000826040015160ff1611611444576040517f08c379a000000000000000000000000000000000000000000000000000000000815260040161143b90612934565b60405180910390fd5b81604001805180919061145690612d7e565b60ff1660ff16815250508160018085604001516114739190612609565b815481106114845761148361263d565b5b906000526020600020906005020160008201518160000160006101000a81548173ffffffffffffffffffffffffffffffffffffffff021916908373ffffffffffffffffffffffffffffffffffffffff16021790555060208201518160010190805190602001906114f5929190612073565b5060408201518160020160006101000a81548160ff021916908360ff1602179055506060820151816003015560808201518160040160006101000a81548160ff021916908315150217905550905050826020015160046000846000015173ffffffffffffffffffffffffffffffffffffffff1673ffffffffffffffffffffffffffffffffffffffff168152602001908152602001600020600082825461159b9190612da7565b9250508190555060018360600190151590811515815250508260026001866115c39190612609565b815481106115d4576115d361263d565b5b906000526020600020906004020160008201518160000160006101000a81548173ffffffffffffffffffffffffffffffffffffffff021916908373ffffffffffffffffffffffffffffffffffffffff160217905550602082015181600101556040820151816002015560608201518160030160006101000a81548160ff0219169083151502179055509050507f0ea42b0468072ac76782c6c85252314e7b6d7ff733d0257240016a4a79e69cfb83604001518584866040516116999493929190612dfd565b60405180910390a15050505050565b60003390506000600360008373ffffffffffffffffffffffffffffffffffffffff1673ffffffffffffffffffffffffffffffffffffffff16815260200190815260200160002054905060008103611734576040517f08c379a000000000000000000000000000000000000000000000000000000000815260040161172b90612e95565b60405180910390fd5b6000600180836117449190612609565b815481106117555761175461263d565b5b90600052602060002090600502016040518060a00160405290816000820160009054906101000a900473ffffffffffffffffffffffffffffffffffffffff1673ffffffffffffffffffffffffffffffffffffffff1673ffffffffffffffffffffffffffffffffffffffff1681526020016001820180546117d49061269b565b80601f01602080910402602001604051908101604052809291908181526020018280546118009061269b565b801561184d5780601f106118225761010080835404028352916020019161184d565b820191906000526020600020905b81548152906001019060200180831161183057829003601f168201915b505050505081526020016002820160009054906101000a900460ff1660ff1660ff168152602001600382015481526020016004820160009054906101000a900460ff161515151581525050905080608001516118de576040517f08c379a00000000000000000000000000000000000000000000000000000000081526004016118d590612f01565b60405180910390fd5b6000600360008573ffffffffffffffffffffffffffffffffffffffff1673ffffffffffffffffffffffffffffffffffffffff168152602001908152602001600020819055507f4b96a9f6ca7063c5d7a683f4b7c4a8eb1c213692fc782c7d10f196fb64a46ea2826040516119529190612374565b60405180910390a1505050565b60003390506000600360008373ffffffffffffffffffffffffffffffffffffffff1673ffffffffffffffffffffffffffffffffffffffff168152602001908152602001600020549050600081036119eb576040517f08c379a00000000000000000000000000000000000000000000000000000000081526004016119e290612e95565b60405180910390fd5b600054600460008473ffffffffffffffffffffffffffffffffffffffff1673ffffffffffffffffffffffffffffffffffffffff1681526020019081526020016000205403611a6e576040517f08c379a0000000000000000000000000000000000000000000000000000000008152600401611a6590612f6d565b60405180910390fd5b600060018083611a7e9190612609565b81548110611a8f57611a8e61263d565b5b90600052602060002090600502016040518060a00160405290816000820160009054906101000a900473ffffffffffffffffffffffffffffffffffffffff1673ffffffffffffffffffffffffffffffffffffffff1673ffffffffffffffffffffffffffffffffffffffff168152602001600182018054611b0e9061269b565b80601f0160208091040260200160405190810160405280929190818152602001828054611b3a9061269b565b8015611b875780601f10611b5c57610100808354040283529160200191611b87565b820191906000526020600020905b815481529060010190602001808311611b6a57829003601f168201915b505050505081526020016002820160009054906101000a900460ff1660ff1660ff168152602001600382015481526020016004820160009054906101000a900460ff161515151581525050905060018160800190151590811515815250508060018084611bf49190612609565b81548110611c0557611c0461263d565b5b906000526020600020906005020160008201518160000160006101000a81548173ffffffffffffffffffffffffffffffffffffffff021916908373ffffffffffffffffffffffffffffffffffffffff1602179055506020820151816001019080519060200190611c76929190612073565b5060408201518160020160006101000a81548160ff021916908360ff1602179055506060820151816003015560808201518160040160006101000a81548160ff0219169083151502179055509050508273ffffffffffffffffffffffffffffffffffffffff166108fc600460008673ffffffffffffffffffffffffffffffffffffffff1673ffffffffffffffffffffffffffffffffffffffff168152602001908152602001600020549081150290604051600060405180830381858888f19350505050158015611d4a573d6000803e3d6000fd5b506000600460008573ffffffffffffffffffffffffffffffffffffffff1673ffffffffffffffffffffffffffffffffffffffff168152602001908152602001600020819055507f16092bc1964df101ccee7353b4f8592b2c354aafd14a391c93cb46a1acfafcef82604051611dbf9190612374565b60405180910390a1505050565b60003390506000600360008373ffffffffffffffffffffffffffffffffffffffff1673ffffffffffffffffffffffffffffffffffffffff16815260200190815260200160002054905060008103611e58576040517f08c379a0000000000000000000000000000000000000000000000000000000008152600401611e4f90612e95565b60405180910390fd5b600054600460008473ffffffffffffffffffffffffffffffffffffffff1673ffffffffffffffffffffffffffffffffffffffff1681526020019081526020016000205414611edb576040517f08c379a0000000000000000000000000000000000000000000000000000000008152600401611ed290612fd9565b60405180910390fd5b6000600360008473ffffffffffffffffffffffffffffffffffffffff1673ffffffffffffffffffffffffffffffffffffffff168152602001908152602001600020819055506000600460008473ffffffffffffffffffffffffffffffffffffffff1673ffffffffffffffffffffffffffffffffffffffff168152602001908152602001600020819055507f33f593f5c5ecc55eda07904dd8f1514d8ad3b582ad3e4c157afcfac82e6d030781604051611f949190612374565b60405180910390a15050565b600080600560003373ffffffffffffffffffffffffffffffffffffffff1673ffffffffffffffffffffffffffffffffffffffff1681526020019081526020016000205411905090565b6040518060a00160405280600073ffffffffffffffffffffffffffffffffffffffff16815260200160608152602001600060ff168152602001600081526020016000151581525090565b6040518060800160405280600073ffffffffffffffffffffffffffffffffffffffff16815260200160008152602001600081526020016000151581525090565b82805461207f9061269b565b90600052602060002090601f0160209004810192826120a157600085556120e8565b82601f106120ba57805160ff19168380011785556120e8565b828001600101855582156120e8579182015b828111156120e75782518255916020019190600101906120cc565b5b5090506120f591906120f9565b5090565b5b808211156121125760008160009055506001016120fa565b5090565b600080fd5b600080fd5b6000819050919050565b61213381612120565b811461213e57600080fd5b50565b6000813590506121508161212a565b92915050565b60006020828403121561216c5761216b612116565b5b600061217a84828501612141565b91505092915050565b600073ffffffffffffffffffffffffffffffffffffffff82169050919050565b60006121ae82612183565b9050919050565b6121be816121a3565b82525050565b600081519050919050565b600082825260208201905092915050565b60005b838110156121fe5780820151818401526020810190506121e3565b8381111561220d576000848401525b50505050565b6000601f19601f8301169050919050565b600061222f826121c4565b61223981856121cf565b93506122498185602086016121e0565b61225281612213565b840191505092915050565b600060ff82169050919050565b6122738161225d565b82525050565b61228281612120565b82525050565b60008115159050919050565b61229d81612288565b82525050565b600060a0830160008301516122bb60008601826121b5565b50602083015184820360208601526122d38282612224565b91505060408301516122e8604086018261226a565b5060608301516122fb6060860182612279565b50608083015161230e6080860182612294565b508091505092915050565b6000602082019050818103600083015261233381846122a3565b905092915050565b61234481612288565b82525050565b600060208201905061235f600083018461233b565b92915050565b61236e81612120565b82525050565b60006020820190506123896000830184612365565b92915050565b6080820160008201516123a560008501826121b5565b5060208201516123b86020850182612279565b5060408201516123cb6040850182612279565b5060608201516123de6060850182612294565b50505050565b60006080820190506123f9600083018461238f565b92915050565b600080fd5b600080fd5b600080fd5b60008083601f840112612424576124236123ff565b5b8235905067ffffffffffffffff81111561244157612440612404565b5b60208301915083600182028301111561245d5761245c612409565b5b9250929050565b61246d8161225d565b811461247857600080fd5b50565b60008135905061248a81612464565b92915050565b600080600080606085870312156124aa576124a9612116565b5b600085013567ffffffffffffffff8111156124c8576124c761211b565b5b6124d48782880161240e565b945094505060206124e78782880161247b565b92505060406124f887828801612141565b91505092959194509250565b61250d816121a3565b811461251857600080fd5b50565b60008135905061252a81612504565b92915050565b60006020828403121561254657612545612116565b5b60006125548482850161251b565b91505092915050565b600082825260208201905092915050565b7f74726970206e6f74206578697374730000000000000000000000000000000000600082015250565b60006125a4600f8361255d565b91506125af8261256e565b602082019050919050565b600060208201905081810360008301526125d381612597565b9050919050565b7f4e487b7100000000000000000000000000000000000000000000000000000000600052601160045260246000fd5b600061261482612120565b915061261f83612120565b925082821015612632576126316125da565b5b828203905092915050565b7f4e487b7100000000000000000000000000000000000000000000000000000000600052603260045260246000fd5b7f4e487b7100000000000000000000000000000000000000000000000000000000600052602260045260246000fd5b600060028204905060018216806126b357607f821691505b6020821081036126c6576126c561266c565b5b50919050565b7f70617373656e6765722068617320626964000000000000000000000000000000600082015250565b600061270260118361255d565b915061270d826126cc565b602082019050919050565b60006020820190508181036000830152612731816126f5565b9050919050565b7f74726970206e6f74206578697374000000000000000000000000000000000000600082015250565b600061276e600e8361255d565b915061277982612738565b602082019050919050565b6000602082019050818103600083015261279d81612761565b9050919050565b7f696e73756666696369656e742066756e64730000000000000000000000000000600082015250565b60006127da60128361255d565b91506127e5826127a4565b602082019050919050565b60006020820190508181036000830152612809816127cd565b9050919050565b7f7472697020686173207374617274656400000000000000000000000000000000600082015250565b600061284660108361255d565b915061285182612810565b602082019050919050565b6000602082019050818103600083015261287581612839565b9050919050565b7f73656c6620626964000000000000000000000000000000000000000000000000600082015250565b60006128b260088361255d565b91506128bd8261287c565b602082019050919050565b600060208201905081810360008301526128e1816128a5565b9050919050565b7f6e6f206d6f726520736561747300000000000000000000000000000000000000600082015250565b600061291e600d8361255d565b9150612929826128e8565b602082019050919050565b6000602082019050818103600083015261294d81612911565b9050919050565b61295d816121a3565b82525050565b600060e0820190506129786000830187612365565b6129856020830186612365565b612992604083018561238f565b61299f60c0830184612954565b95945050505050565b7f70617373656e67657220686173206e6f20626964000000000000000000000000600082015250565b60006129de60148361255d565b91506129e9826129a8565b602082019050919050565b60006020820190508181036000830152612a0d816129d1565b9050919050565b7f62696420686173206265656e2061636365707465640000000000000000000000600082015250565b6000612a4a60158361255d565b9150612a5582612a14565b602082019050919050565b60006020820190508181036000830152612a7981612a3d565b9050919050565b6000819050919050565b6000612aa5612aa0612a9b84612183565b612a80565b612183565b9050919050565b6000612ab782612a8a565b9050919050565b6000612ac982612aac565b9050919050565b612ad981612abe565b82525050565b6000606082019050612af46000830186612365565b612b016020830185612365565b612b0e6040830184612ad0565b949350505050565b7f626964206e6f7420657869737473000000000000000000000000000000000000600082015250565b6000612b4c600e8361255d565b9150612b5782612b16565b602082019050919050565b60006020820190508181036000830152612b7b81612b3f565b9050919050565b7f63616e7420706179207472697020666565000000000000000000000000000000600082015250565b6000612bb860118361255d565b9150612bc382612b82565b602082019050919050565b60006020820190508181036000830152612be781612bab565b9050919050565b7f6e65656473207365617473000000000000000000000000000000000000000000600082015250565b6000612c24600b8361255d565b9150612c2f82612bee565b602082019050919050565b60006020820190508181036000830152612c5381612c17565b9050919050565b7f6472697665722068617320747269700000000000000000000000000000000000600082015250565b6000612c90600f8361255d565b9150612c9b82612c5a565b602082019050919050565b60006020820190508181036000830152612cbf81612c83565b9050919050565b6000608082019050612cdb6000830187612365565b8181036020830152612ced81866122a3565b9050612cfc6040830185612365565b612d096060830184612954565b95945050505050565b7f626964206973206e6f7420666f72206472697665720000000000000000000000600082015250565b6000612d4860158361255d565b9150612d5382612d12565b602082019050919050565b60006020820190508181036000830152612d7781612d3b565b9050919050565b6000612d898261225d565b915060008203612d9c57612d9b6125da565b5b600182039050919050565b6000612db282612120565b9150612dbd83612120565b9250827fffffffffffffffffffffffffffffffffffffffffffffffffffffffffffffffff03821115612df257612df16125da565b5b828201905092915050565b600060e082019050612e126000830187612365565b612e1f6020830186612365565b8181036040830152612e3181856122a3565b9050612e40606083018461238f565b95945050505050565b7f64726976657220686173206e6f20747269700000000000000000000000000000600082015250565b6000612e7f60128361255d565b9150612e8a82612e49565b602082019050919050565b60006020820190508181036000830152612eae81612e72565b9050919050565b7f7472697020686173206e6f742073746172746564000000000000000000000000600082015250565b6000612eeb60148361255d565b9150612ef682612eb5565b602082019050919050565b60006020820190508181036000830152612f1a81612ede565b9050919050565b7f7472697020686173206e6f2070617373656e6765727300000000000000000000600082015250565b6000612f5760168361255d565b9150612f6282612f21565b602082019050919050565b60006020820190508181036000830152612f8681612f4a565b9050919050565b7f7472697020616c7265616479206861732070617373656e676572730000000000600082015250565b6000612fc3601b8361255d565b9150612fce82612f8d565b602082019050919050565b60006020820190508181036000830152612ff281612fb6565b905091905056fea2646970667358221220d4077e7aedf71b971f8f6d8bd4914ef0effdbbecea50bd2ca3accd977992484164736f6c634300080d0033",
  "immutableReferences": {},
  "source": "// SPDX-License-Identifier: MIT\npragma solidity >=0.8.0;\n\ncontract Nekobasu {\n    uint tripFee = 30;\n\n    function getTripFee() public view returns (uint) {\n        return tripFee;\n    }\n\n    event NewTripOffer(uint tripId, Trip trip, uint cost, address driver);\n    event NewTripBid(uint tripId, uint bidId, Bid bid, address passenger);\n    event SeatOccupied(uint tripId, uint bidId, Trip trip, Bid bid);\n    event WithdrawBid(uint tripId, uint bidId, address passenger);\n    event StartedTrip(uint tripId);\n    event CancelledTrip(uint tripId);\n    event FinishedTrip(uint tripId);\n\n    struct Trip {\n        address driver;\n        string info;\n        uint8 seats;\n        uint cost;\n        bool started;\n    }\n\n    struct Bid {\n        address passenger;\n        uint amount;\n        uint tripId;\n        bool accepted;\n    }\n\n    Trip[] trips;\n    Bid[] bids;\n\n    mapping(address => uint) driverToTripId;\n    mapping(address => uint) driverToPool;\n    mapping(address => uint) passengerToBidId;\n\n    function getTrip(uint tripId) public view returns (Trip memory) {\n        require (tripId <= trips.length, \"trip not exists\");\n\n        Trip memory trip = trips[tripId - 1];\n        return  trip;\n    }\n\n    function getBid(uint bidId) public view returns (Bid memory) {\n        require (bidId <= trips.length, \"bid not exists\");\n\n        Bid memory bid = bids[bidId - 1];\n        return  bid;\n    }\n\n    function hasActiveTrip() public view returns (bool) {\n        return driverToTripId[msg.sender] > 0;\n    }\n\n    function hasActiveBid() public view returns (bool) {\n        return passengerToBidId[msg.sender] > 0;\n    }\n\n    function offerTrip(string calldata info, uint8 seats, uint cost) public payable {\n        address driver = msg.sender;\n\n        require (msg.value == tripFee, \"cant pay trip fee\");\n\n        require (seats > 0, \"needs seats\");\n        require (driverToTripId[driver] == 0, \"driver has trip\");\n\n        Trip memory trip = Trip(driver, info, seats, cost, false);\n        trips.push(trip);\n\n        uint tripId = trips.length;\n\n        driverToTripId[driver] = tripId;\n\n        // Transactions\n        // driver.tripFee -> contract done with payable.\n        driverToPool[driver] = tripFee;\n\n        emit NewTripOffer(tripId, trip, cost, driver);\n    }\n\n    function makeBid(uint tripId) public payable {\n        address passenger = msg.sender;\n        uint amount = msg.value;\n\n        require (passengerToBidId[passenger] == 0, \"passenger has bid\");\n\n        require (tripId <= trips.length, \"trip not exist\");\n\n        Trip memory trip = trips[tripId-1];\n        require (amount >= trip.cost, \"insufficient funds\");\n        require (!trip.started, \"trip has started\");\n        require (trip.driver != passenger, \"self bid\");\n        require (trip.seats > 0, \"no more seats\");\n\n        Bid memory bid = Bid(passenger, amount, tripId, false);\n        bids.push(bid);\n\n        uint bidId = bids.length;\n\n        passengerToBidId[passenger] = bidId;\n\n        // Transactions\n        // passenger.amount -> contract done with payable.\n\n        emit NewTripBid(tripId, bidId, bid, passenger);\n    }\n\n    function acceptBid(address passenger) public {\n        uint bidId = passengerToBidId[passenger];\n\n        require (bidId > 0, \"passenger has no bid\");\n\n        Bid memory bid = bids[bidId-1];\n        require (!bid.accepted, \"bid has been accepted\");\n\n\n        Trip memory trip = trips[bid.tripId-1];\n        address driver = msg.sender;\n        require (trip.driver == driver, \"bid is not for driver\");\n        require (!trip.started, \"trip has started\");\n        require (trip.seats > 0, \"no more seats\");\n\n        trip.seats--;\n        trips[bid.tripId-1] = trip;\n\n        // Transactions\n        driverToPool[trip.driver] += bid.amount;\n\n        bid.accepted = true;\n        bids[bidId-1] = bid;\n\n\n        emit SeatOccupied(bid.tripId, bidId, trip, bid);\n    }\n\n    function withdrawBid() public {\n        address payable passenger = payable(msg.sender);\n        uint bidId = passengerToBidId[passenger];\n\n        require (bidId != 0, \"passenger has no bid\");\n\n        Bid memory bid = bids[bidId - 1];\n\n        require (!bid.accepted, \"bid has been accepted\");\n\n        passengerToBidId[passenger] = 0;\n\n        // Transactions\n        passenger.transfer(bid.amount);\n\n        emit WithdrawBid(bid.tripId, bidId, passenger);\n    }\n\n    function startTrip() public {\n        address payable driver = payable(msg.sender);\n        uint tripId = driverToTripId[driver];\n\n        require (tripId != 0, \"driver has no trip\");\n        require (driverToPool[driver] != tripFee, \"trip has no passengers\");\n\n        // TODO: Check that the trip is on time.\n        // https://cryptozombies.io/en/lesson/3/chapter/5\n\n        Trip memory trip = trips[tripId-1];\n        trip.started = true;\n        trips[tripId-1] = trip;\n\n        // Transactions\n        // pool -> driver\n        driver.transfer(driverToPool[driver]);\n        driverToPool[driver] = 0;\n\n        emit StartedTrip(tripId);\n    }\n\n    function cancelTrip() public {\n        address driver = msg.sender;\n        uint tripId = driverToTripId[driver];\n\n        require (tripId != 0, \"driver has no trip\");\n        require (driverToPool[driver] == tripFee, \"trip already has passengers\");\n\n        driverToTripId[driver] = 0;\n\n        // Transactions \n        // TripFee is not returned, driver should not cancel trip.\n        driverToPool[driver] = 0;\n\n\n        emit CancelledTrip(tripId);\n    }\n\n    function finishTrip() public {\n        address driver = msg.sender;\n        uint tripId = driverToTripId[driver];\n\n        require (tripId != 0, \"driver has no trip\");\n\n        Trip memory trip = trips[tripId-1];\n        \n        require (trip.started, \"trip has not started\");\n\n        driverToTripId[driver] = 0;\n\n        emit FinishedTrip(tripId);\n    }\n\n    /*\n    TODO: Rules should be explicit on frontend, for driver and for passenger.\n    Example cant withdraw bid when it has been accepted.\n\tCancel incurss on a tripFee.\n    Cannot cancel a trip if it has passengers.\n    */\n\n}\n",
  "sourcePath": "/Users/tlacuilose/Documents/ts/kobasu/nekobasu/contracts/Nekobasu.sol",
  "compiler": {
    "name": "solc",
    "version": "0.8.13+commit.abaa5c0e.Emscripten.clang"
  },
  "schemaVersion": "3.4.7",
  "updatedAt": "2022-06-10T23:21:02.753Z",
  "networkType": "ethereum",
  "devdoc": {
    "kind": "dev",
    "methods": {},
    "version": 1
  },
  "userdoc": {
    "kind": "user",
    "methods": {},
    "version": 1
  }
}