{
  "contractName": "Nekobasu",
  "abi": [
    {
      "anonymous": false,
      "inputs": [
        {
          "indexed": false,
          "internalType": "uint256",
          "name": "tripId",
          "type": "uint256"
        }
      ],
      "name": "CancelledTrip",
      "type": "event"
    },
    {
      "anonymous": false,
      "inputs": [
        {
          "indexed": false,
          "internalType": "uint256",
          "name": "tripId",
          "type": "uint256"
        }
      ],
      "name": "FinishedTrip",
      "type": "event"
    },
    {
      "anonymous": false,
      "inputs": [
        {
          "indexed": false,
          "internalType": "uint256",
          "name": "tripId",
          "type": "uint256"
        },
        {
          "indexed": false,
          "internalType": "uint256",
          "name": "bidId",
          "type": "uint256"
        },
        {
          "components": [
            {
              "internalType": "address",
              "name": "passenger",
              "type": "address"
            },
            {
              "internalType": "uint256",
              "name": "amount",
              "type": "uint256"
            },
            {
              "internalType": "uint256",
              "name": "tripId",
              "type": "uint256"
            },
            {
              "internalType": "bool",
              "name": "accepted",
              "type": "bool"
            }
          ],
          "indexed": false,
          "internalType": "struct Nekobasu.Bid",
          "name": "bid",
          "type": "tuple"
        },
        {
          "indexed": false,
          "internalType": "address",
          "name": "passenger",
          "type": "address"
        }
      ],
      "name": "NewTripBid",
      "type": "event"
    },
    {
      "anonymous": false,
      "inputs": [
        {
          "indexed": false,
          "internalType": "uint256",
          "name": "tripId",
          "type": "uint256"
        },
        {
          "components": [
            {
              "internalType": "address",
              "name": "driver",
              "type": "address"
            },
            {
              "internalType": "string",
              "name": "info",
              "type": "string"
            },
            {
              "internalType": "uint8",
              "name": "seats",
              "type": "uint8"
            },
            {
              "internalType": "uint256",
              "name": "cost",
              "type": "uint256"
            },
            {
              "internalType": "bool",
              "name": "started",
              "type": "bool"
            }
          ],
          "indexed": false,
          "internalType": "struct Nekobasu.Trip",
          "name": "trip",
          "type": "tuple"
        },
        {
          "indexed": false,
          "internalType": "uint256",
          "name": "cost",
          "type": "uint256"
        },
        {
          "indexed": false,
          "internalType": "address",
          "name": "driver",
          "type": "address"
        }
      ],
      "name": "NewTripOffer",
      "type": "event"
    },
    {
      "anonymous": false,
      "inputs": [
        {
          "indexed": false,
          "internalType": "uint256",
          "name": "tripId",
          "type": "uint256"
        },
        {
          "indexed": false,
          "internalType": "uint256",
          "name": "bidId",
          "type": "uint256"
        },
        {
          "components": [
            {
              "internalType": "address",
              "name": "driver",
              "type": "address"
            },
            {
              "internalType": "string",
              "name": "info",
              "type": "string"
            },
            {
              "internalType": "uint8",
              "name": "seats",
              "type": "uint8"
            },
            {
              "internalType": "uint256",
              "name": "cost",
              "type": "uint256"
            },
            {
              "internalType": "bool",
              "name": "started",
              "type": "bool"
            }
          ],
          "indexed": false,
          "internalType": "struct Nekobasu.Trip",
          "name": "trip",
          "type": "tuple"
        },
        {
          "components": [
            {
              "internalType": "address",
              "name": "passenger",
              "type": "address"
            },
            {
              "internalType": "uint256",
              "name": "amount",
              "type": "uint256"
            },
            {
              "internalType": "uint256",
              "name": "tripId",
              "type": "uint256"
            },
            {
              "internalType": "bool",
              "name": "accepted",
              "type": "bool"
            }
          ],
          "indexed": false,
          "internalType": "struct Nekobasu.Bid",
          "name": "bid",
          "type": "tuple"
        }
      ],
      "name": "SeatOccupied",
      "type": "event"
    },
    {
      "anonymous": false,
      "inputs": [
        {
          "indexed": false,
          "internalType": "uint256",
          "name": "tripId",
          "type": "uint256"
        }
      ],
      "name": "StartedTrip",
      "type": "event"
    },
    {
      "anonymous": false,
      "inputs": [
        {
          "indexed": false,
          "internalType": "uint256",
          "name": "tripId",
          "type": "uint256"
        },
        {
          "indexed": false,
          "internalType": "uint256",
          "name": "bidId",
          "type": "uint256"
        },
        {
          "indexed": false,
          "internalType": "address",
          "name": "passenger",
          "type": "address"
        }
      ],
      "name": "WithdrawBid",
      "type": "event"
    },
    {
      "inputs": [],
      "name": "getTripFee",
      "outputs": [
        {
          "internalType": "uint256",
          "name": "",
          "type": "uint256"
        }
      ],
      "stateMutability": "view",
      "type": "function",
      "constant": true
    },
    {
      "inputs": [
        {
          "internalType": "uint256",
          "name": "tripId",
          "type": "uint256"
        }
      ],
      "name": "getTrip",
      "outputs": [
        {
          "components": [
            {
              "internalType": "address",
              "name": "driver",
              "type": "address"
            },
            {
              "internalType": "string",
              "name": "info",
              "type": "string"
            },
            {
              "internalType": "uint8",
              "name": "seats",
              "type": "uint8"
            },
            {
              "internalType": "uint256",
              "name": "cost",
              "type": "uint256"
            },
            {
              "internalType": "bool",
              "name": "started",
              "type": "bool"
            }
          ],
          "internalType": "struct Nekobasu.Trip",
          "name": "",
          "type": "tuple"
        }
      ],
      "stateMutability": "view",
      "type": "function",
      "constant": true
    },
    {
      "inputs": [
        {
          "internalType": "uint256",
          "name": "bidId",
          "type": "uint256"
        }
      ],
      "name": "getBid",
      "outputs": [
        {
          "components": [
            {
              "internalType": "address",
              "name": "passenger",
              "type": "address"
            },
            {
              "internalType": "uint256",
              "name": "amount",
              "type": "uint256"
            },
            {
              "internalType": "uint256",
              "name": "tripId",
              "type": "uint256"
            },
            {
              "internalType": "bool",
              "name": "accepted",
              "type": "bool"
            }
          ],
          "internalType": "struct Nekobasu.Bid",
          "name": "",
          "type": "tuple"
        }
      ],
      "stateMutability": "view",
      "type": "function",
      "constant": true
    },
    {
      "inputs": [],
      "name": "getActiveTrip",
      "outputs": [
        {
          "internalType": "uint256",
          "name": "",
          "type": "uint256"
        }
      ],
      "stateMutability": "view",
      "type": "function",
      "constant": true
    },
    {
      "inputs": [],
      "name": "getActiveBid",
      "outputs": [
        {
          "internalType": "uint256",
          "name": "",
          "type": "uint256"
        }
      ],
      "stateMutability": "view",
      "type": "function",
      "constant": true
    },
    {
      "inputs": [
        {
          "internalType": "string",
          "name": "info",
          "type": "string"
        },
        {
          "internalType": "uint8",
          "name": "seats",
          "type": "uint8"
        },
        {
          "internalType": "uint256",
          "name": "cost",
          "type": "uint256"
        }
      ],
      "name": "offerTrip",
      "outputs": [],
      "stateMutability": "payable",
      "type": "function",
      "payable": true
    },
    {
      "inputs": [
        {
          "internalType": "uint256",
          "name": "tripId",
          "type": "uint256"
        }
      ],
      "name": "makeBid",
      "outputs": [],
      "stateMutability": "payable",
      "type": "function",
      "payable": true
    },
    {
      "inputs": [
        {
          "internalType": "address",
          "name": "passenger",
          "type": "address"
        }
      ],
      "name": "acceptBid",
      "outputs": [],
      "stateMutability": "nonpayable",
      "type": "function"
    },
    {
      "inputs": [],
      "name": "withdrawBid",
      "outputs": [],
      "stateMutability": "nonpayable",
      "type": "function"
    },
    {
      "inputs": [],
      "name": "startTrip",
      "outputs": [],
      "stateMutability": "nonpayable",
      "type": "function"
    },
    {
      "inputs": [],
      "name": "cancelTrip",
      "outputs": [],
      "stateMutability": "nonpayable",
      "type": "function"
    },
    {
      "inputs": [],
      "name": "finishTrip",
      "outputs": [],
      "stateMutability": "nonpayable",
      "type": "function"
    }
  ],
  "bytecode": "0x6080604052601e60005534801561001557600080fd5b50613001806100256000396000f3fe6080604052600436106100a75760003560e01c80636ba74f17116100645780636ba74f17146101a05780637f7b79e1146101c95780639cf0d466146101e0578063b9bdfc6a146101f7578063c2be1c1114610222578063f2f8a9f31461024d576100a7565b806301011705146100ac578063175b2304146100e95780632e92aacc1461010557806337271cc7146101305780633c889e6f1461014757806348c8eaa714610184575b600080fd5b3480156100b857600080fd5b506100d360048036038101906100ce9190612152565b610264565b6040516100e09190612315565b60405180910390f35b61010360048036038101906100fe9190612152565b610423565b005b34801561011157600080fd5b5061011a61091f565b6040516101279190612346565b60405180910390f35b34801561013c57600080fd5b50610145610928565b005b34801561015357600080fd5b5061016e60048036038101906101699190612152565b610b8f565b60405161017b91906123b6565b60405180910390f35b61019e60048036038101906101999190612462565b610caa565b005b3480156101ac57600080fd5b506101c760048036038101906101c29190612502565b610ffd565b005b3480156101d557600080fd5b506101de61165f565b005b3480156101ec57600080fd5b506101f5611916565b005b34801561020357600080fd5b5061020c611d83565b6040516102199190612346565b60405180910390f35b34801561022e57600080fd5b50610237611dca565b6040516102449190612346565b60405180910390f35b34801561025957600080fd5b50610262611e11565b005b61026c611fe5565b6001805490508211156102b4576040517f08c379a00000000000000000000000000000000000000000000000000000000081526004016102ab9061258c565b60405180910390fd5b6000600180846102c491906125db565b815481106102d5576102d461260f565b5b90600052602060002090600502016040518060a00160405290816000820160009054906101000a900473ffffffffffffffffffffffffffffffffffffffff1673ffffffffffffffffffffffffffffffffffffffff1673ffffffffffffffffffffffffffffffffffffffff1681526020016001820180546103549061266d565b80601f01602080910402602001604051908101604052809291908181526020018280546103809061266d565b80156103cd5780601f106103a2576101008083540402835291602001916103cd565b820191906000526020600020905b8154815290600101906020018083116103b057829003601f168201915b505050505081526020016002820160009054906101000a900460ff1660ff1660ff168152602001600382015481526020016004820160009054906101000a900460ff161515151581525050905080915050919050565b600033905060003490506000600560008473ffffffffffffffffffffffffffffffffffffffff1673ffffffffffffffffffffffffffffffffffffffff16815260200190815260200160002054146104af576040517f08c379a00000000000000000000000000000000000000000000000000000000081526004016104a6906126ea565b60405180910390fd5b6001805490508311156104f7576040517f08c379a00000000000000000000000000000000000000000000000000000000081526004016104ee90612756565b60405180910390fd5b60006001808561050791906125db565b815481106105185761051761260f565b5b90600052602060002090600502016040518060a00160405290816000820160009054906101000a900473ffffffffffffffffffffffffffffffffffffffff1673ffffffffffffffffffffffffffffffffffffffff1673ffffffffffffffffffffffffffffffffffffffff1681526020016001820180546105979061266d565b80601f01602080910402602001604051908101604052809291908181526020018280546105c39061266d565b80156106105780601f106105e557610100808354040283529160200191610610565b820191906000526020600020905b8154815290600101906020018083116105f357829003601f168201915b505050505081526020016002820160009054906101000a900460ff1660ff1660ff168152602001600382015481526020016004820160009054906101000a900460ff161515151581525050905080606001518210156106a4576040517f08c379a000000000000000000000000000000000000000000000000000000000815260040161069b906127c2565b60405180910390fd5b8060800151156106e9576040517f08c379a00000000000000000000000000000000000000000000000000000000081526004016106e09061282e565b60405180910390fd5b8273ffffffffffffffffffffffffffffffffffffffff16816000015173ffffffffffffffffffffffffffffffffffffffff160361075b576040517f08c379a00000000000000000000000000000000000000000000000000000000081526004016107529061289a565b60405180910390fd5b6000816040015160ff16116107a5576040517f08c379a000000000000000000000000000000000000000000000000000000000815260040161079c90612906565b60405180910390fd5b600060405180608001604052808573ffffffffffffffffffffffffffffffffffffffff168152602001848152602001868152602001600015158152509050600281908060018154018082558091505060019003906000526020600020906004020160009091909190915060008201518160000160006101000a81548173ffffffffffffffffffffffffffffffffffffffff021916908373ffffffffffffffffffffffffffffffffffffffff160217905550602082015181600101556040820151816002015560608201518160030160006101000a81548160ff02191690831515021790555050506000600280549050905080600560008773ffffffffffffffffffffffffffffffffffffffff1673ffffffffffffffffffffffffffffffffffffffff168152602001908152602001600020819055507f981b957e210e9b1ca618883b28a87636be60896b76781a91a10fb2fbbe51743c8682848860405161090f9493929190612935565b60405180910390a1505050505050565b60008054905090565b60003390506000600560008373ffffffffffffffffffffffffffffffffffffffff1673ffffffffffffffffffffffffffffffffffffffff168152602001908152602001600020549050600081036109b4576040517f08c379a00000000000000000000000000000000000000000000000000000000081526004016109ab906129c6565b60405180910390fd5b600060026001836109c591906125db565b815481106109d6576109d561260f565b5b90600052602060002090600402016040518060800160405290816000820160009054906101000a900473ffffffffffffffffffffffffffffffffffffffff1673ffffffffffffffffffffffffffffffffffffffff1673ffffffffffffffffffffffffffffffffffffffff16815260200160018201548152602001600282015481526020016003820160009054906101000a900460ff1615151515815250509050806060015115610abb576040517f08c379a0000000000000000000000000000000000000000000000000000000008152600401610ab290612a32565b60405180910390fd5b6000600560008573ffffffffffffffffffffffffffffffffffffffff1673ffffffffffffffffffffffffffffffffffffffff168152602001908152602001600020819055508273ffffffffffffffffffffffffffffffffffffffff166108fc82602001519081150290604051600060405180830381858888f19350505050158015610b4a573d6000803e3d6000fd5b507f9fa51e6fcc1ea495b771509dde92669732f871ec2e79b405f33d17d7ead38f6681604001518385604051610b8293929190612ab1565b60405180910390a1505050565b610b9761202f565b600180549050821115610bdf576040517f08c379a0000000000000000000000000000000000000000000000000000000008152600401610bd690612b34565b60405180910390fd5b60006002600184610bf091906125db565b81548110610c0157610c0061260f565b5b90600052602060002090600402016040518060800160405290816000820160009054906101000a900473ffffffffffffffffffffffffffffffffffffffff1673ffffffffffffffffffffffffffffffffffffffff1673ffffffffffffffffffffffffffffffffffffffff16815260200160018201548152602001600282015481526020016003820160009054906101000a900460ff161515151581525050905080915050919050565b60003390506000543414610cf3576040517f08c379a0000000000000000000000000000000000000000000000000000000008152600401610cea90612ba0565b60405180910390fd5b60008360ff1611610d39576040517f08c379a0000000000000000000000000000000000000000000000000000000008152600401610d3090612c0c565b60405180910390fd5b6000600360008373ffffffffffffffffffffffffffffffffffffffff1673ffffffffffffffffffffffffffffffffffffffff1681526020019081526020016000205414610dbb576040517f08c379a0000000000000000000000000000000000000000000000000000000008152600401610db290612c78565b60405180910390fd5b60006040518060a001604052808373ffffffffffffffffffffffffffffffffffffffff16815260200187878080601f016020809104026020016040519081016040528093929190818152602001838380828437600081840152601f19601f8201169050808301925050505050505081526020018560ff168152602001848152602001600015158152509050600181908060018154018082558091505060019003906000526020600020906005020160009091909190915060008201518160000160006101000a81548173ffffffffffffffffffffffffffffffffffffffff021916908373ffffffffffffffffffffffffffffffffffffffff1602179055506020820151816001019080519060200190610ed592919061206f565b5060408201518160020160006101000a81548160ff021916908360ff1602179055506060820151816003015560808201518160040160006101000a81548160ff02191690831515021790555050506000600180549050905080600360008573ffffffffffffffffffffffffffffffffffffffff1673ffffffffffffffffffffffffffffffffffffffff16815260200190815260200160002081905550600054600460008573ffffffffffffffffffffffffffffffffffffffff1673ffffffffffffffffffffffffffffffffffffffff168152602001908152602001600020819055507f97b004ae367511ffcdbe6af03e1703e2af08ba6de65ccecd1cad04ea3baa529581838686604051610fec9493929190612c98565b60405180910390a150505050505050565b6000600560008373ffffffffffffffffffffffffffffffffffffffff1673ffffffffffffffffffffffffffffffffffffffff16815260200190815260200160002054905060008111611084576040517f08c379a000000000000000000000000000000000000000000000000000000000815260040161107b906129c6565b60405180910390fd5b6000600260018361109591906125db565b815481106110a6576110a561260f565b5b90600052602060002090600402016040518060800160405290816000820160009054906101000a900473ffffffffffffffffffffffffffffffffffffffff1673ffffffffffffffffffffffffffffffffffffffff1673ffffffffffffffffffffffffffffffffffffffff16815260200160018201548152602001600282015481526020016003820160009054906101000a900460ff161515151581525050905080606001511561118b576040517f08c379a000000000000000000000000000000000000000000000000000000000815260040161118290612a32565b60405180910390fd5b6000600180836040015161119f91906125db565b815481106111b0576111af61260f565b5b90600052602060002090600502016040518060a00160405290816000820160009054906101000a900473ffffffffffffffffffffffffffffffffffffffff1673ffffffffffffffffffffffffffffffffffffffff1673ffffffffffffffffffffffffffffffffffffffff16815260200160018201805461122f9061266d565b80601f016020809104026020016040519081016040528092919081815260200182805461125b9061266d565b80156112a85780601f1061127d576101008083540402835291602001916112a8565b820191906000526020600020905b81548152906001019060200180831161128b57829003601f168201915b505050505081526020016002820160009054906101000a900460ff1660ff1660ff168152602001600382015481526020016004820160009054906101000a900460ff161515151581525050905060003390508073ffffffffffffffffffffffffffffffffffffffff16826000015173ffffffffffffffffffffffffffffffffffffffff161461136c576040517f08c379a000000000000000000000000000000000000000000000000000000000815260040161136390612d30565b60405180910390fd5b8160800151156113b1576040517f08c379a00000000000000000000000000000000000000000000000000000000081526004016113a89061282e565b60405180910390fd5b6000826040015160ff16116113fb576040517f08c379a00000000000000000000000000000000000000000000000000000000081526004016113f290612906565b60405180910390fd5b81604001805180919061140d90612d50565b60ff1660ff168152505081600180856040015161142a91906125db565b8154811061143b5761143a61260f565b5b906000526020600020906005020160008201518160000160006101000a81548173ffffffffffffffffffffffffffffffffffffffff021916908373ffffffffffffffffffffffffffffffffffffffff16021790555060208201518160010190805190602001906114ac92919061206f565b5060408201518160020160006101000a81548160ff021916908360ff1602179055506060820151816003015560808201518160040160006101000a81548160ff021916908315150217905550905050826020015160046000846000015173ffffffffffffffffffffffffffffffffffffffff1673ffffffffffffffffffffffffffffffffffffffff16815260200190815260200160002060008282546115529190612d79565b92505081905550600183606001901515908115158152505082600260018661157a91906125db565b8154811061158b5761158a61260f565b5b906000526020600020906004020160008201518160000160006101000a81548173ffffffffffffffffffffffffffffffffffffffff021916908373ffffffffffffffffffffffffffffffffffffffff160217905550602082015181600101556040820151816002015560608201518160030160006101000a81548160ff0219169083151502179055509050507f0ea42b0468072ac76782c6c85252314e7b6d7ff733d0257240016a4a79e69cfb83604001518584866040516116509493929190612dcf565b60405180910390a15050505050565b60003390506000600360008373ffffffffffffffffffffffffffffffffffffffff1673ffffffffffffffffffffffffffffffffffffffff168152602001908152602001600020549050600081036116eb576040517f08c379a00000000000000000000000000000000000000000000000000000000081526004016116e290612e67565b60405180910390fd5b6000600180836116fb91906125db565b8154811061170c5761170b61260f565b5b90600052602060002090600502016040518060a00160405290816000820160009054906101000a900473ffffffffffffffffffffffffffffffffffffffff1673ffffffffffffffffffffffffffffffffffffffff1673ffffffffffffffffffffffffffffffffffffffff16815260200160018201805461178b9061266d565b80601f01602080910402602001604051908101604052809291908181526020018280546117b79061266d565b80156118045780601f106117d957610100808354040283529160200191611804565b820191906000526020600020905b8154815290600101906020018083116117e757829003601f168201915b505050505081526020016002820160009054906101000a900460ff1660ff1660ff168152602001600382015481526020016004820160009054906101000a900460ff16151515158152505090508060800151611895576040517f08c379a000000000000000000000000000000000000000000000000000000000815260040161188c90612ed3565b60405180910390fd5b6000600360008573ffffffffffffffffffffffffffffffffffffffff1673ffffffffffffffffffffffffffffffffffffffff168152602001908152602001600020819055507f4b96a9f6ca7063c5d7a683f4b7c4a8eb1c213692fc782c7d10f196fb64a46ea2826040516119099190612346565b60405180910390a1505050565b60003390506000600360008373ffffffffffffffffffffffffffffffffffffffff1673ffffffffffffffffffffffffffffffffffffffff168152602001908152602001600020549050600081036119a2576040517f08c379a000000000000000000000000000000000000000000000000000000000815260040161199990612e67565b60405180910390fd5b600054600460008473ffffffffffffffffffffffffffffffffffffffff1673ffffffffffffffffffffffffffffffffffffffff1681526020019081526020016000205403611a25576040517f08c379a0000000000000000000000000000000000000000000000000000000008152600401611a1c90612f3f565b60405180910390fd5b600060018083611a3591906125db565b81548110611a4657611a4561260f565b5b90600052602060002090600502016040518060a00160405290816000820160009054906101000a900473ffffffffffffffffffffffffffffffffffffffff1673ffffffffffffffffffffffffffffffffffffffff1673ffffffffffffffffffffffffffffffffffffffff168152602001600182018054611ac59061266d565b80601f0160208091040260200160405190810160405280929190818152602001828054611af19061266d565b8015611b3e5780601f10611b1357610100808354040283529160200191611b3e565b820191906000526020600020905b815481529060010190602001808311611b2157829003601f168201915b505050505081526020016002820160009054906101000a900460ff1660ff1660ff168152602001600382015481526020016004820160009054906101000a900460ff161515151581525050905060018160800190151590811515815250508060018084611bab91906125db565b81548110611bbc57611bbb61260f565b5b906000526020600020906005020160008201518160000160006101000a81548173ffffffffffffffffffffffffffffffffffffffff021916908373ffffffffffffffffffffffffffffffffffffffff1602179055506020820151816001019080519060200190611c2d92919061206f565b5060408201518160020160006101000a81548160ff021916908360ff1602179055506060820151816003015560808201518160040160006101000a81548160ff0219169083151502179055509050508273ffffffffffffffffffffffffffffffffffffffff166108fc600460008673ffffffffffffffffffffffffffffffffffffffff1673ffffffffffffffffffffffffffffffffffffffff168152602001908152602001600020549081150290604051600060405180830381858888f19350505050158015611d01573d6000803e3d6000fd5b506000600460008573ffffffffffffffffffffffffffffffffffffffff1673ffffffffffffffffffffffffffffffffffffffff168152602001908152602001600020819055507f16092bc1964df101ccee7353b4f8592b2c354aafd14a391c93cb46a1acfafcef82604051611d769190612346565b60405180910390a1505050565b6000600560003373ffffffffffffffffffffffffffffffffffffffff1673ffffffffffffffffffffffffffffffffffffffff16815260200190815260200160002054905090565b6000600360003373ffffffffffffffffffffffffffffffffffffffff1673ffffffffffffffffffffffffffffffffffffffff16815260200190815260200160002054905090565b60003390506000600360008373ffffffffffffffffffffffffffffffffffffffff1673ffffffffffffffffffffffffffffffffffffffff16815260200190815260200160002054905060008103611e9d576040517f08c379a0000000000000000000000000000000000000000000000000000000008152600401611e9490612e67565b60405180910390fd5b600054600460008473ffffffffffffffffffffffffffffffffffffffff1673ffffffffffffffffffffffffffffffffffffffff1681526020019081526020016000205414611f20576040517f08c379a0000000000000000000000000000000000000000000000000000000008152600401611f1790612fab565b60405180910390fd5b6000600360008473ffffffffffffffffffffffffffffffffffffffff1673ffffffffffffffffffffffffffffffffffffffff168152602001908152602001600020819055506000600460008473ffffffffffffffffffffffffffffffffffffffff1673ffffffffffffffffffffffffffffffffffffffff168152602001908152602001600020819055507f33f593f5c5ecc55eda07904dd8f1514d8ad3b582ad3e4c157afcfac82e6d030781604051611fd99190612346565b60405180910390a15050565b6040518060a00160405280600073ffffffffffffffffffffffffffffffffffffffff16815260200160608152602001600060ff168152602001600081526020016000151581525090565b6040518060800160405280600073ffffffffffffffffffffffffffffffffffffffff16815260200160008152602001600081526020016000151581525090565b82805461207b9061266d565b90600052602060002090601f01602090048101928261209d57600085556120e4565b82601f106120b657805160ff19168380011785556120e4565b828001600101855582156120e4579182015b828111156120e35782518255916020019190600101906120c8565b5b5090506120f191906120f5565b5090565b5b8082111561210e5760008160009055506001016120f6565b5090565b600080fd5b600080fd5b6000819050919050565b61212f8161211c565b811461213a57600080fd5b50565b60008135905061214c81612126565b92915050565b60006020828403121561216857612167612112565b5b60006121768482850161213d565b91505092915050565b600073ffffffffffffffffffffffffffffffffffffffff82169050919050565b60006121aa8261217f565b9050919050565b6121ba8161219f565b82525050565b600081519050919050565b600082825260208201905092915050565b60005b838110156121fa5780820151818401526020810190506121df565b83811115612209576000848401525b50505050565b6000601f19601f8301169050919050565b600061222b826121c0565b61223581856121cb565b93506122458185602086016121dc565b61224e8161220f565b840191505092915050565b600060ff82169050919050565b61226f81612259565b82525050565b61227e8161211c565b82525050565b60008115159050919050565b61229981612284565b82525050565b600060a0830160008301516122b760008601826121b1565b50602083015184820360208601526122cf8282612220565b91505060408301516122e46040860182612266565b5060608301516122f76060860182612275565b50608083015161230a6080860182612290565b508091505092915050565b6000602082019050818103600083015261232f818461229f565b905092915050565b6123408161211c565b82525050565b600060208201905061235b6000830184612337565b92915050565b60808201600082015161237760008501826121b1565b50602082015161238a6020850182612275565b50604082015161239d6040850182612275565b5060608201516123b06060850182612290565b50505050565b60006080820190506123cb6000830184612361565b92915050565b600080fd5b600080fd5b600080fd5b60008083601f8401126123f6576123f56123d1565b5b8235905067ffffffffffffffff811115612413576124126123d6565b5b60208301915083600182028301111561242f5761242e6123db565b5b9250929050565b61243f81612259565b811461244a57600080fd5b50565b60008135905061245c81612436565b92915050565b6000806000806060858703121561247c5761247b612112565b5b600085013567ffffffffffffffff81111561249a57612499612117565b5b6124a6878288016123e0565b945094505060206124b98782880161244d565b92505060406124ca8782880161213d565b91505092959194509250565b6124df8161219f565b81146124ea57600080fd5b50565b6000813590506124fc816124d6565b92915050565b60006020828403121561251857612517612112565b5b6000612526848285016124ed565b91505092915050565b600082825260208201905092915050565b7f74726970206e6f74206578697374730000000000000000000000000000000000600082015250565b6000612576600f8361252f565b915061258182612540565b602082019050919050565b600060208201905081810360008301526125a581612569565b9050919050565b7f4e487b7100000000000000000000000000000000000000000000000000000000600052601160045260246000fd5b60006125e68261211c565b91506125f18361211c565b925082821015612604576126036125ac565b5b828203905092915050565b7f4e487b7100000000000000000000000000000000000000000000000000000000600052603260045260246000fd5b7f4e487b7100000000000000000000000000000000000000000000000000000000600052602260045260246000fd5b6000600282049050600182168061268557607f821691505b6020821081036126985761269761263e565b5b50919050565b7f70617373656e6765722068617320626964000000000000000000000000000000600082015250565b60006126d460118361252f565b91506126df8261269e565b602082019050919050565b60006020820190508181036000830152612703816126c7565b9050919050565b7f74726970206e6f74206578697374000000000000000000000000000000000000600082015250565b6000612740600e8361252f565b915061274b8261270a565b602082019050919050565b6000602082019050818103600083015261276f81612733565b9050919050565b7f696e73756666696369656e742066756e64730000000000000000000000000000600082015250565b60006127ac60128361252f565b91506127b782612776565b602082019050919050565b600060208201905081810360008301526127db8161279f565b9050919050565b7f7472697020686173207374617274656400000000000000000000000000000000600082015250565b600061281860108361252f565b9150612823826127e2565b602082019050919050565b600060208201905081810360008301526128478161280b565b9050919050565b7f73656c6620626964000000000000000000000000000000000000000000000000600082015250565b600061288460088361252f565b915061288f8261284e565b602082019050919050565b600060208201905081810360008301526128b381612877565b9050919050565b7f6e6f206d6f726520736561747300000000000000000000000000000000000000600082015250565b60006128f0600d8361252f565b91506128fb826128ba565b602082019050919050565b6000602082019050818103600083015261291f816128e3565b9050919050565b61292f8161219f565b82525050565b600060e08201905061294a6000830187612337565b6129576020830186612337565b6129646040830185612361565b61297160c0830184612926565b95945050505050565b7f70617373656e67657220686173206e6f20626964000000000000000000000000600082015250565b60006129b060148361252f565b91506129bb8261297a565b602082019050919050565b600060208201905081810360008301526129df816129a3565b9050919050565b7f62696420686173206265656e2061636365707465640000000000000000000000600082015250565b6000612a1c60158361252f565b9150612a27826129e6565b602082019050919050565b60006020820190508181036000830152612a4b81612a0f565b9050919050565b6000819050919050565b6000612a77612a72612a6d8461217f565b612a52565b61217f565b9050919050565b6000612a8982612a5c565b9050919050565b6000612a9b82612a7e565b9050919050565b612aab81612a90565b82525050565b6000606082019050612ac66000830186612337565b612ad36020830185612337565b612ae06040830184612aa2565b949350505050565b7f626964206e6f7420657869737473000000000000000000000000000000000000600082015250565b6000612b1e600e8361252f565b9150612b2982612ae8565b602082019050919050565b60006020820190508181036000830152612b4d81612b11565b9050919050565b7f63616e7420706179207472697020666565000000000000000000000000000000600082015250565b6000612b8a60118361252f565b9150612b9582612b54565b602082019050919050565b60006020820190508181036000830152612bb981612b7d565b9050919050565b7f6e65656473207365617473000000000000000000000000000000000000000000600082015250565b6000612bf6600b8361252f565b9150612c0182612bc0565b602082019050919050565b60006020820190508181036000830152612c2581612be9565b9050919050565b7f6472697665722068617320747269700000000000000000000000000000000000600082015250565b6000612c62600f8361252f565b9150612c6d82612c2c565b602082019050919050565b60006020820190508181036000830152612c9181612c55565b9050919050565b6000608082019050612cad6000830187612337565b8181036020830152612cbf818661229f565b9050612cce6040830185612337565b612cdb6060830184612926565b95945050505050565b7f626964206973206e6f7420666f72206472697665720000000000000000000000600082015250565b6000612d1a60158361252f565b9150612d2582612ce4565b602082019050919050565b60006020820190508181036000830152612d4981612d0d565b9050919050565b6000612d5b82612259565b915060008203612d6e57612d6d6125ac565b5b600182039050919050565b6000612d848261211c565b9150612d8f8361211c565b9250827fffffffffffffffffffffffffffffffffffffffffffffffffffffffffffffffff03821115612dc457612dc36125ac565b5b828201905092915050565b600060e082019050612de46000830187612337565b612df16020830186612337565b8181036040830152612e03818561229f565b9050612e126060830184612361565b95945050505050565b7f64726976657220686173206e6f20747269700000000000000000000000000000600082015250565b6000612e5160128361252f565b9150612e5c82612e1b565b602082019050919050565b60006020820190508181036000830152612e8081612e44565b9050919050565b7f7472697020686173206e6f742073746172746564000000000000000000000000600082015250565b6000612ebd60148361252f565b9150612ec882612e87565b602082019050919050565b60006020820190508181036000830152612eec81612eb0565b9050919050565b7f7472697020686173206e6f2070617373656e6765727300000000000000000000600082015250565b6000612f2960168361252f565b9150612f3482612ef3565b602082019050919050565b60006020820190508181036000830152612f5881612f1c565b9050919050565b7f7472697020616c7265616479206861732070617373656e676572730000000000600082015250565b6000612f95601b8361252f565b9150612fa082612f5f565b602082019050919050565b60006020820190508181036000830152612fc481612f88565b905091905056fea2646970667358221220f5b408dc5a20d5a0df13d65ad76d723a9f67ec0276e87e44624de6987fca7f5264736f6c634300080d0033",
  "immutableReferences": {},
  "source": "// SPDX-License-Identifier: MIT\npragma solidity >=0.8.0;\n\ncontract Nekobasu {\n    uint tripFee = 30;\n\n    function getTripFee() public view returns (uint) {\n        return tripFee;\n    }\n\n    event NewTripOffer(uint tripId, Trip trip, uint cost, address driver);\n    event NewTripBid(uint tripId, uint bidId, Bid bid, address passenger);\n    event SeatOccupied(uint tripId, uint bidId, Trip trip, Bid bid);\n    event WithdrawBid(uint tripId, uint bidId, address passenger);\n    event StartedTrip(uint tripId);\n    event CancelledTrip(uint tripId);\n    event FinishedTrip(uint tripId);\n\n    struct Trip {\n        address driver;\n        string info;\n        uint8 seats;\n        uint cost;\n        bool started;\n    }\n\n    struct Bid {\n        address passenger;\n        uint amount;\n        uint tripId;\n        bool accepted;\n    }\n\n    Trip[] trips;\n    Bid[] bids;\n\n    mapping(address => uint) driverToTripId;\n    mapping(address => uint) driverToPool;\n    mapping(address => uint) passengerToBidId;\n\n    function getTrip(uint tripId) public view returns (Trip memory) {\n        require (tripId <= trips.length, \"trip not exists\");\n\n        Trip memory trip = trips[tripId - 1];\n        return  trip;\n    }\n\n    function getBid(uint bidId) public view returns (Bid memory) {\n        require (bidId <= trips.length, \"bid not exists\");\n\n        Bid memory bid = bids[bidId - 1];\n        return  bid;\n    }\n\n    function getActiveTrip() public view returns (uint) {\n        return driverToTripId[msg.sender];\n    }\n\n    function getActiveBid() public view returns (uint) {\n        return passengerToBidId[msg.sender];\n    }\n\n    function offerTrip(string calldata info, uint8 seats, uint cost) public payable {\n        address driver = msg.sender;\n\n        require (msg.value == tripFee, \"cant pay trip fee\");\n\n        require (seats > 0, \"needs seats\");\n        require (driverToTripId[driver] == 0, \"driver has trip\");\n\n        Trip memory trip = Trip(driver, info, seats, cost, false);\n        trips.push(trip);\n\n        uint tripId = trips.length;\n\n        driverToTripId[driver] = tripId;\n\n        // Transactions\n        // driver.tripFee -> contract done with payable.\n        driverToPool[driver] = tripFee;\n\n        emit NewTripOffer(tripId, trip, cost, driver);\n    }\n\n    function makeBid(uint tripId) public payable {\n        address passenger = msg.sender;\n        uint amount = msg.value;\n\n        require (passengerToBidId[passenger] == 0, \"passenger has bid\");\n\n        require (tripId <= trips.length, \"trip not exist\");\n\n        Trip memory trip = trips[tripId-1];\n        require (amount >= trip.cost, \"insufficient funds\");\n        require (!trip.started, \"trip has started\");\n        require (trip.driver != passenger, \"self bid\");\n        require (trip.seats > 0, \"no more seats\");\n\n        Bid memory bid = Bid(passenger, amount, tripId, false);\n        bids.push(bid);\n\n        uint bidId = bids.length;\n\n        passengerToBidId[passenger] = bidId;\n\n        // Transactions\n        // passenger.amount -> contract done with payable.\n\n        emit NewTripBid(tripId, bidId, bid, passenger);\n    }\n\n    function acceptBid(address passenger) public {\n        uint bidId = passengerToBidId[passenger];\n\n        require (bidId > 0, \"passenger has no bid\");\n\n        Bid memory bid = bids[bidId-1];\n        require (!bid.accepted, \"bid has been accepted\");\n\n\n        Trip memory trip = trips[bid.tripId-1];\n        address driver = msg.sender;\n        require (trip.driver == driver, \"bid is not for driver\");\n        require (!trip.started, \"trip has started\");\n        require (trip.seats > 0, \"no more seats\");\n\n        trip.seats--;\n        trips[bid.tripId-1] = trip;\n\n        // Transactions\n        driverToPool[trip.driver] += bid.amount;\n\n        bid.accepted = true;\n        bids[bidId-1] = bid;\n\n\n        emit SeatOccupied(bid.tripId, bidId, trip, bid);\n    }\n\n    function withdrawBid() public {\n        address payable passenger = payable(msg.sender);\n        uint bidId = passengerToBidId[passenger];\n\n        require (bidId != 0, \"passenger has no bid\");\n\n        Bid memory bid = bids[bidId - 1];\n\n        require (!bid.accepted, \"bid has been accepted\");\n\n        passengerToBidId[passenger] = 0;\n\n        // Transactions\n        passenger.transfer(bid.amount);\n\n        emit WithdrawBid(bid.tripId, bidId, passenger);\n    }\n\n    function startTrip() public {\n        address payable driver = payable(msg.sender);\n        uint tripId = driverToTripId[driver];\n\n        require (tripId != 0, \"driver has no trip\");\n        require (driverToPool[driver] != tripFee, \"trip has no passengers\");\n\n        // TODO: Check that the trip is on time.\n        // https://cryptozombies.io/en/lesson/3/chapter/5\n\n        Trip memory trip = trips[tripId-1];\n        trip.started = true;\n        trips[tripId-1] = trip;\n\n        // Transactions\n        // pool -> driver\n        driver.transfer(driverToPool[driver]);\n        driverToPool[driver] = 0;\n\n        emit StartedTrip(tripId);\n    }\n\n    function cancelTrip() public {\n        address driver = msg.sender;\n        uint tripId = driverToTripId[driver];\n\n        require (tripId != 0, \"driver has no trip\");\n        require (driverToPool[driver] == tripFee, \"trip already has passengers\");\n\n        driverToTripId[driver] = 0;\n\n        // Transactions \n        // TripFee is not returned, driver should not cancel trip.\n        driverToPool[driver] = 0;\n\n\n        emit CancelledTrip(tripId);\n    }\n\n    function finishTrip() public {\n        address driver = msg.sender;\n        uint tripId = driverToTripId[driver];\n\n        require (tripId != 0, \"driver has no trip\");\n\n        Trip memory trip = trips[tripId-1];\n        \n        require (trip.started, \"trip has not started\");\n\n        driverToTripId[driver] = 0;\n\n        emit FinishedTrip(tripId);\n    }\n\n    /*\n    TODO: Rules should be explicit on frontend, for driver and for passenger.\n    Example cant withdraw bid when it has been accepted.\n\tCancel incurss on a tripFee.\n    Cannot cancel a trip if it has passengers.\n    */\n\n}\n",
  "sourcePath": "/Users/tlacuilose/Documents/ts/kobasu/nekobasu/contracts/Nekobasu.sol",
  "compiler": {
    "name": "solc",
    "version": "0.8.13+commit.abaa5c0e.Emscripten.clang"
  },
  "schemaVersion": "3.4.7",
  "updatedAt": "2022-06-10T23:44:35.246Z",
  "networkType": "ethereum",
  "devdoc": {
    "kind": "dev",
    "methods": {},
    "version": 1
  },
  "userdoc": {
    "kind": "user",
    "methods": {},
    "version": 1
  }
}