{
  "contractName": "Nekobasu",
  "abi": [
    {
      "anonymous": false,
      "inputs": [
        {
          "indexed": true,
          "internalType": "uint256",
          "name": "tripId",
          "type": "uint256"
        }
      ],
      "name": "CancelledTrip",
      "type": "event"
    },
    {
      "anonymous": false,
      "inputs": [
        {
          "indexed": true,
          "internalType": "uint256",
          "name": "bidId",
          "type": "uint256"
        }
      ],
      "name": "FinishedBid",
      "type": "event"
    },
    {
      "anonymous": false,
      "inputs": [
        {
          "indexed": true,
          "internalType": "uint256",
          "name": "tripId",
          "type": "uint256"
        }
      ],
      "name": "FinishedTrip",
      "type": "event"
    },
    {
      "anonymous": false,
      "inputs": [
        {
          "indexed": true,
          "internalType": "uint256",
          "name": "tripId",
          "type": "uint256"
        },
        {
          "indexed": true,
          "internalType": "uint256",
          "name": "bidId",
          "type": "uint256"
        },
        {
          "components": [
            {
              "internalType": "address",
              "name": "passenger",
              "type": "address"
            },
            {
              "internalType": "uint256",
              "name": "amount",
              "type": "uint256"
            },
            {
              "internalType": "uint256",
              "name": "tripId",
              "type": "uint256"
            },
            {
              "internalType": "bool",
              "name": "accepted",
              "type": "bool"
            }
          ],
          "indexed": false,
          "internalType": "struct Nekobasu.Bid",
          "name": "bid",
          "type": "tuple"
        },
        {
          "indexed": false,
          "internalType": "address",
          "name": "passenger",
          "type": "address"
        }
      ],
      "name": "NewTripBid",
      "type": "event"
    },
    {
      "anonymous": false,
      "inputs": [
        {
          "indexed": false,
          "internalType": "uint256",
          "name": "tripId",
          "type": "uint256"
        },
        {
          "components": [
            {
              "internalType": "address",
              "name": "driver",
              "type": "address"
            },
            {
              "internalType": "string",
              "name": "info",
              "type": "string"
            },
            {
              "internalType": "uint8",
              "name": "seats",
              "type": "uint8"
            },
            {
              "internalType": "uint256",
              "name": "cost",
              "type": "uint256"
            },
            {
              "internalType": "bool",
              "name": "started",
              "type": "bool"
            }
          ],
          "indexed": false,
          "internalType": "struct Nekobasu.Trip",
          "name": "trip",
          "type": "tuple"
        },
        {
          "indexed": false,
          "internalType": "uint256",
          "name": "cost",
          "type": "uint256"
        },
        {
          "indexed": false,
          "internalType": "address",
          "name": "driver",
          "type": "address"
        }
      ],
      "name": "NewTripOffer",
      "type": "event"
    },
    {
      "anonymous": false,
      "inputs": [
        {
          "indexed": true,
          "internalType": "uint256",
          "name": "tripId",
          "type": "uint256"
        },
        {
          "indexed": true,
          "internalType": "uint256",
          "name": "bidId",
          "type": "uint256"
        },
        {
          "components": [
            {
              "internalType": "address",
              "name": "driver",
              "type": "address"
            },
            {
              "internalType": "string",
              "name": "info",
              "type": "string"
            },
            {
              "internalType": "uint8",
              "name": "seats",
              "type": "uint8"
            },
            {
              "internalType": "uint256",
              "name": "cost",
              "type": "uint256"
            },
            {
              "internalType": "bool",
              "name": "started",
              "type": "bool"
            }
          ],
          "indexed": false,
          "internalType": "struct Nekobasu.Trip",
          "name": "trip",
          "type": "tuple"
        },
        {
          "components": [
            {
              "internalType": "address",
              "name": "passenger",
              "type": "address"
            },
            {
              "internalType": "uint256",
              "name": "amount",
              "type": "uint256"
            },
            {
              "internalType": "uint256",
              "name": "tripId",
              "type": "uint256"
            },
            {
              "internalType": "bool",
              "name": "accepted",
              "type": "bool"
            }
          ],
          "indexed": false,
          "internalType": "struct Nekobasu.Bid",
          "name": "bid",
          "type": "tuple"
        }
      ],
      "name": "SeatOccupied",
      "type": "event"
    },
    {
      "anonymous": false,
      "inputs": [
        {
          "indexed": true,
          "internalType": "uint256",
          "name": "tripId",
          "type": "uint256"
        }
      ],
      "name": "StartedTrip",
      "type": "event"
    },
    {
      "anonymous": false,
      "inputs": [
        {
          "indexed": true,
          "internalType": "uint256",
          "name": "tripId",
          "type": "uint256"
        },
        {
          "indexed": true,
          "internalType": "uint256",
          "name": "bidId",
          "type": "uint256"
        },
        {
          "indexed": false,
          "internalType": "address",
          "name": "passenger",
          "type": "address"
        }
      ],
      "name": "WithdrawBid",
      "type": "event"
    },
    {
      "inputs": [],
      "name": "getTripFee",
      "outputs": [
        {
          "internalType": "uint256",
          "name": "",
          "type": "uint256"
        }
      ],
      "stateMutability": "view",
      "type": "function",
      "constant": true
    },
    {
      "inputs": [
        {
          "internalType": "uint256",
          "name": "tripId",
          "type": "uint256"
        }
      ],
      "name": "getTrip",
      "outputs": [
        {
          "components": [
            {
              "internalType": "address",
              "name": "driver",
              "type": "address"
            },
            {
              "internalType": "string",
              "name": "info",
              "type": "string"
            },
            {
              "internalType": "uint8",
              "name": "seats",
              "type": "uint8"
            },
            {
              "internalType": "uint256",
              "name": "cost",
              "type": "uint256"
            },
            {
              "internalType": "bool",
              "name": "started",
              "type": "bool"
            }
          ],
          "internalType": "struct Nekobasu.Trip",
          "name": "",
          "type": "tuple"
        }
      ],
      "stateMutability": "view",
      "type": "function",
      "constant": true
    },
    {
      "inputs": [
        {
          "internalType": "uint256",
          "name": "bidId",
          "type": "uint256"
        }
      ],
      "name": "getBid",
      "outputs": [
        {
          "components": [
            {
              "internalType": "address",
              "name": "passenger",
              "type": "address"
            },
            {
              "internalType": "uint256",
              "name": "amount",
              "type": "uint256"
            },
            {
              "internalType": "uint256",
              "name": "tripId",
              "type": "uint256"
            },
            {
              "internalType": "bool",
              "name": "accepted",
              "type": "bool"
            }
          ],
          "internalType": "struct Nekobasu.Bid",
          "name": "",
          "type": "tuple"
        }
      ],
      "stateMutability": "view",
      "type": "function",
      "constant": true
    },
    {
      "inputs": [],
      "name": "getActiveTrip",
      "outputs": [
        {
          "internalType": "uint256",
          "name": "",
          "type": "uint256"
        }
      ],
      "stateMutability": "view",
      "type": "function",
      "constant": true
    },
    {
      "inputs": [],
      "name": "getActiveBid",
      "outputs": [
        {
          "internalType": "uint256",
          "name": "",
          "type": "uint256"
        }
      ],
      "stateMutability": "view",
      "type": "function",
      "constant": true
    },
    {
      "inputs": [
        {
          "internalType": "string",
          "name": "info",
          "type": "string"
        },
        {
          "internalType": "uint8",
          "name": "seats",
          "type": "uint8"
        },
        {
          "internalType": "uint256",
          "name": "cost",
          "type": "uint256"
        }
      ],
      "name": "offerTrip",
      "outputs": [],
      "stateMutability": "payable",
      "type": "function",
      "payable": true
    },
    {
      "inputs": [
        {
          "internalType": "uint256",
          "name": "tripId",
          "type": "uint256"
        }
      ],
      "name": "makeBid",
      "outputs": [],
      "stateMutability": "payable",
      "type": "function",
      "payable": true
    },
    {
      "inputs": [
        {
          "internalType": "address",
          "name": "passenger",
          "type": "address"
        }
      ],
      "name": "acceptBid",
      "outputs": [],
      "stateMutability": "nonpayable",
      "type": "function"
    },
    {
      "inputs": [],
      "name": "withdrawBid",
      "outputs": [],
      "stateMutability": "nonpayable",
      "type": "function"
    },
    {
      "inputs": [],
      "name": "finishBid",
      "outputs": [],
      "stateMutability": "nonpayable",
      "type": "function"
    },
    {
      "inputs": [],
      "name": "startTrip",
      "outputs": [],
      "stateMutability": "nonpayable",
      "type": "function"
    },
    {
      "inputs": [],
      "name": "cancelTrip",
      "outputs": [],
      "stateMutability": "nonpayable",
      "type": "function"
    },
    {
      "inputs": [],
      "name": "finishTrip",
      "outputs": [],
      "stateMutability": "nonpayable",
      "type": "function"
    }
  ],
  "bytecode": "0x6080604052601e60005534801561001557600080fd5b50613321806100256000396000f3fe6080604052600436106100c25760003560e01c806348c8eaa71161007f5780639cf0d466116100595780639cf0d46614610212578063b9bdfc6a14610229578063c2be1c1114610254578063f2f8a9f31461027f576100c2565b806348c8eaa7146101b65780636ba74f17146101d25780637f7b79e1146101fb576100c2565b806301011705146100c7578063175b23041461010457806325aa890e146101205780632e92aacc1461013757806337271cc7146101625780633c889e6f14610179575b600080fd5b3480156100d357600080fd5b506100ee60048036038101906100e991906123ee565b610296565b6040516100fb91906125b1565b60405180910390f35b61011e600480360381019061011991906123ee565b610455565b005b34801561012c57600080fd5b506101356109d4565b005b34801561014357600080fd5b5061014c610bdd565b60405161015991906125e2565b60405180910390f35b34801561016e57600080fd5b50610177610be6565b005b34801561018557600080fd5b506101a0600480360381019061019b91906123ee565b610e4b565b6040516101ad9190612652565b60405180910390f35b6101d060048036038101906101cb91906126fe565b610f66565b005b3480156101de57600080fd5b506101f960048036038101906101f4919061279e565b6112b9565b005b34801561020757600080fd5b50610210611919565b005b34801561021e57600080fd5b50610227611bc6565b005b34801561023557600080fd5b5061023e612029565b60405161024b91906125e2565b60405180910390f35b34801561026057600080fd5b50610269612070565b60405161027691906125e2565b60405180910390f35b34801561028b57600080fd5b506102946120b7565b005b61029e612281565b6001805490508211156102e6576040517f08c379a00000000000000000000000000000000000000000000000000000000081526004016102dd90612828565b60405180910390fd5b6000600180846102f69190612877565b81548110610307576103066128ab565b5b90600052602060002090600502016040518060a00160405290816000820160009054906101000a900473ffffffffffffffffffffffffffffffffffffffff1673ffffffffffffffffffffffffffffffffffffffff1673ffffffffffffffffffffffffffffffffffffffff16815260200160018201805461038690612909565b80601f01602080910402602001604051908101604052809291908181526020018280546103b290612909565b80156103ff5780601f106103d4576101008083540402835291602001916103ff565b820191906000526020600020905b8154815290600101906020018083116103e257829003601f168201915b505050505081526020016002820160009054906101000a900460ff1660ff1660ff168152602001600382015481526020016004820160009054906101000a900460ff161515151581525050905080915050919050565b600033905060003490506000600560008473ffffffffffffffffffffffffffffffffffffffff1673ffffffffffffffffffffffffffffffffffffffff16815260200190815260200160002054146104e1576040517f08c379a00000000000000000000000000000000000000000000000000000000081526004016104d890612986565b60405180910390fd5b600180549050831115610529576040517f08c379a0000000000000000000000000000000000000000000000000000000008152600401610520906129f2565b60405180910390fd5b6000600180856105399190612877565b8154811061054a576105496128ab565b5b90600052602060002090600502016040518060a00160405290816000820160009054906101000a900473ffffffffffffffffffffffffffffffffffffffff1673ffffffffffffffffffffffffffffffffffffffff1673ffffffffffffffffffffffffffffffffffffffff1681526020016001820180546105c990612909565b80601f01602080910402602001604051908101604052809291908181526020018280546105f590612909565b80156106425780601f1061061757610100808354040283529160200191610642565b820191906000526020600020905b81548152906001019060200180831161062557829003601f168201915b505050505081526020016002820160009054906101000a900460ff1660ff1660ff168152602001600382015481526020016004820160009054906101000a900460ff16151515158152505090508360036000836000015173ffffffffffffffffffffffffffffffffffffffff1673ffffffffffffffffffffffffffffffffffffffff1681526020019081526020016000205414610714576040517f08c379a000000000000000000000000000000000000000000000000000000000815260040161070b90612a5e565b60405180910390fd5b806060015182101561075b576040517f08c379a000000000000000000000000000000000000000000000000000000000815260040161075290612aca565b60405180910390fd5b8060800151156107a0576040517f08c379a000000000000000000000000000000000000000000000000000000000815260040161079790612b36565b60405180910390fd5b8273ffffffffffffffffffffffffffffffffffffffff16816000015173ffffffffffffffffffffffffffffffffffffffff1603610812576040517f08c379a000000000000000000000000000000000000000000000000000000000815260040161080990612ba2565b60405180910390fd5b6000816040015160ff161161085c576040517f08c379a000000000000000000000000000000000000000000000000000000000815260040161085390612c0e565b60405180910390fd5b600060405180608001604052808573ffffffffffffffffffffffffffffffffffffffff168152602001848152602001868152602001600015158152509050600281908060018154018082558091505060019003906000526020600020906004020160009091909190915060008201518160000160006101000a81548173ffffffffffffffffffffffffffffffffffffffff021916908373ffffffffffffffffffffffffffffffffffffffff160217905550602082015181600101556040820151816002015560608201518160030160006101000a81548160ff02191690831515021790555050506000600280549050905080600560008773ffffffffffffffffffffffffffffffffffffffff1673ffffffffffffffffffffffffffffffffffffffff1681526020019081526020016000208190555080867f981b957e210e9b1ca618883b28a87636be60896b76781a91a10fb2fbbe51743c84886040516109c4929190612c3d565b60405180910390a3505050505050565b60003390506000600560008373ffffffffffffffffffffffffffffffffffffffff1673ffffffffffffffffffffffffffffffffffffffff16815260200190815260200160002054905060008103610a60576040517f08c379a0000000000000000000000000000000000000000000000000000000008152600401610a5790612cb2565b60405180910390fd5b60006002600183610a719190612877565b81548110610a8257610a816128ab565b5b90600052602060002090600402016040518060800160405290816000820160009054906101000a900473ffffffffffffffffffffffffffffffffffffffff1673ffffffffffffffffffffffffffffffffffffffff1673ffffffffffffffffffffffffffffffffffffffff16815260200160018201548152602001600282015481526020016003820160009054906101000a900460ff16151515158152505090508060600151610b66576040517f08c379a0000000000000000000000000000000000000000000000000000000008152600401610b5d90612d1e565b60405180910390fd5b6000600560008573ffffffffffffffffffffffffffffffffffffffff1673ffffffffffffffffffffffffffffffffffffffff16815260200190815260200160002081905550817f73d64287a041d685fdc77dca66d5bd2d9c16c57ecc98c67e374b4266b8acf92660405160405180910390a2505050565b60008054905090565b60003390506000600560008373ffffffffffffffffffffffffffffffffffffffff1673ffffffffffffffffffffffffffffffffffffffff16815260200190815260200160002054905060008103610c72576040517f08c379a0000000000000000000000000000000000000000000000000000000008152600401610c6990612cb2565b60405180910390fd5b60006002600183610c839190612877565b81548110610c9457610c936128ab565b5b90600052602060002090600402016040518060800160405290816000820160009054906101000a900473ffffffffffffffffffffffffffffffffffffffff1673ffffffffffffffffffffffffffffffffffffffff1673ffffffffffffffffffffffffffffffffffffffff16815260200160018201548152602001600282015481526020016003820160009054906101000a900460ff1615151515815250509050806060015115610d79576040517f08c379a0000000000000000000000000000000000000000000000000000000008152600401610d7090612d8a565b60405180910390fd5b6000600560008573ffffffffffffffffffffffffffffffffffffffff1673ffffffffffffffffffffffffffffffffffffffff168152602001908152602001600020819055508273ffffffffffffffffffffffffffffffffffffffff166108fc82602001519081150290604051600060405180830381858888f19350505050158015610e08573d6000803e3d6000fd5b508181604001517f9fa51e6fcc1ea495b771509dde92669732f871ec2e79b405f33d17d7ead38f6685604051610e3e9190612e09565b60405180910390a3505050565b610e536122cb565b600280549050821115610e9b576040517f08c379a0000000000000000000000000000000000000000000000000000000008152600401610e9290612e70565b60405180910390fd5b60006002600184610eac9190612877565b81548110610ebd57610ebc6128ab565b5b90600052602060002090600402016040518060800160405290816000820160009054906101000a900473ffffffffffffffffffffffffffffffffffffffff1673ffffffffffffffffffffffffffffffffffffffff1673ffffffffffffffffffffffffffffffffffffffff16815260200160018201548152602001600282015481526020016003820160009054906101000a900460ff161515151581525050905080915050919050565b60003390506000543414610faf576040517f08c379a0000000000000000000000000000000000000000000000000000000008152600401610fa690612edc565b60405180910390fd5b60008360ff1611610ff5576040517f08c379a0000000000000000000000000000000000000000000000000000000008152600401610fec90612f48565b60405180910390fd5b6000600360008373ffffffffffffffffffffffffffffffffffffffff1673ffffffffffffffffffffffffffffffffffffffff1681526020019081526020016000205414611077576040517f08c379a000000000000000000000000000000000000000000000000000000000815260040161106e90612fb4565b60405180910390fd5b60006040518060a001604052808373ffffffffffffffffffffffffffffffffffffffff16815260200187878080601f016020809104026020016040519081016040528093929190818152602001838380828437600081840152601f19601f8201169050808301925050505050505081526020018560ff168152602001848152602001600015158152509050600181908060018154018082558091505060019003906000526020600020906005020160009091909190915060008201518160000160006101000a81548173ffffffffffffffffffffffffffffffffffffffff021916908373ffffffffffffffffffffffffffffffffffffffff160217905550602082015181600101908051906020019061119192919061230b565b5060408201518160020160006101000a81548160ff021916908360ff1602179055506060820151816003015560808201518160040160006101000a81548160ff02191690831515021790555050506000600180549050905080600360008573ffffffffffffffffffffffffffffffffffffffff1673ffffffffffffffffffffffffffffffffffffffff16815260200190815260200160002081905550600054600460008573ffffffffffffffffffffffffffffffffffffffff1673ffffffffffffffffffffffffffffffffffffffff168152602001908152602001600020819055507f97b004ae367511ffcdbe6af03e1703e2af08ba6de65ccecd1cad04ea3baa5295818386866040516112a89493929190612fd4565b60405180910390a150505050505050565b6000600560008373ffffffffffffffffffffffffffffffffffffffff1673ffffffffffffffffffffffffffffffffffffffff16815260200190815260200160002054905060008111611340576040517f08c379a000000000000000000000000000000000000000000000000000000000815260040161133790612cb2565b60405180910390fd5b600060026001836113519190612877565b81548110611362576113616128ab565b5b90600052602060002090600402016040518060800160405290816000820160009054906101000a900473ffffffffffffffffffffffffffffffffffffffff1673ffffffffffffffffffffffffffffffffffffffff1673ffffffffffffffffffffffffffffffffffffffff16815260200160018201548152602001600282015481526020016003820160009054906101000a900460ff1615151515815250509050806060015115611447576040517f08c379a000000000000000000000000000000000000000000000000000000000815260040161143e90612d8a565b60405180910390fd5b6000600180836040015161145b9190612877565b8154811061146c5761146b6128ab565b5b90600052602060002090600502016040518060a00160405290816000820160009054906101000a900473ffffffffffffffffffffffffffffffffffffffff1673ffffffffffffffffffffffffffffffffffffffff1673ffffffffffffffffffffffffffffffffffffffff1681526020016001820180546114eb90612909565b80601f016020809104026020016040519081016040528092919081815260200182805461151790612909565b80156115645780601f1061153957610100808354040283529160200191611564565b820191906000526020600020905b81548152906001019060200180831161154757829003601f168201915b505050505081526020016002820160009054906101000a900460ff1660ff1660ff168152602001600382015481526020016004820160009054906101000a900460ff161515151581525050905060003390508073ffffffffffffffffffffffffffffffffffffffff16826000015173ffffffffffffffffffffffffffffffffffffffff1614611628576040517f08c379a000000000000000000000000000000000000000000000000000000000815260040161161f9061306c565b60405180910390fd5b81608001511561166d576040517f08c379a000000000000000000000000000000000000000000000000000000000815260040161166490612b36565b60405180910390fd5b6000826040015160ff16116116b7576040517f08c379a00000000000000000000000000000000000000000000000000000000081526004016116ae90612c0e565b60405180910390fd5b8160400180518091906116c99061308c565b60ff1660ff16815250508160018085604001516116e69190612877565b815481106116f7576116f66128ab565b5b906000526020600020906005020160008201518160000160006101000a81548173ffffffffffffffffffffffffffffffffffffffff021916908373ffffffffffffffffffffffffffffffffffffffff160217905550602082015181600101908051906020019061176892919061230b565b5060408201518160020160006101000a81548160ff021916908360ff1602179055506060820151816003015560808201518160040160006101000a81548160ff021916908315150217905550905050826020015160046000846000015173ffffffffffffffffffffffffffffffffffffffff1673ffffffffffffffffffffffffffffffffffffffff168152602001908152602001600020600082825461180e91906130b5565b9250508190555060018360600190151590811515815250508260026001866118369190612877565b81548110611847576118466128ab565b5b906000526020600020906004020160008201518160000160006101000a81548173ffffffffffffffffffffffffffffffffffffffff021916908373ffffffffffffffffffffffffffffffffffffffff160217905550602082015181600101556040820151816002015560608201518160030160006101000a81548160ff0219169083151502179055509050508383604001517f0ea42b0468072ac76782c6c85252314e7b6d7ff733d0257240016a4a79e69cfb848660405161190a92919061310b565b60405180910390a35050505050565b60003390506000600360008373ffffffffffffffffffffffffffffffffffffffff1673ffffffffffffffffffffffffffffffffffffffff168152602001908152602001600020549050600081036119a5576040517f08c379a000000000000000000000000000000000000000000000000000000000815260040161199c90613187565b60405180910390fd5b6000600180836119b59190612877565b815481106119c6576119c56128ab565b5b90600052602060002090600502016040518060a00160405290816000820160009054906101000a900473ffffffffffffffffffffffffffffffffffffffff1673ffffffffffffffffffffffffffffffffffffffff1673ffffffffffffffffffffffffffffffffffffffff168152602001600182018054611a4590612909565b80601f0160208091040260200160405190810160405280929190818152602001828054611a7190612909565b8015611abe5780601f10611a9357610100808354040283529160200191611abe565b820191906000526020600020905b815481529060010190602001808311611aa157829003601f168201915b505050505081526020016002820160009054906101000a900460ff1660ff1660ff168152602001600382015481526020016004820160009054906101000a900460ff16151515158152505090508060800151611b4f576040517f08c379a0000000000000000000000000000000000000000000000000000000008152600401611b46906131f3565b60405180910390fd5b6000600360008573ffffffffffffffffffffffffffffffffffffffff1673ffffffffffffffffffffffffffffffffffffffff16815260200190815260200160002081905550817f4b96a9f6ca7063c5d7a683f4b7c4a8eb1c213692fc782c7d10f196fb64a46ea260405160405180910390a2505050565b60003390506000600360008373ffffffffffffffffffffffffffffffffffffffff1673ffffffffffffffffffffffffffffffffffffffff16815260200190815260200160002054905060008103611c52576040517f08c379a0000000000000000000000000000000000000000000000000000000008152600401611c4990613187565b60405180910390fd5b600054600460008473ffffffffffffffffffffffffffffffffffffffff1673ffffffffffffffffffffffffffffffffffffffff1681526020019081526020016000205403611cd5576040517f08c379a0000000000000000000000000000000000000000000000000000000008152600401611ccc9061325f565b60405180910390fd5b600060018083611ce59190612877565b81548110611cf657611cf56128ab565b5b90600052602060002090600502016040518060a00160405290816000820160009054906101000a900473ffffffffffffffffffffffffffffffffffffffff1673ffffffffffffffffffffffffffffffffffffffff1673ffffffffffffffffffffffffffffffffffffffff168152602001600182018054611d7590612909565b80601f0160208091040260200160405190810160405280929190818152602001828054611da190612909565b8015611dee5780601f10611dc357610100808354040283529160200191611dee565b820191906000526020600020905b815481529060010190602001808311611dd157829003601f168201915b505050505081526020016002820160009054906101000a900460ff1660ff1660ff168152602001600382015481526020016004820160009054906101000a900460ff161515151581525050905060018160800190151590811515815250508060018084611e5b9190612877565b81548110611e6c57611e6b6128ab565b5b906000526020600020906005020160008201518160000160006101000a81548173ffffffffffffffffffffffffffffffffffffffff021916908373ffffffffffffffffffffffffffffffffffffffff1602179055506020820151816001019080519060200190611edd92919061230b565b5060408201518160020160006101000a81548160ff021916908360ff1602179055506060820151816003015560808201518160040160006101000a81548160ff0219169083151502179055509050508273ffffffffffffffffffffffffffffffffffffffff166108fc600460008673ffffffffffffffffffffffffffffffffffffffff1673ffffffffffffffffffffffffffffffffffffffff168152602001908152602001600020549081150290604051600060405180830381858888f19350505050158015611fb1573d6000803e3d6000fd5b506000600460008573ffffffffffffffffffffffffffffffffffffffff1673ffffffffffffffffffffffffffffffffffffffff16815260200190815260200160002081905550817f16092bc1964df101ccee7353b4f8592b2c354aafd14a391c93cb46a1acfafcef60405160405180910390a2505050565b6000600560003373ffffffffffffffffffffffffffffffffffffffff1673ffffffffffffffffffffffffffffffffffffffff16815260200190815260200160002054905090565b6000600360003373ffffffffffffffffffffffffffffffffffffffff1673ffffffffffffffffffffffffffffffffffffffff16815260200190815260200160002054905090565b60003390506000600360008373ffffffffffffffffffffffffffffffffffffffff1673ffffffffffffffffffffffffffffffffffffffff16815260200190815260200160002054905060008103612143576040517f08c379a000000000000000000000000000000000000000000000000000000000815260040161213a90613187565b60405180910390fd5b600054600460008473ffffffffffffffffffffffffffffffffffffffff1673ffffffffffffffffffffffffffffffffffffffff16815260200190815260200160002054146121c6576040517f08c379a00000000000000000000000000000000000000000000000000000000081526004016121bd906132cb565b60405180910390fd5b6000600360008473ffffffffffffffffffffffffffffffffffffffff1673ffffffffffffffffffffffffffffffffffffffff168152602001908152602001600020819055506000600460008473ffffffffffffffffffffffffffffffffffffffff1673ffffffffffffffffffffffffffffffffffffffff16815260200190815260200160002081905550807f33f593f5c5ecc55eda07904dd8f1514d8ad3b582ad3e4c157afcfac82e6d030760405160405180910390a25050565b6040518060a00160405280600073ffffffffffffffffffffffffffffffffffffffff16815260200160608152602001600060ff168152602001600081526020016000151581525090565b6040518060800160405280600073ffffffffffffffffffffffffffffffffffffffff16815260200160008152602001600081526020016000151581525090565b82805461231790612909565b90600052602060002090601f0160209004810192826123395760008555612380565b82601f1061235257805160ff1916838001178555612380565b82800160010185558215612380579182015b8281111561237f578251825591602001919060010190612364565b5b50905061238d9190612391565b5090565b5b808211156123aa576000816000905550600101612392565b5090565b600080fd5b600080fd5b6000819050919050565b6123cb816123b8565b81146123d657600080fd5b50565b6000813590506123e8816123c2565b92915050565b600060208284031215612404576124036123ae565b5b6000612412848285016123d9565b91505092915050565b600073ffffffffffffffffffffffffffffffffffffffff82169050919050565b60006124468261241b565b9050919050565b6124568161243b565b82525050565b600081519050919050565b600082825260208201905092915050565b60005b8381101561249657808201518184015260208101905061247b565b838111156124a5576000848401525b50505050565b6000601f19601f8301169050919050565b60006124c78261245c565b6124d18185612467565b93506124e1818560208601612478565b6124ea816124ab565b840191505092915050565b600060ff82169050919050565b61250b816124f5565b82525050565b61251a816123b8565b82525050565b60008115159050919050565b61253581612520565b82525050565b600060a083016000830151612553600086018261244d565b506020830151848203602086015261256b82826124bc565b91505060408301516125806040860182612502565b5060608301516125936060860182612511565b5060808301516125a6608086018261252c565b508091505092915050565b600060208201905081810360008301526125cb818461253b565b905092915050565b6125dc816123b8565b82525050565b60006020820190506125f760008301846125d3565b92915050565b608082016000820151612613600085018261244d565b5060208201516126266020850182612511565b5060408201516126396040850182612511565b50606082015161264c606085018261252c565b50505050565b600060808201905061266760008301846125fd565b92915050565b600080fd5b600080fd5b600080fd5b60008083601f8401126126925761269161266d565b5b8235905067ffffffffffffffff8111156126af576126ae612672565b5b6020830191508360018202830111156126cb576126ca612677565b5b9250929050565b6126db816124f5565b81146126e657600080fd5b50565b6000813590506126f8816126d2565b92915050565b60008060008060608587031215612718576127176123ae565b5b600085013567ffffffffffffffff811115612736576127356123b3565b5b6127428782880161267c565b94509450506020612755878288016126e9565b9250506040612766878288016123d9565b91505092959194509250565b61277b8161243b565b811461278657600080fd5b50565b60008135905061279881612772565b92915050565b6000602082840312156127b4576127b36123ae565b5b60006127c284828501612789565b91505092915050565b600082825260208201905092915050565b7f74726970206e6f74206578697374730000000000000000000000000000000000600082015250565b6000612812600f836127cb565b915061281d826127dc565b602082019050919050565b6000602082019050818103600083015261284181612805565b9050919050565b7f4e487b7100000000000000000000000000000000000000000000000000000000600052601160045260246000fd5b6000612882826123b8565b915061288d836123b8565b9250828210156128a05761289f612848565b5b828203905092915050565b7f4e487b7100000000000000000000000000000000000000000000000000000000600052603260045260246000fd5b7f4e487b7100000000000000000000000000000000000000000000000000000000600052602260045260246000fd5b6000600282049050600182168061292157607f821691505b602082108103612934576129336128da565b5b50919050565b7f70617373656e6765722068617320626964000000000000000000000000000000600082015250565b60006129706011836127cb565b915061297b8261293a565b602082019050919050565b6000602082019050818103600083015261299f81612963565b9050919050565b7f74726970206e6f74206578697374000000000000000000000000000000000000600082015250565b60006129dc600e836127cb565b91506129e7826129a6565b602082019050919050565b60006020820190508181036000830152612a0b816129cf565b9050919050565b7f74726970206973206e6f74206f66666572656400000000000000000000000000600082015250565b6000612a486013836127cb565b9150612a5382612a12565b602082019050919050565b60006020820190508181036000830152612a7781612a3b565b9050919050565b7f696e73756666696369656e742066756e64730000000000000000000000000000600082015250565b6000612ab46012836127cb565b9150612abf82612a7e565b602082019050919050565b60006020820190508181036000830152612ae381612aa7565b9050919050565b7f7472697020686173207374617274656400000000000000000000000000000000600082015250565b6000612b206010836127cb565b9150612b2b82612aea565b602082019050919050565b60006020820190508181036000830152612b4f81612b13565b9050919050565b7f73656c6620626964000000000000000000000000000000000000000000000000600082015250565b6000612b8c6008836127cb565b9150612b9782612b56565b602082019050919050565b60006020820190508181036000830152612bbb81612b7f565b9050919050565b7f6e6f206d6f726520736561747300000000000000000000000000000000000000600082015250565b6000612bf8600d836127cb565b9150612c0382612bc2565b602082019050919050565b60006020820190508181036000830152612c2781612beb565b9050919050565b612c378161243b565b82525050565b600060a082019050612c5260008301856125fd565b612c5f6080830184612c2e565b9392505050565b7f70617373656e67657220686173206e6f20626964000000000000000000000000600082015250565b6000612c9c6014836127cb565b9150612ca782612c66565b602082019050919050565b60006020820190508181036000830152612ccb81612c8f565b9050919050565b7f62696420686173206e6f74206265656e20616363657074656400000000000000600082015250565b6000612d086019836127cb565b9150612d1382612cd2565b602082019050919050565b60006020820190508181036000830152612d3781612cfb565b9050919050565b7f62696420686173206265656e2061636365707465640000000000000000000000600082015250565b6000612d746015836127cb565b9150612d7f82612d3e565b602082019050919050565b60006020820190508181036000830152612da381612d67565b9050919050565b6000819050919050565b6000612dcf612dca612dc58461241b565b612daa565b61241b565b9050919050565b6000612de182612db4565b9050919050565b6000612df382612dd6565b9050919050565b612e0381612de8565b82525050565b6000602082019050612e1e6000830184612dfa565b92915050565b7f626964206e6f7420657869737473000000000000000000000000000000000000600082015250565b6000612e5a600e836127cb565b9150612e6582612e24565b602082019050919050565b60006020820190508181036000830152612e8981612e4d565b9050919050565b7f63616e7420706179207472697020666565000000000000000000000000000000600082015250565b6000612ec66011836127cb565b9150612ed182612e90565b602082019050919050565b60006020820190508181036000830152612ef581612eb9565b9050919050565b7f6e65656473207365617473000000000000000000000000000000000000000000600082015250565b6000612f32600b836127cb565b9150612f3d82612efc565b602082019050919050565b60006020820190508181036000830152612f6181612f25565b9050919050565b7f6472697665722068617320747269700000000000000000000000000000000000600082015250565b6000612f9e600f836127cb565b9150612fa982612f68565b602082019050919050565b60006020820190508181036000830152612fcd81612f91565b9050919050565b6000608082019050612fe960008301876125d3565b8181036020830152612ffb818661253b565b905061300a60408301856125d3565b6130176060830184612c2e565b95945050505050565b7f626964206973206e6f7420666f72206472697665720000000000000000000000600082015250565b60006130566015836127cb565b915061306182613020565b602082019050919050565b6000602082019050818103600083015261308581613049565b9050919050565b6000613097826124f5565b9150600082036130aa576130a9612848565b5b600182039050919050565b60006130c0826123b8565b91506130cb836123b8565b9250827fffffffffffffffffffffffffffffffffffffffffffffffffffffffffffffffff03821115613100576130ff612848565b5b828201905092915050565b600060a0820190508181036000830152613125818561253b565b905061313460208301846125fd565b9392505050565b7f64726976657220686173206e6f20747269700000000000000000000000000000600082015250565b60006131716012836127cb565b915061317c8261313b565b602082019050919050565b600060208201905081810360008301526131a081613164565b9050919050565b7f7472697020686173206e6f742073746172746564000000000000000000000000600082015250565b60006131dd6014836127cb565b91506131e8826131a7565b602082019050919050565b6000602082019050818103600083015261320c816131d0565b9050919050565b7f7472697020686173206e6f2070617373656e6765727300000000000000000000600082015250565b60006132496016836127cb565b915061325482613213565b602082019050919050565b600060208201905081810360008301526132788161323c565b9050919050565b7f7472697020616c7265616479206861732070617373656e676572730000000000600082015250565b60006132b5601b836127cb565b91506132c08261327f565b602082019050919050565b600060208201905081810360008301526132e4816132a8565b905091905056fea264697066735822122066477bb5bf5b3ffd84c3c767e6ea62364aab0e287be4cf4ecc81d12d3944d2e764736f6c634300080d0033",
  "immutableReferences": {},
  "source": "// SPDX-License-Identifier: MIT\npragma solidity >=0.8.0;\n\ncontract Nekobasu {\n    uint tripFee = 30;\n\n    function getTripFee() public view returns (uint) {\n        return tripFee;\n    }\n\n    event NewTripOffer(uint tripId, Trip trip, uint cost, address driver);\n    event NewTripBid(uint indexed tripId, uint indexed bidId, Bid bid, address passenger);\n    event SeatOccupied(uint indexed tripId, uint indexed bidId, Trip trip, Bid bid);\n    event WithdrawBid(uint indexed tripId, uint indexed bidId, address passenger);\n    event FinishedBid(uint indexed bidId);\n    event StartedTrip(uint indexed tripId);\n    event CancelledTrip(uint indexed tripId);\n    event FinishedTrip(uint indexed tripId);\n\n    struct Trip {\n        address driver;\n        string info;\n        uint8 seats;\n        uint cost;\n        bool started;\n    }\n\n    struct Bid {\n        address passenger;\n        uint amount;\n        uint tripId;\n        bool accepted;\n    }\n\n    Trip[] trips;\n    Bid[] bids;\n\n    mapping(address => uint) driverToTripId;\n    mapping(address => uint) driverToPool;\n    mapping(address => uint) passengerToBidId;\n\n    function getTrip(uint tripId) public view returns (Trip memory) {\n        require (tripId <= trips.length, \"trip not exists\");\n\n        Trip memory trip = trips[tripId - 1];\n        return  trip;\n    }\n\n    function getBid(uint bidId) public view returns (Bid memory) {\n        require (bidId <= bids.length, \"bid not exists\");\n\n        Bid memory bid = bids[bidId - 1];\n        return  bid;\n    }\n\n    function getActiveTrip() public view returns (uint) {\n        return driverToTripId[msg.sender];\n    }\n\n    function getActiveBid() public view returns (uint) {\n        return passengerToBidId[msg.sender];\n    }\n\n    function offerTrip(string calldata info, uint8 seats, uint cost) public payable {\n        address driver = msg.sender;\n\n        require (msg.value == tripFee, \"cant pay trip fee\");\n\n        require (seats > 0, \"needs seats\");\n        require (driverToTripId[driver] == 0, \"driver has trip\");\n\n        Trip memory trip = Trip(driver, info, seats, cost, false);\n        trips.push(trip);\n\n        uint tripId = trips.length;\n\n        driverToTripId[driver] = tripId;\n\n        // Transactions\n        // driver.tripFee -> contract done with payable.\n        driverToPool[driver] = tripFee;\n\n        emit NewTripOffer(tripId, trip, cost, driver);\n    }\n\n    function makeBid(uint tripId) public payable {\n        address passenger = msg.sender;\n        uint amount = msg.value;\n\n        require (passengerToBidId[passenger] == 0, \"passenger has bid\");\n\n        require (tripId <= trips.length, \"trip not exist\");\n\n        Trip memory trip = trips[tripId-1];\n        require (driverToTripId[trip.driver] == tripId, \"trip is not offered\");\n        require (amount >= trip.cost, \"insufficient funds\");\n        require (!trip.started, \"trip has started\");\n        require (trip.driver != passenger, \"self bid\");\n        require (trip.seats > 0, \"no more seats\");\n\n        Bid memory bid = Bid(passenger, amount, tripId, false);\n        bids.push(bid);\n\n        uint bidId = bids.length;\n\n        passengerToBidId[passenger] = bidId;\n\n        // Transactions\n        // passenger.amount -> contract done with payable.\n\n        emit NewTripBid(tripId, bidId, bid, passenger);\n    }\n\n    function acceptBid(address passenger) public {\n        uint bidId = passengerToBidId[passenger];\n\n        require (bidId > 0, \"passenger has no bid\");\n\n        Bid memory bid = bids[bidId-1];\n        require (!bid.accepted, \"bid has been accepted\");\n\n\n        Trip memory trip = trips[bid.tripId-1];\n        address driver = msg.sender;\n        require (trip.driver == driver, \"bid is not for driver\");\n        require (!trip.started, \"trip has started\");\n        require (trip.seats > 0, \"no more seats\");\n\n        trip.seats--;\n        trips[bid.tripId-1] = trip;\n\n        // Transactions\n        driverToPool[trip.driver] += bid.amount;\n\n        bid.accepted = true;\n        bids[bidId-1] = bid;\n\n\n        emit SeatOccupied(bid.tripId, bidId, trip, bid);\n    }\n\n    function withdrawBid() public {\n        address payable passenger = payable(msg.sender);\n        uint bidId = passengerToBidId[passenger];\n\n        require (bidId != 0, \"passenger has no bid\");\n\n        Bid memory bid = bids[bidId - 1];\n\n        require (!bid.accepted, \"bid has been accepted\");\n\n        passengerToBidId[passenger] = 0;\n\n        // Transactions\n        passenger.transfer(bid.amount);\n\n        emit WithdrawBid(bid.tripId, bidId, passenger);\n    }\n\n    function finishBid() public {\n        address passenger = msg.sender;\n        uint bidId = passengerToBidId[passenger];\n\n        require (bidId != 0, \"passenger has no bid\");\n\n        Bid memory bid = bids[bidId-1];\n        \n        require (bid.accepted, \"bid has not been accepted\");\n\n        passengerToBidId[passenger] = 0;\n\n        emit FinishedBid(bidId);\n    }\n\n    function startTrip() public {\n        address payable driver = payable(msg.sender);\n        uint tripId = driverToTripId[driver];\n\n        require (tripId != 0, \"driver has no trip\");\n        require (driverToPool[driver] != tripFee, \"trip has no passengers\");\n\n        // TODO: Check that the trip is on time.\n        // https://cryptozombies.io/en/lesson/3/chapter/5\n\n        Trip memory trip = trips[tripId-1];\n        trip.started = true;\n        trips[tripId-1] = trip;\n\n        // Transactions\n        // pool -> driver\n        driver.transfer(driverToPool[driver]);\n        driverToPool[driver] = 0;\n\n        emit StartedTrip(tripId);\n    }\n\n    function cancelTrip() public {\n        address driver = msg.sender;\n        uint tripId = driverToTripId[driver];\n\n        require (tripId != 0, \"driver has no trip\");\n        require (driverToPool[driver] == tripFee, \"trip already has passengers\");\n\n        driverToTripId[driver] = 0;\n\n        // Transactions \n        // TripFee is not returned, driver should not cancel trip.\n        driverToPool[driver] = 0;\n\n\n        emit CancelledTrip(tripId);\n    }\n\n    function finishTrip() public {\n        address driver = msg.sender;\n        uint tripId = driverToTripId[driver];\n\n        require (tripId != 0, \"driver has no trip\");\n\n        Trip memory trip = trips[tripId-1];\n        \n        require (trip.started, \"trip has not started\");\n\n        driverToTripId[driver] = 0;\n\n        emit FinishedTrip(tripId);\n    }\n\n    /*\n    TODO: Rules should be explicit on frontend, for driver and for passenger.\n    Example cant withdraw bid when it has been accepted.\n\tCancel incurss on a tripFee.\n    Cannot cancel a trip if it has passengers.\n    */\n\n}\n",
  "sourcePath": "/Users/tlacuilose/Documents/ts/kobasu/nekobasu/contracts/Nekobasu.sol",
  "compiler": {
    "name": "solc",
    "version": "0.8.13+commit.abaa5c0e.Emscripten.clang"
  },
  "schemaVersion": "3.4.7",
  "updatedAt": "2022-06-11T03:17:36.929Z",
  "networkType": "ethereum",
  "devdoc": {
    "kind": "dev",
    "methods": {},
    "version": 1
  },
  "userdoc": {
    "kind": "user",
    "methods": {},
    "version": 1
  }
}