{
  "contractName": "Nekobasu",
  "abi": [
    {
      "anonymous": false,
      "inputs": [
        {
          "indexed": true,
          "internalType": "uint256",
          "name": "tripId",
          "type": "uint256"
        }
      ],
      "name": "CancelledTrip",
      "type": "event"
    },
    {
      "anonymous": false,
      "inputs": [
        {
          "indexed": true,
          "internalType": "uint256",
          "name": "bidId",
          "type": "uint256"
        }
      ],
      "name": "FinishedBid",
      "type": "event"
    },
    {
      "anonymous": false,
      "inputs": [
        {
          "indexed": true,
          "internalType": "uint256",
          "name": "tripId",
          "type": "uint256"
        }
      ],
      "name": "FinishedTrip",
      "type": "event"
    },
    {
      "anonymous": false,
      "inputs": [
        {
          "indexed": true,
          "internalType": "uint256",
          "name": "tripId",
          "type": "uint256"
        },
        {
          "indexed": true,
          "internalType": "uint256",
          "name": "bidId",
          "type": "uint256"
        },
        {
          "components": [
            {
              "internalType": "address",
              "name": "passenger",
              "type": "address"
            },
            {
              "internalType": "uint256",
              "name": "amount",
              "type": "uint256"
            },
            {
              "internalType": "uint256",
              "name": "tripId",
              "type": "uint256"
            },
            {
              "internalType": "bool",
              "name": "accepted",
              "type": "bool"
            }
          ],
          "indexed": false,
          "internalType": "struct Nekobasu.Bid",
          "name": "bid",
          "type": "tuple"
        },
        {
          "indexed": false,
          "internalType": "address",
          "name": "passenger",
          "type": "address"
        }
      ],
      "name": "NewTripBid",
      "type": "event"
    },
    {
      "anonymous": false,
      "inputs": [
        {
          "indexed": false,
          "internalType": "uint256",
          "name": "tripId",
          "type": "uint256"
        },
        {
          "components": [
            {
              "internalType": "address",
              "name": "driver",
              "type": "address"
            },
            {
              "internalType": "string",
              "name": "info",
              "type": "string"
            },
            {
              "internalType": "string",
              "name": "meetingtime",
              "type": "string"
            },
            {
              "internalType": "uint8",
              "name": "seats",
              "type": "uint8"
            },
            {
              "internalType": "uint256",
              "name": "cost",
              "type": "uint256"
            },
            {
              "internalType": "bool",
              "name": "started",
              "type": "bool"
            }
          ],
          "indexed": false,
          "internalType": "struct Nekobasu.Trip",
          "name": "trip",
          "type": "tuple"
        },
        {
          "indexed": false,
          "internalType": "uint256",
          "name": "cost",
          "type": "uint256"
        },
        {
          "indexed": false,
          "internalType": "address",
          "name": "driver",
          "type": "address"
        }
      ],
      "name": "NewTripOffer",
      "type": "event"
    },
    {
      "anonymous": false,
      "inputs": [
        {
          "indexed": true,
          "internalType": "uint256",
          "name": "tripId",
          "type": "uint256"
        },
        {
          "indexed": true,
          "internalType": "uint256",
          "name": "bidId",
          "type": "uint256"
        },
        {
          "components": [
            {
              "internalType": "address",
              "name": "driver",
              "type": "address"
            },
            {
              "internalType": "string",
              "name": "info",
              "type": "string"
            },
            {
              "internalType": "string",
              "name": "meetingtime",
              "type": "string"
            },
            {
              "internalType": "uint8",
              "name": "seats",
              "type": "uint8"
            },
            {
              "internalType": "uint256",
              "name": "cost",
              "type": "uint256"
            },
            {
              "internalType": "bool",
              "name": "started",
              "type": "bool"
            }
          ],
          "indexed": false,
          "internalType": "struct Nekobasu.Trip",
          "name": "trip",
          "type": "tuple"
        },
        {
          "components": [
            {
              "internalType": "address",
              "name": "passenger",
              "type": "address"
            },
            {
              "internalType": "uint256",
              "name": "amount",
              "type": "uint256"
            },
            {
              "internalType": "uint256",
              "name": "tripId",
              "type": "uint256"
            },
            {
              "internalType": "bool",
              "name": "accepted",
              "type": "bool"
            }
          ],
          "indexed": false,
          "internalType": "struct Nekobasu.Bid",
          "name": "bid",
          "type": "tuple"
        }
      ],
      "name": "SeatOccupied",
      "type": "event"
    },
    {
      "anonymous": false,
      "inputs": [
        {
          "indexed": true,
          "internalType": "uint256",
          "name": "tripId",
          "type": "uint256"
        }
      ],
      "name": "StartedTrip",
      "type": "event"
    },
    {
      "anonymous": false,
      "inputs": [
        {
          "indexed": true,
          "internalType": "uint256",
          "name": "tripId",
          "type": "uint256"
        },
        {
          "indexed": true,
          "internalType": "uint256",
          "name": "bidId",
          "type": "uint256"
        },
        {
          "indexed": false,
          "internalType": "address",
          "name": "passenger",
          "type": "address"
        }
      ],
      "name": "WithdrawBid",
      "type": "event"
    },
    {
      "inputs": [],
      "name": "getTripFee",
      "outputs": [
        {
          "internalType": "uint256",
          "name": "",
          "type": "uint256"
        }
      ],
      "stateMutability": "view",
      "type": "function",
      "constant": true
    },
    {
      "inputs": [
        {
          "internalType": "uint256",
          "name": "tripId",
          "type": "uint256"
        }
      ],
      "name": "getTrip",
      "outputs": [
        {
          "components": [
            {
              "internalType": "address",
              "name": "driver",
              "type": "address"
            },
            {
              "internalType": "string",
              "name": "info",
              "type": "string"
            },
            {
              "internalType": "string",
              "name": "meetingtime",
              "type": "string"
            },
            {
              "internalType": "uint8",
              "name": "seats",
              "type": "uint8"
            },
            {
              "internalType": "uint256",
              "name": "cost",
              "type": "uint256"
            },
            {
              "internalType": "bool",
              "name": "started",
              "type": "bool"
            }
          ],
          "internalType": "struct Nekobasu.Trip",
          "name": "",
          "type": "tuple"
        }
      ],
      "stateMutability": "view",
      "type": "function",
      "constant": true
    },
    {
      "inputs": [
        {
          "internalType": "uint256",
          "name": "bidId",
          "type": "uint256"
        }
      ],
      "name": "getBid",
      "outputs": [
        {
          "components": [
            {
              "internalType": "address",
              "name": "passenger",
              "type": "address"
            },
            {
              "internalType": "uint256",
              "name": "amount",
              "type": "uint256"
            },
            {
              "internalType": "uint256",
              "name": "tripId",
              "type": "uint256"
            },
            {
              "internalType": "bool",
              "name": "accepted",
              "type": "bool"
            }
          ],
          "internalType": "struct Nekobasu.Bid",
          "name": "",
          "type": "tuple"
        }
      ],
      "stateMutability": "view",
      "type": "function",
      "constant": true
    },
    {
      "inputs": [],
      "name": "getActiveTrip",
      "outputs": [
        {
          "internalType": "uint256",
          "name": "",
          "type": "uint256"
        }
      ],
      "stateMutability": "view",
      "type": "function",
      "constant": true
    },
    {
      "inputs": [],
      "name": "getActiveBid",
      "outputs": [
        {
          "internalType": "uint256",
          "name": "",
          "type": "uint256"
        }
      ],
      "stateMutability": "view",
      "type": "function",
      "constant": true
    },
    {
      "inputs": [
        {
          "internalType": "string",
          "name": "info",
          "type": "string"
        },
        {
          "internalType": "string",
          "name": "meetingtime",
          "type": "string"
        },
        {
          "internalType": "uint8",
          "name": "seats",
          "type": "uint8"
        },
        {
          "internalType": "uint256",
          "name": "cost",
          "type": "uint256"
        }
      ],
      "name": "offerTrip",
      "outputs": [],
      "stateMutability": "payable",
      "type": "function",
      "payable": true
    },
    {
      "inputs": [
        {
          "internalType": "uint256",
          "name": "tripId",
          "type": "uint256"
        }
      ],
      "name": "makeBid",
      "outputs": [],
      "stateMutability": "payable",
      "type": "function",
      "payable": true
    },
    {
      "inputs": [
        {
          "internalType": "address",
          "name": "passenger",
          "type": "address"
        }
      ],
      "name": "acceptBid",
      "outputs": [],
      "stateMutability": "nonpayable",
      "type": "function"
    },
    {
      "inputs": [],
      "name": "withdrawBid",
      "outputs": [],
      "stateMutability": "nonpayable",
      "type": "function"
    },
    {
      "inputs": [],
      "name": "finishBid",
      "outputs": [],
      "stateMutability": "nonpayable",
      "type": "function"
    },
    {
      "inputs": [],
      "name": "startTrip",
      "outputs": [],
      "stateMutability": "nonpayable",
      "type": "function"
    },
    {
      "inputs": [],
      "name": "cancelTrip",
      "outputs": [],
      "stateMutability": "nonpayable",
      "type": "function"
    },
    {
      "inputs": [],
      "name": "finishTrip",
      "outputs": [],
      "stateMutability": "nonpayable",
      "type": "function"
    }
  ],
  "bytecode": "0x6080604052601e60005534801561001557600080fd5b506136f2806100256000396000f3fe6080604052600436106100c25760003560e01c80634d302cf71161007f5780639cf0d466116100595780639cf0d46614610212578063b9bdfc6a14610229578063c2be1c1114610254578063f2f8a9f31461027f576100c2565b80634d302cf7146101b65780636ba74f17146101d25780637f7b79e1146101fb576100c2565b806301011705146100c7578063175b23041461010457806325aa890e146101205780632e92aacc1461013757806337271cc7146101625780633c889e6f14610179575b600080fd5b3480156100d357600080fd5b506100ee60048036038101906100e99190612772565b610296565b6040516100fb919061294f565b60405180910390f35b61011e60048036038101906101199190612772565b6104e7565b005b34801561012c57600080fd5b50610135610af8565b005b34801561014357600080fd5b5061014c610d01565b6040516101599190612980565b60405180910390f35b34801561016e57600080fd5b50610177610d0a565b005b34801561018557600080fd5b506101a0600480360381019061019b9190612772565b610f6f565b6040516101ad91906129f0565b60405180910390f35b6101d060048036038101906101cb9190612a9c565b61108a565b005b3480156101de57600080fd5b506101f960048036038101906101f49190612b6f565b611446565b005b34801561020757600080fd5b50610210611b55565b005b34801561021e57600080fd5b50610227611e94565b005b34801561023557600080fd5b5061023e6123a6565b60405161024b9190612980565b60405180910390f35b34801561026057600080fd5b506102696123ed565b6040516102769190612980565b60405180910390f35b34801561028b57600080fd5b50610294612434565b005b61029e6125fe565b6001805490508211156102e6576040517f08c379a00000000000000000000000000000000000000000000000000000000081526004016102dd90612bf9565b60405180910390fd5b6000600180846102f69190612c48565b8154811061030757610306612c7c565b5b90600052602060002090600602016040518060c00160405290816000820160009054906101000a900473ffffffffffffffffffffffffffffffffffffffff1673ffffffffffffffffffffffffffffffffffffffff1673ffffffffffffffffffffffffffffffffffffffff16815260200160018201805461038690612cda565b80601f01602080910402602001604051908101604052809291908181526020018280546103b290612cda565b80156103ff5780601f106103d4576101008083540402835291602001916103ff565b820191906000526020600020905b8154815290600101906020018083116103e257829003601f168201915b5050505050815260200160028201805461041890612cda565b80601f016020809104026020016040519081016040528092919081815260200182805461044490612cda565b80156104915780601f1061046657610100808354040283529160200191610491565b820191906000526020600020905b81548152906001019060200180831161047457829003601f168201915b505050505081526020016003820160009054906101000a900460ff1660ff1660ff168152602001600482015481526020016005820160009054906101000a900460ff161515151581525050905080915050919050565b600033905060003490506000600560008473ffffffffffffffffffffffffffffffffffffffff1673ffffffffffffffffffffffffffffffffffffffff1681526020019081526020016000205414610573576040517f08c379a000000000000000000000000000000000000000000000000000000000815260040161056a90612d57565b60405180910390fd5b6001805490508311156105bb576040517f08c379a00000000000000000000000000000000000000000000000000000000081526004016105b290612dc3565b60405180910390fd5b6000600180856105cb9190612c48565b815481106105dc576105db612c7c565b5b90600052602060002090600602016040518060c00160405290816000820160009054906101000a900473ffffffffffffffffffffffffffffffffffffffff1673ffffffffffffffffffffffffffffffffffffffff1673ffffffffffffffffffffffffffffffffffffffff16815260200160018201805461065b90612cda565b80601f016020809104026020016040519081016040528092919081815260200182805461068790612cda565b80156106d45780601f106106a9576101008083540402835291602001916106d4565b820191906000526020600020905b8154815290600101906020018083116106b757829003601f168201915b505050505081526020016002820180546106ed90612cda565b80601f016020809104026020016040519081016040528092919081815260200182805461071990612cda565b80156107665780601f1061073b57610100808354040283529160200191610766565b820191906000526020600020905b81548152906001019060200180831161074957829003601f168201915b505050505081526020016003820160009054906101000a900460ff1660ff1660ff168152602001600482015481526020016005820160009054906101000a900460ff16151515158152505090508360036000836000015173ffffffffffffffffffffffffffffffffffffffff1673ffffffffffffffffffffffffffffffffffffffff1681526020019081526020016000205414610838576040517f08c379a000000000000000000000000000000000000000000000000000000000815260040161082f90612e2f565b60405180910390fd5b806080015182101561087f576040517f08c379a000000000000000000000000000000000000000000000000000000000815260040161087690612e9b565b60405180910390fd5b8060a00151156108c4576040517f08c379a00000000000000000000000000000000000000000000000000000000081526004016108bb90612f07565b60405180910390fd5b8273ffffffffffffffffffffffffffffffffffffffff16816000015173ffffffffffffffffffffffffffffffffffffffff1603610936576040517f08c379a000000000000000000000000000000000000000000000000000000000815260040161092d90612f73565b60405180910390fd5b6000816060015160ff1611610980576040517f08c379a000000000000000000000000000000000000000000000000000000000815260040161097790612fdf565b60405180910390fd5b600060405180608001604052808573ffffffffffffffffffffffffffffffffffffffff168152602001848152602001868152602001600015158152509050600281908060018154018082558091505060019003906000526020600020906004020160009091909190915060008201518160000160006101000a81548173ffffffffffffffffffffffffffffffffffffffff021916908373ffffffffffffffffffffffffffffffffffffffff160217905550602082015181600101556040820151816002015560608201518160030160006101000a81548160ff02191690831515021790555050506000600280549050905080600560008773ffffffffffffffffffffffffffffffffffffffff1673ffffffffffffffffffffffffffffffffffffffff1681526020019081526020016000208190555080867f981b957e210e9b1ca618883b28a87636be60896b76781a91a10fb2fbbe51743c8488604051610ae892919061300e565b60405180910390a3505050505050565b60003390506000600560008373ffffffffffffffffffffffffffffffffffffffff1673ffffffffffffffffffffffffffffffffffffffff16815260200190815260200160002054905060008103610b84576040517f08c379a0000000000000000000000000000000000000000000000000000000008152600401610b7b90613083565b60405180910390fd5b60006002600183610b959190612c48565b81548110610ba657610ba5612c7c565b5b90600052602060002090600402016040518060800160405290816000820160009054906101000a900473ffffffffffffffffffffffffffffffffffffffff1673ffffffffffffffffffffffffffffffffffffffff1673ffffffffffffffffffffffffffffffffffffffff16815260200160018201548152602001600282015481526020016003820160009054906101000a900460ff16151515158152505090508060600151610c8a576040517f08c379a0000000000000000000000000000000000000000000000000000000008152600401610c81906130ef565b60405180910390fd5b6000600560008573ffffffffffffffffffffffffffffffffffffffff1673ffffffffffffffffffffffffffffffffffffffff16815260200190815260200160002081905550817f73d64287a041d685fdc77dca66d5bd2d9c16c57ecc98c67e374b4266b8acf92660405160405180910390a2505050565b60008054905090565b60003390506000600560008373ffffffffffffffffffffffffffffffffffffffff1673ffffffffffffffffffffffffffffffffffffffff16815260200190815260200160002054905060008103610d96576040517f08c379a0000000000000000000000000000000000000000000000000000000008152600401610d8d90613083565b60405180910390fd5b60006002600183610da79190612c48565b81548110610db857610db7612c7c565b5b90600052602060002090600402016040518060800160405290816000820160009054906101000a900473ffffffffffffffffffffffffffffffffffffffff1673ffffffffffffffffffffffffffffffffffffffff1673ffffffffffffffffffffffffffffffffffffffff16815260200160018201548152602001600282015481526020016003820160009054906101000a900460ff1615151515815250509050806060015115610e9d576040517f08c379a0000000000000000000000000000000000000000000000000000000008152600401610e949061315b565b60405180910390fd5b6000600560008573ffffffffffffffffffffffffffffffffffffffff1673ffffffffffffffffffffffffffffffffffffffff168152602001908152602001600020819055508273ffffffffffffffffffffffffffffffffffffffff166108fc82602001519081150290604051600060405180830381858888f19350505050158015610f2c573d6000803e3d6000fd5b508181604001517f9fa51e6fcc1ea495b771509dde92669732f871ec2e79b405f33d17d7ead38f6685604051610f6291906131da565b60405180910390a3505050565b610f7761264f565b600280549050821115610fbf576040517f08c379a0000000000000000000000000000000000000000000000000000000008152600401610fb690613241565b60405180910390fd5b60006002600184610fd09190612c48565b81548110610fe157610fe0612c7c565b5b90600052602060002090600402016040518060800160405290816000820160009054906101000a900473ffffffffffffffffffffffffffffffffffffffff1673ffffffffffffffffffffffffffffffffffffffff1673ffffffffffffffffffffffffffffffffffffffff16815260200160018201548152602001600282015481526020016003820160009054906101000a900460ff161515151581525050905080915050919050565b600033905060005434146110d3576040517f08c379a00000000000000000000000000000000000000000000000000000000081526004016110ca906132ad565b60405180910390fd5b60008360ff1611611119576040517f08c379a000000000000000000000000000000000000000000000000000000000815260040161111090613319565b60405180910390fd5b6000600360008373ffffffffffffffffffffffffffffffffffffffff1673ffffffffffffffffffffffffffffffffffffffff168152602001908152602001600020541461119b576040517f08c379a000000000000000000000000000000000000000000000000000000000815260040161119290613385565b60405180910390fd5b60006040518060c001604052808373ffffffffffffffffffffffffffffffffffffffff16815260200189898080601f016020809104026020016040519081016040528093929190818152602001838380828437600081840152601f19601f82011690508083019250505050505050815260200187878080601f016020809104026020016040519081016040528093929190818152602001838380828437600081840152601f19601f8201169050808301925050505050505081526020018560ff168152602001848152602001600015158152509050600181908060018154018082558091505060019003906000526020600020906006020160009091909190915060008201518160000160006101000a81548173ffffffffffffffffffffffffffffffffffffffff021916908373ffffffffffffffffffffffffffffffffffffffff16021790555060208201518160010190805190602001906112ff92919061268f565b50604082015181600201908051906020019061131c92919061268f565b5060608201518160030160006101000a81548160ff021916908360ff1602179055506080820151816004015560a08201518160050160006101000a81548160ff02191690831515021790555050506000600180549050905080600360008573ffffffffffffffffffffffffffffffffffffffff1673ffffffffffffffffffffffffffffffffffffffff16815260200190815260200160002081905550600054600460008573ffffffffffffffffffffffffffffffffffffffff1673ffffffffffffffffffffffffffffffffffffffff168152602001908152602001600020819055507f9d932c61823e8a2088400c9eca32faf64ec6c14cbd5c3ed942addf09d41774538183868660405161143394939291906133a5565b60405180910390a1505050505050505050565b6000600560008373ffffffffffffffffffffffffffffffffffffffff1673ffffffffffffffffffffffffffffffffffffffff168152602001908152602001600020549050600081116114cd576040517f08c379a00000000000000000000000000000000000000000000000000000000081526004016114c490613083565b60405180910390fd5b600060026001836114de9190612c48565b815481106114ef576114ee612c7c565b5b90600052602060002090600402016040518060800160405290816000820160009054906101000a900473ffffffffffffffffffffffffffffffffffffffff1673ffffffffffffffffffffffffffffffffffffffff1673ffffffffffffffffffffffffffffffffffffffff16815260200160018201548152602001600282015481526020016003820160009054906101000a900460ff16151515158152505090508060600151156115d4576040517f08c379a00000000000000000000000000000000000000000000000000000000081526004016115cb9061315b565b60405180910390fd5b600060018083604001516115e89190612c48565b815481106115f9576115f8612c7c565b5b90600052602060002090600602016040518060c00160405290816000820160009054906101000a900473ffffffffffffffffffffffffffffffffffffffff1673ffffffffffffffffffffffffffffffffffffffff1673ffffffffffffffffffffffffffffffffffffffff16815260200160018201805461167890612cda565b80601f01602080910402602001604051908101604052809291908181526020018280546116a490612cda565b80156116f15780601f106116c6576101008083540402835291602001916116f1565b820191906000526020600020905b8154815290600101906020018083116116d457829003601f168201915b5050505050815260200160028201805461170a90612cda565b80601f016020809104026020016040519081016040528092919081815260200182805461173690612cda565b80156117835780601f1061175857610100808354040283529160200191611783565b820191906000526020600020905b81548152906001019060200180831161176657829003601f168201915b505050505081526020016003820160009054906101000a900460ff1660ff1660ff168152602001600482015481526020016005820160009054906101000a900460ff161515151581525050905060003390508073ffffffffffffffffffffffffffffffffffffffff16826000015173ffffffffffffffffffffffffffffffffffffffff1614611847576040517f08c379a000000000000000000000000000000000000000000000000000000000815260040161183e9061343d565b60405180910390fd5b8160a001511561188c576040517f08c379a000000000000000000000000000000000000000000000000000000000815260040161188390612f07565b60405180910390fd5b6000826060015160ff16116118d6576040517f08c379a00000000000000000000000000000000000000000000000000000000081526004016118cd90612fdf565b60405180910390fd5b8160600180518091906118e89061345d565b60ff1660ff16815250508160018085604001516119059190612c48565b8154811061191657611915612c7c565b5b906000526020600020906006020160008201518160000160006101000a81548173ffffffffffffffffffffffffffffffffffffffff021916908373ffffffffffffffffffffffffffffffffffffffff160217905550602082015181600101908051906020019061198792919061268f565b5060408201518160020190805190602001906119a492919061268f565b5060608201518160030160006101000a81548160ff021916908360ff1602179055506080820151816004015560a08201518160050160006101000a81548160ff021916908315150217905550905050826020015160046000846000015173ffffffffffffffffffffffffffffffffffffffff1673ffffffffffffffffffffffffffffffffffffffff1681526020019081526020016000206000828254611a4a9190613486565b925050819055506001836060019015159081151581525050826002600186611a729190612c48565b81548110611a8357611a82612c7c565b5b906000526020600020906004020160008201518160000160006101000a81548173ffffffffffffffffffffffffffffffffffffffff021916908373ffffffffffffffffffffffffffffffffffffffff160217905550602082015181600101556040820151816002015560608201518160030160006101000a81548160ff0219169083151502179055509050508383604001517f0d40666739056e6fb051dbef507fff10de5087409774c6cdf7f0be7e77861f4c8486604051611b469291906134dc565b60405180910390a35050505050565b60003390506000600360008373ffffffffffffffffffffffffffffffffffffffff1673ffffffffffffffffffffffffffffffffffffffff16815260200190815260200160002054905060008103611be1576040517f08c379a0000000000000000000000000000000000000000000000000000000008152600401611bd890613558565b60405180910390fd5b600060018083611bf19190612c48565b81548110611c0257611c01612c7c565b5b90600052602060002090600602016040518060c00160405290816000820160009054906101000a900473ffffffffffffffffffffffffffffffffffffffff1673ffffffffffffffffffffffffffffffffffffffff1673ffffffffffffffffffffffffffffffffffffffff168152602001600182018054611c8190612cda565b80601f0160208091040260200160405190810160405280929190818152602001828054611cad90612cda565b8015611cfa5780601f10611ccf57610100808354040283529160200191611cfa565b820191906000526020600020905b815481529060010190602001808311611cdd57829003601f168201915b50505050508152602001600282018054611d1390612cda565b80601f0160208091040260200160405190810160405280929190818152602001828054611d3f90612cda565b8015611d8c5780601f10611d6157610100808354040283529160200191611d8c565b820191906000526020600020905b815481529060010190602001808311611d6f57829003601f168201915b505050505081526020016003820160009054906101000a900460ff1660ff1660ff168152602001600482015481526020016005820160009054906101000a900460ff16151515158152505090508060a00151611e1d576040517f08c379a0000000000000000000000000000000000000000000000000000000008152600401611e14906135c4565b60405180910390fd5b6000600360008573ffffffffffffffffffffffffffffffffffffffff1673ffffffffffffffffffffffffffffffffffffffff16815260200190815260200160002081905550817f4b96a9f6ca7063c5d7a683f4b7c4a8eb1c213692fc782c7d10f196fb64a46ea260405160405180910390a2505050565b60003390506000600360008373ffffffffffffffffffffffffffffffffffffffff1673ffffffffffffffffffffffffffffffffffffffff16815260200190815260200160002054905060008103611f20576040517f08c379a0000000000000000000000000000000000000000000000000000000008152600401611f1790613558565b60405180910390fd5b600054600460008473ffffffffffffffffffffffffffffffffffffffff1673ffffffffffffffffffffffffffffffffffffffff1681526020019081526020016000205403611fa3576040517f08c379a0000000000000000000000000000000000000000000000000000000008152600401611f9a90613630565b60405180910390fd5b600060018083611fb39190612c48565b81548110611fc457611fc3612c7c565b5b90600052602060002090600602016040518060c00160405290816000820160009054906101000a900473ffffffffffffffffffffffffffffffffffffffff1673ffffffffffffffffffffffffffffffffffffffff1673ffffffffffffffffffffffffffffffffffffffff16815260200160018201805461204390612cda565b80601f016020809104026020016040519081016040528092919081815260200182805461206f90612cda565b80156120bc5780601f10612091576101008083540402835291602001916120bc565b820191906000526020600020905b81548152906001019060200180831161209f57829003601f168201915b505050505081526020016002820180546120d590612cda565b80601f016020809104026020016040519081016040528092919081815260200182805461210190612cda565b801561214e5780601f106121235761010080835404028352916020019161214e565b820191906000526020600020905b81548152906001019060200180831161213157829003601f168201915b505050505081526020016003820160009054906101000a900460ff1660ff1660ff168152602001600482015481526020016005820160009054906101000a900460ff161515151581525050905060018160a001901515908115158152505080600180846121bb9190612c48565b815481106121cc576121cb612c7c565b5b906000526020600020906006020160008201518160000160006101000a81548173ffffffffffffffffffffffffffffffffffffffff021916908373ffffffffffffffffffffffffffffffffffffffff160217905550602082015181600101908051906020019061223d92919061268f565b50604082015181600201908051906020019061225a92919061268f565b5060608201518160030160006101000a81548160ff021916908360ff1602179055506080820151816004015560a08201518160050160006101000a81548160ff0219169083151502179055509050508273ffffffffffffffffffffffffffffffffffffffff166108fc600460008673ffffffffffffffffffffffffffffffffffffffff1673ffffffffffffffffffffffffffffffffffffffff168152602001908152602001600020549081150290604051600060405180830381858888f1935050505015801561232e573d6000803e3d6000fd5b506000600460008573ffffffffffffffffffffffffffffffffffffffff1673ffffffffffffffffffffffffffffffffffffffff16815260200190815260200160002081905550817f16092bc1964df101ccee7353b4f8592b2c354aafd14a391c93cb46a1acfafcef60405160405180910390a2505050565b6000600560003373ffffffffffffffffffffffffffffffffffffffff1673ffffffffffffffffffffffffffffffffffffffff16815260200190815260200160002054905090565b6000600360003373ffffffffffffffffffffffffffffffffffffffff1673ffffffffffffffffffffffffffffffffffffffff16815260200190815260200160002054905090565b60003390506000600360008373ffffffffffffffffffffffffffffffffffffffff1673ffffffffffffffffffffffffffffffffffffffff168152602001908152602001600020549050600081036124c0576040517f08c379a00000000000000000000000000000000000000000000000000000000081526004016124b790613558565b60405180910390fd5b600054600460008473ffffffffffffffffffffffffffffffffffffffff1673ffffffffffffffffffffffffffffffffffffffff1681526020019081526020016000205414612543576040517f08c379a000000000000000000000000000000000000000000000000000000000815260040161253a9061369c565b60405180910390fd5b6000600360008473ffffffffffffffffffffffffffffffffffffffff1673ffffffffffffffffffffffffffffffffffffffff168152602001908152602001600020819055506000600460008473ffffffffffffffffffffffffffffffffffffffff1673ffffffffffffffffffffffffffffffffffffffff16815260200190815260200160002081905550807f33f593f5c5ecc55eda07904dd8f1514d8ad3b582ad3e4c157afcfac82e6d030760405160405180910390a25050565b6040518060c00160405280600073ffffffffffffffffffffffffffffffffffffffff1681526020016060815260200160608152602001600060ff168152602001600081526020016000151581525090565b6040518060800160405280600073ffffffffffffffffffffffffffffffffffffffff16815260200160008152602001600081526020016000151581525090565b82805461269b90612cda565b90600052602060002090601f0160209004810192826126bd5760008555612704565b82601f106126d657805160ff1916838001178555612704565b82800160010185558215612704579182015b828111156127035782518255916020019190600101906126e8565b5b5090506127119190612715565b5090565b5b8082111561272e576000816000905550600101612716565b5090565b600080fd5b600080fd5b6000819050919050565b61274f8161273c565b811461275a57600080fd5b50565b60008135905061276c81612746565b92915050565b60006020828403121561278857612787612732565b5b60006127968482850161275d565b91505092915050565b600073ffffffffffffffffffffffffffffffffffffffff82169050919050565b60006127ca8261279f565b9050919050565b6127da816127bf565b82525050565b600081519050919050565b600082825260208201905092915050565b60005b8381101561281a5780820151818401526020810190506127ff565b83811115612829576000848401525b50505050565b6000601f19601f8301169050919050565b600061284b826127e0565b61285581856127eb565b93506128658185602086016127fc565b61286e8161282f565b840191505092915050565b600060ff82169050919050565b61288f81612879565b82525050565b61289e8161273c565b82525050565b60008115159050919050565b6128b9816128a4565b82525050565b600060c0830160008301516128d760008601826127d1565b50602083015184820360208601526128ef8282612840565b915050604083015184820360408601526129098282612840565b915050606083015161291e6060860182612886565b5060808301516129316080860182612895565b5060a083015161294460a08601826128b0565b508091505092915050565b6000602082019050818103600083015261296981846128bf565b905092915050565b61297a8161273c565b82525050565b60006020820190506129956000830184612971565b92915050565b6080820160008201516129b160008501826127d1565b5060208201516129c46020850182612895565b5060408201516129d76040850182612895565b5060608201516129ea60608501826128b0565b50505050565b6000608082019050612a05600083018461299b565b92915050565b600080fd5b600080fd5b600080fd5b60008083601f840112612a3057612a2f612a0b565b5b8235905067ffffffffffffffff811115612a4d57612a4c612a10565b5b602083019150836001820283011115612a6957612a68612a15565b5b9250929050565b612a7981612879565b8114612a8457600080fd5b50565b600081359050612a9681612a70565b92915050565b60008060008060008060808789031215612ab957612ab8612732565b5b600087013567ffffffffffffffff811115612ad757612ad6612737565b5b612ae389828a01612a1a565b9650965050602087013567ffffffffffffffff811115612b0657612b05612737565b5b612b1289828a01612a1a565b94509450506040612b2589828a01612a87565b9250506060612b3689828a0161275d565b9150509295509295509295565b612b4c816127bf565b8114612b5757600080fd5b50565b600081359050612b6981612b43565b92915050565b600060208284031215612b8557612b84612732565b5b6000612b9384828501612b5a565b91505092915050565b600082825260208201905092915050565b7f74726970206e6f74206578697374730000000000000000000000000000000000600082015250565b6000612be3600f83612b9c565b9150612bee82612bad565b602082019050919050565b60006020820190508181036000830152612c1281612bd6565b9050919050565b7f4e487b7100000000000000000000000000000000000000000000000000000000600052601160045260246000fd5b6000612c538261273c565b9150612c5e8361273c565b925082821015612c7157612c70612c19565b5b828203905092915050565b7f4e487b7100000000000000000000000000000000000000000000000000000000600052603260045260246000fd5b7f4e487b7100000000000000000000000000000000000000000000000000000000600052602260045260246000fd5b60006002820490506001821680612cf257607f821691505b602082108103612d0557612d04612cab565b5b50919050565b7f70617373656e6765722068617320626964000000000000000000000000000000600082015250565b6000612d41601183612b9c565b9150612d4c82612d0b565b602082019050919050565b60006020820190508181036000830152612d7081612d34565b9050919050565b7f74726970206e6f74206578697374000000000000000000000000000000000000600082015250565b6000612dad600e83612b9c565b9150612db882612d77565b602082019050919050565b60006020820190508181036000830152612ddc81612da0565b9050919050565b7f74726970206973206e6f74206f66666572656400000000000000000000000000600082015250565b6000612e19601383612b9c565b9150612e2482612de3565b602082019050919050565b60006020820190508181036000830152612e4881612e0c565b9050919050565b7f696e73756666696369656e742066756e64730000000000000000000000000000600082015250565b6000612e85601283612b9c565b9150612e9082612e4f565b602082019050919050565b60006020820190508181036000830152612eb481612e78565b9050919050565b7f7472697020686173207374617274656400000000000000000000000000000000600082015250565b6000612ef1601083612b9c565b9150612efc82612ebb565b602082019050919050565b60006020820190508181036000830152612f2081612ee4565b9050919050565b7f73656c6620626964000000000000000000000000000000000000000000000000600082015250565b6000612f5d600883612b9c565b9150612f6882612f27565b602082019050919050565b60006020820190508181036000830152612f8c81612f50565b9050919050565b7f6e6f206d6f726520736561747300000000000000000000000000000000000000600082015250565b6000612fc9600d83612b9c565b9150612fd482612f93565b602082019050919050565b60006020820190508181036000830152612ff881612fbc565b9050919050565b613008816127bf565b82525050565b600060a082019050613023600083018561299b565b6130306080830184612fff565b9392505050565b7f70617373656e67657220686173206e6f20626964000000000000000000000000600082015250565b600061306d601483612b9c565b915061307882613037565b602082019050919050565b6000602082019050818103600083015261309c81613060565b9050919050565b7f62696420686173206e6f74206265656e20616363657074656400000000000000600082015250565b60006130d9601983612b9c565b91506130e4826130a3565b602082019050919050565b60006020820190508181036000830152613108816130cc565b9050919050565b7f62696420686173206265656e2061636365707465640000000000000000000000600082015250565b6000613145601583612b9c565b91506131508261310f565b602082019050919050565b6000602082019050818103600083015261317481613138565b9050919050565b6000819050919050565b60006131a061319b6131968461279f565b61317b565b61279f565b9050919050565b60006131b282613185565b9050919050565b60006131c4826131a7565b9050919050565b6131d4816131b9565b82525050565b60006020820190506131ef60008301846131cb565b92915050565b7f626964206e6f7420657869737473000000000000000000000000000000000000600082015250565b600061322b600e83612b9c565b9150613236826131f5565b602082019050919050565b6000602082019050818103600083015261325a8161321e565b9050919050565b7f63616e7420706179207472697020666565000000000000000000000000000000600082015250565b6000613297601183612b9c565b91506132a282613261565b602082019050919050565b600060208201905081810360008301526132c68161328a565b9050919050565b7f6e65656473207365617473000000000000000000000000000000000000000000600082015250565b6000613303600b83612b9c565b915061330e826132cd565b602082019050919050565b60006020820190508181036000830152613332816132f6565b9050919050565b7f6472697665722068617320747269700000000000000000000000000000000000600082015250565b600061336f600f83612b9c565b915061337a82613339565b602082019050919050565b6000602082019050818103600083015261339e81613362565b9050919050565b60006080820190506133ba6000830187612971565b81810360208301526133cc81866128bf565b90506133db6040830185612971565b6133e86060830184612fff565b95945050505050565b7f626964206973206e6f7420666f72206472697665720000000000000000000000600082015250565b6000613427601583612b9c565b9150613432826133f1565b602082019050919050565b600060208201905081810360008301526134568161341a565b9050919050565b600061346882612879565b91506000820361347b5761347a612c19565b5b600182039050919050565b60006134918261273c565b915061349c8361273c565b9250827fffffffffffffffffffffffffffffffffffffffffffffffffffffffffffffffff038211156134d1576134d0612c19565b5b828201905092915050565b600060a08201905081810360008301526134f681856128bf565b9050613505602083018461299b565b9392505050565b7f64726976657220686173206e6f20747269700000000000000000000000000000600082015250565b6000613542601283612b9c565b915061354d8261350c565b602082019050919050565b6000602082019050818103600083015261357181613535565b9050919050565b7f7472697020686173206e6f742073746172746564000000000000000000000000600082015250565b60006135ae601483612b9c565b91506135b982613578565b602082019050919050565b600060208201905081810360008301526135dd816135a1565b9050919050565b7f7472697020686173206e6f2070617373656e6765727300000000000000000000600082015250565b600061361a601683612b9c565b9150613625826135e4565b602082019050919050565b600060208201905081810360008301526136498161360d565b9050919050565b7f7472697020616c7265616479206861732070617373656e676572730000000000600082015250565b6000613686601b83612b9c565b915061369182613650565b602082019050919050565b600060208201905081810360008301526136b581613679565b905091905056fea2646970667358221220ff818273be369974313f053666d89e8a7518162bb44fcf900d241b8908b4daac64736f6c634300080d0033",
  "immutableReferences": {},
  "source": "// SPDX-License-Identifier: MIT\npragma solidity >=0.8.0;\n\ncontract Nekobasu {\n    uint tripFee = 30;\n\n    function getTripFee() public view returns (uint) {\n        return tripFee;\n    }\n\n    event NewTripOffer(uint tripId, Trip trip, uint cost, address driver);\n    event NewTripBid(uint indexed tripId, uint indexed bidId, Bid bid, address passenger);\n    event SeatOccupied(uint indexed tripId, uint indexed bidId, Trip trip, Bid bid);\n    event WithdrawBid(uint indexed tripId, uint indexed bidId, address passenger);\n    event FinishedBid(uint indexed bidId);\n    event StartedTrip(uint indexed tripId);\n    event CancelledTrip(uint indexed tripId);\n    event FinishedTrip(uint indexed tripId);\n\n    struct Trip {\n        address driver;\n        string info;\n        string meetingtime;\n        uint8 seats;\n        uint cost;\n        bool started;\n    }\n\n    struct Bid {\n        address passenger;\n        uint amount;\n        uint tripId;\n        bool accepted;\n    }\n\n    Trip[] trips;\n    Bid[] bids;\n\n    mapping(address => uint) driverToTripId;\n    mapping(address => uint) driverToPool;\n    mapping(address => uint) passengerToBidId;\n\n    function getTrip(uint tripId) public view returns (Trip memory) {\n        require (tripId <= trips.length, \"trip not exists\");\n\n        Trip memory trip = trips[tripId - 1];\n        return  trip;\n    }\n\n    function getBid(uint bidId) public view returns (Bid memory) {\n        require (bidId <= bids.length, \"bid not exists\");\n\n        Bid memory bid = bids[bidId - 1];\n        return  bid;\n    }\n\n    function getActiveTrip() public view returns (uint) {\n        return driverToTripId[msg.sender];\n    }\n\n    function getActiveBid() public view returns (uint) {\n        return passengerToBidId[msg.sender];\n    }\n\n    function offerTrip(string calldata info, string calldata meetingtime, uint8 seats, uint cost) public payable {\n        address driver = msg.sender;\n\n        require (msg.value == tripFee, \"cant pay trip fee\");\n\n        require (seats > 0, \"needs seats\");\n        require (driverToTripId[driver] == 0, \"driver has trip\");\n\n        Trip memory trip = Trip(driver, info, meetingtime, seats, cost, false);\n        trips.push(trip);\n\n        uint tripId = trips.length;\n\n        driverToTripId[driver] = tripId;\n\n        // Transactions\n        // driver.tripFee -> contract done with payable.\n        driverToPool[driver] = tripFee;\n\n        emit NewTripOffer(tripId, trip, cost, driver);\n    }\n\n    function makeBid(uint tripId) public payable {\n        address passenger = msg.sender;\n        uint amount = msg.value;\n\n        require (passengerToBidId[passenger] == 0, \"passenger has bid\");\n\n        require (tripId <= trips.length, \"trip not exist\");\n\n        Trip memory trip = trips[tripId-1];\n        require (driverToTripId[trip.driver] == tripId, \"trip is not offered\");\n        require (amount >= trip.cost, \"insufficient funds\");\n        require (!trip.started, \"trip has started\");\n        require (trip.driver != passenger, \"self bid\");\n        require (trip.seats > 0, \"no more seats\");\n\n        Bid memory bid = Bid(passenger, amount, tripId, false);\n        bids.push(bid);\n\n        uint bidId = bids.length;\n\n        passengerToBidId[passenger] = bidId;\n\n        // Transactions\n        // passenger.amount -> contract done with payable.\n\n        emit NewTripBid(tripId, bidId, bid, passenger);\n    }\n\n    function acceptBid(address passenger) public {\n        uint bidId = passengerToBidId[passenger];\n\n        require (bidId > 0, \"passenger has no bid\");\n\n        Bid memory bid = bids[bidId-1];\n        require (!bid.accepted, \"bid has been accepted\");\n\n\n        Trip memory trip = trips[bid.tripId-1];\n        address driver = msg.sender;\n        require (trip.driver == driver, \"bid is not for driver\");\n        require (!trip.started, \"trip has started\");\n        require (trip.seats > 0, \"no more seats\");\n\n        trip.seats--;\n        trips[bid.tripId-1] = trip;\n\n        // Transactions\n        driverToPool[trip.driver] += bid.amount;\n\n        bid.accepted = true;\n        bids[bidId-1] = bid;\n\n\n        emit SeatOccupied(bid.tripId, bidId, trip, bid);\n    }\n\n    function withdrawBid() public {\n        address payable passenger = payable(msg.sender);\n        uint bidId = passengerToBidId[passenger];\n\n        require (bidId != 0, \"passenger has no bid\");\n\n        Bid memory bid = bids[bidId - 1];\n\n        require (!bid.accepted, \"bid has been accepted\");\n\n        passengerToBidId[passenger] = 0;\n\n        // Transactions\n        passenger.transfer(bid.amount);\n\n        emit WithdrawBid(bid.tripId, bidId, passenger);\n    }\n\n    function finishBid() public {\n        address passenger = msg.sender;\n        uint bidId = passengerToBidId[passenger];\n\n        require (bidId != 0, \"passenger has no bid\");\n\n        Bid memory bid = bids[bidId-1];\n        \n        require (bid.accepted, \"bid has not been accepted\");\n\n        passengerToBidId[passenger] = 0;\n\n        emit FinishedBid(bidId);\n    }\n\n    function startTrip() public {\n        address payable driver = payable(msg.sender);\n        uint tripId = driverToTripId[driver];\n\n        require (tripId != 0, \"driver has no trip\");\n        require (driverToPool[driver] != tripFee, \"trip has no passengers\");\n\n        // TODO: Check that the trip is on time.\n        // https://cryptozombies.io/en/lesson/3/chapter/5\n\n        Trip memory trip = trips[tripId-1];\n        trip.started = true;\n        trips[tripId-1] = trip;\n\n        // Transactions\n        // pool -> driver\n        driver.transfer(driverToPool[driver]);\n        driverToPool[driver] = 0;\n\n        emit StartedTrip(tripId);\n    }\n\n    function cancelTrip() public {\n        address driver = msg.sender;\n        uint tripId = driverToTripId[driver];\n\n        require (tripId != 0, \"driver has no trip\");\n        require (driverToPool[driver] == tripFee, \"trip already has passengers\");\n\n        driverToTripId[driver] = 0;\n\n        // Transactions \n        // TripFee is not returned, driver should not cancel trip.\n        driverToPool[driver] = 0;\n\n\n        emit CancelledTrip(tripId);\n    }\n\n    function finishTrip() public {\n        address driver = msg.sender;\n        uint tripId = driverToTripId[driver];\n\n        require (tripId != 0, \"driver has no trip\");\n\n        Trip memory trip = trips[tripId-1];\n        \n        require (trip.started, \"trip has not started\");\n\n        driverToTripId[driver] = 0;\n\n        emit FinishedTrip(tripId);\n    }\n\n}\n",
  "sourcePath": "/Users/tlacuilose/Documents/ts/kobasu/nekobasu/contracts/Nekobasu.sol",
  "compiler": {
    "name": "solc",
    "version": "0.8.13+commit.abaa5c0e.Emscripten.clang"
  },
  "schemaVersion": "3.4.7",
  "updatedAt": "2022-06-14T23:56:30.549Z",
  "networkType": "ethereum",
  "devdoc": {
    "kind": "dev",
    "methods": {},
    "version": 1
  },
  "userdoc": {
    "kind": "user",
    "methods": {},
    "version": 1
  }
}