{
  "contractName": "Nekobasu",
  "abi": [
    {
      "anonymous": false,
      "inputs": [
        {
          "indexed": false,
          "internalType": "uint256",
          "name": "tripId",
          "type": "uint256"
        }
      ],
      "name": "CancelledTrip",
      "type": "event"
    },
    {
      "anonymous": false,
      "inputs": [
        {
          "indexed": false,
          "internalType": "uint256",
          "name": "tripId",
          "type": "uint256"
        }
      ],
      "name": "FinishedTrip",
      "type": "event"
    },
    {
      "anonymous": false,
      "inputs": [
        {
          "indexed": false,
          "internalType": "uint256",
          "name": "tripId",
          "type": "uint256"
        },
        {
          "indexed": false,
          "internalType": "uint256",
          "name": "bidId",
          "type": "uint256"
        },
        {
          "components": [
            {
              "internalType": "address",
              "name": "passenger",
              "type": "address"
            },
            {
              "internalType": "uint256",
              "name": "amount",
              "type": "uint256"
            },
            {
              "internalType": "uint256",
              "name": "tripId",
              "type": "uint256"
            },
            {
              "internalType": "bool",
              "name": "accepted",
              "type": "bool"
            }
          ],
          "indexed": false,
          "internalType": "struct Nekobasu.Bid",
          "name": "bid",
          "type": "tuple"
        },
        {
          "indexed": false,
          "internalType": "address",
          "name": "passenger",
          "type": "address"
        }
      ],
      "name": "NewTripBid",
      "type": "event"
    },
    {
      "anonymous": false,
      "inputs": [
        {
          "indexed": false,
          "internalType": "uint256",
          "name": "tripId",
          "type": "uint256"
        },
        {
          "components": [
            {
              "internalType": "address",
              "name": "driver",
              "type": "address"
            },
            {
              "internalType": "string",
              "name": "info",
              "type": "string"
            },
            {
              "internalType": "uint8",
              "name": "seats",
              "type": "uint8"
            },
            {
              "internalType": "uint256",
              "name": "cost",
              "type": "uint256"
            },
            {
              "internalType": "bool",
              "name": "started",
              "type": "bool"
            }
          ],
          "indexed": false,
          "internalType": "struct Nekobasu.Trip",
          "name": "trip",
          "type": "tuple"
        },
        {
          "indexed": false,
          "internalType": "uint256",
          "name": "cost",
          "type": "uint256"
        },
        {
          "indexed": false,
          "internalType": "address",
          "name": "driver",
          "type": "address"
        }
      ],
      "name": "NewTripOffer",
      "type": "event"
    },
    {
      "anonymous": false,
      "inputs": [
        {
          "indexed": false,
          "internalType": "uint256",
          "name": "tripId",
          "type": "uint256"
        },
        {
          "indexed": false,
          "internalType": "uint8",
          "name": "seats",
          "type": "uint8"
        }
      ],
      "name": "SeatOccupied",
      "type": "event"
    },
    {
      "anonymous": false,
      "inputs": [
        {
          "indexed": false,
          "internalType": "uint256",
          "name": "tripId",
          "type": "uint256"
        }
      ],
      "name": "StartedTrip",
      "type": "event"
    },
    {
      "anonymous": false,
      "inputs": [
        {
          "indexed": false,
          "internalType": "uint256",
          "name": "tripId",
          "type": "uint256"
        },
        {
          "indexed": false,
          "internalType": "uint256",
          "name": "bidId",
          "type": "uint256"
        },
        {
          "indexed": false,
          "internalType": "address",
          "name": "passenger",
          "type": "address"
        }
      ],
      "name": "WithdrawBid",
      "type": "event"
    },
    {
      "inputs": [
        {
          "internalType": "uint256",
          "name": "",
          "type": "uint256"
        }
      ],
      "name": "bids",
      "outputs": [
        {
          "internalType": "address",
          "name": "passenger",
          "type": "address"
        },
        {
          "internalType": "uint256",
          "name": "amount",
          "type": "uint256"
        },
        {
          "internalType": "uint256",
          "name": "tripId",
          "type": "uint256"
        },
        {
          "internalType": "bool",
          "name": "accepted",
          "type": "bool"
        }
      ],
      "stateMutability": "view",
      "type": "function",
      "constant": true
    },
    {
      "inputs": [
        {
          "internalType": "uint256",
          "name": "",
          "type": "uint256"
        }
      ],
      "name": "trips",
      "outputs": [
        {
          "internalType": "address",
          "name": "driver",
          "type": "address"
        },
        {
          "internalType": "string",
          "name": "info",
          "type": "string"
        },
        {
          "internalType": "uint8",
          "name": "seats",
          "type": "uint8"
        },
        {
          "internalType": "uint256",
          "name": "cost",
          "type": "uint256"
        },
        {
          "internalType": "bool",
          "name": "started",
          "type": "bool"
        }
      ],
      "stateMutability": "view",
      "type": "function",
      "constant": true
    },
    {
      "inputs": [],
      "name": "getTripFee",
      "outputs": [
        {
          "internalType": "uint256",
          "name": "",
          "type": "uint256"
        }
      ],
      "stateMutability": "view",
      "type": "function",
      "constant": true
    },
    {
      "inputs": [
        {
          "internalType": "string",
          "name": "info",
          "type": "string"
        },
        {
          "internalType": "uint8",
          "name": "seats",
          "type": "uint8"
        },
        {
          "internalType": "uint256",
          "name": "cost",
          "type": "uint256"
        }
      ],
      "name": "offerTrip",
      "outputs": [],
      "stateMutability": "payable",
      "type": "function",
      "payable": true
    },
    {
      "inputs": [
        {
          "internalType": "uint256",
          "name": "tripId",
          "type": "uint256"
        }
      ],
      "name": "makeBid",
      "outputs": [],
      "stateMutability": "payable",
      "type": "function",
      "payable": true
    },
    {
      "inputs": [
        {
          "internalType": "address",
          "name": "passenger",
          "type": "address"
        }
      ],
      "name": "acceptBid",
      "outputs": [],
      "stateMutability": "nonpayable",
      "type": "function"
    },
    {
      "inputs": [],
      "name": "withdrawBid",
      "outputs": [],
      "stateMutability": "nonpayable",
      "type": "function"
    },
    {
      "inputs": [],
      "name": "startTrip",
      "outputs": [],
      "stateMutability": "nonpayable",
      "type": "function"
    },
    {
      "inputs": [],
      "name": "cancelTrip",
      "outputs": [],
      "stateMutability": "nonpayable",
      "type": "function"
    },
    {
      "inputs": [],
      "name": "finishTrip",
      "outputs": [],
      "stateMutability": "nonpayable",
      "type": "function"
    }
  ],
  "bytecode": "0x6080604052601e60005534801561001557600080fd5b50612cdd806100256000396000f3fe6080604052600436106100915760003560e01c80636ba74f17116100595780636ba74f17146101505780637f7b79e1146101795780639cf0d46614610190578063f2f8a9f3146101a7578063f6824a7c146101be57610091565b8063175b2304146100965780632e92aacc146100b257806337271cc7146100dd5780634423c5f1146100f457806348c8eaa714610134575b600080fd5b6100b060048036038101906100ab9190611e70565b6101ff565b005b3480156100be57600080fd5b506100c76106fb565b6040516100d49190611eac565b60405180910390f35b3480156100e957600080fd5b506100f2610704565b005b34801561010057600080fd5b5061011b60048036038101906101169190611e70565b61096b565b60405161012b9493929190611f23565b60405180910390f35b61014e60048036038101906101499190612006565b6109d8565b005b34801561015c57600080fd5b50610177600480360381019061017291906120a6565b610d2b565b005b34801561018557600080fd5b5061018e61138d565b005b34801561019c57600080fd5b506101a5611644565b005b3480156101b357600080fd5b506101bc611ab1565b005b3480156101ca57600080fd5b506101e560048036038101906101e09190611e70565b611c85565b6040516101f695949392919061217b565b60405180910390f35b600033905060003490506000600560008473ffffffffffffffffffffffffffffffffffffffff1673ffffffffffffffffffffffffffffffffffffffff168152602001908152602001600020541461028b576040517f08c379a000000000000000000000000000000000000000000000000000000000815260040161028290612221565b60405180910390fd5b6001805490508311156102d3576040517f08c379a00000000000000000000000000000000000000000000000000000000081526004016102ca9061228d565b60405180910390fd5b6000600180856102e391906122dc565b815481106102f4576102f3612310565b5b90600052602060002090600502016040518060a00160405290816000820160009054906101000a900473ffffffffffffffffffffffffffffffffffffffff1673ffffffffffffffffffffffffffffffffffffffff1673ffffffffffffffffffffffffffffffffffffffff1681526020016001820180546103739061236e565b80601f016020809104026020016040519081016040528092919081815260200182805461039f9061236e565b80156103ec5780601f106103c1576101008083540402835291602001916103ec565b820191906000526020600020905b8154815290600101906020018083116103cf57829003601f168201915b505050505081526020016002820160009054906101000a900460ff1660ff1660ff168152602001600382015481526020016004820160009054906101000a900460ff16151515158152505090508060600151821015610480576040517f08c379a0000000000000000000000000000000000000000000000000000000008152600401610477906123eb565b60405180910390fd5b8060800151156104c5576040517f08c379a00000000000000000000000000000000000000000000000000000000081526004016104bc90612457565b60405180910390fd5b8273ffffffffffffffffffffffffffffffffffffffff16816000015173ffffffffffffffffffffffffffffffffffffffff1603610537576040517f08c379a000000000000000000000000000000000000000000000000000000000815260040161052e906124c3565b60405180910390fd5b6000816040015160ff1611610581576040517f08c379a00000000000000000000000000000000000000000000000000000000081526004016105789061252f565b60405180910390fd5b600060405180608001604052808573ffffffffffffffffffffffffffffffffffffffff168152602001848152602001868152602001600015158152509050600281908060018154018082558091505060019003906000526020600020906004020160009091909190915060008201518160000160006101000a81548173ffffffffffffffffffffffffffffffffffffffff021916908373ffffffffffffffffffffffffffffffffffffffff160217905550602082015181600101556040820151816002015560608201518160030160006101000a81548160ff02191690831515021790555050506000600280549050905080600560008773ffffffffffffffffffffffffffffffffffffffff1673ffffffffffffffffffffffffffffffffffffffff168152602001908152602001600020819055507f981b957e210e9b1ca618883b28a87636be60896b76781a91a10fb2fbbe51743c868284886040516106eb94939291906125d1565b60405180910390a1505050505050565b60008054905090565b60003390506000600560008373ffffffffffffffffffffffffffffffffffffffff1673ffffffffffffffffffffffffffffffffffffffff16815260200190815260200160002054905060008103610790576040517f08c379a000000000000000000000000000000000000000000000000000000000815260040161078790612662565b60405180910390fd5b600060026001836107a191906122dc565b815481106107b2576107b1612310565b5b90600052602060002090600402016040518060800160405290816000820160009054906101000a900473ffffffffffffffffffffffffffffffffffffffff1673ffffffffffffffffffffffffffffffffffffffff1673ffffffffffffffffffffffffffffffffffffffff16815260200160018201548152602001600282015481526020016003820160009054906101000a900460ff1615151515815250509050806060015115610897576040517f08c379a000000000000000000000000000000000000000000000000000000000815260040161088e906126ce565b60405180910390fd5b6000600560008573ffffffffffffffffffffffffffffffffffffffff1673ffffffffffffffffffffffffffffffffffffffff168152602001908152602001600020819055508273ffffffffffffffffffffffffffffffffffffffff166108fc82602001519081150290604051600060405180830381858888f19350505050158015610926573d6000803e3d6000fd5b507f9fa51e6fcc1ea495b771509dde92669732f871ec2e79b405f33d17d7ead38f668160400151838560405161095e9392919061274d565b60405180910390a1505050565b6002818154811061097b57600080fd5b90600052602060002090600402016000915090508060000160009054906101000a900473ffffffffffffffffffffffffffffffffffffffff16908060010154908060020154908060030160009054906101000a900460ff16905084565b60003390506000543414610a21576040517f08c379a0000000000000000000000000000000000000000000000000000000008152600401610a18906127d0565b60405180910390fd5b60008360ff1611610a67576040517f08c379a0000000000000000000000000000000000000000000000000000000008152600401610a5e9061283c565b60405180910390fd5b6000600360008373ffffffffffffffffffffffffffffffffffffffff1673ffffffffffffffffffffffffffffffffffffffff1681526020019081526020016000205414610ae9576040517f08c379a0000000000000000000000000000000000000000000000000000000008152600401610ae0906128a8565b60405180910390fd5b60006040518060a001604052808373ffffffffffffffffffffffffffffffffffffffff16815260200187878080601f016020809104026020016040519081016040528093929190818152602001838380828437600081840152601f19601f8201169050808301925050505050505081526020018560ff168152602001848152602001600015158152509050600181908060018154018082558091505060019003906000526020600020906005020160009091909190915060008201518160000160006101000a81548173ffffffffffffffffffffffffffffffffffffffff021916908373ffffffffffffffffffffffffffffffffffffffff1602179055506020820151816001019080519060200190610c03929190611d8d565b5060408201518160020160006101000a81548160ff021916908360ff1602179055506060820151816003015560808201518160040160006101000a81548160ff02191690831515021790555050506000600180549050905080600360008573ffffffffffffffffffffffffffffffffffffffff1673ffffffffffffffffffffffffffffffffffffffff16815260200190815260200160002081905550600054600460008573ffffffffffffffffffffffffffffffffffffffff1673ffffffffffffffffffffffffffffffffffffffff168152602001908152602001600020819055507f97b004ae367511ffcdbe6af03e1703e2af08ba6de65ccecd1cad04ea3baa529581838686604051610d1a9493929190612997565b60405180910390a150505050505050565b6000600560008373ffffffffffffffffffffffffffffffffffffffff1673ffffffffffffffffffffffffffffffffffffffff16815260200190815260200160002054905060008111610db2576040517f08c379a0000000000000000000000000000000000000000000000000000000008152600401610da990612662565b60405180910390fd5b60006002600183610dc391906122dc565b81548110610dd457610dd3612310565b5b90600052602060002090600402016040518060800160405290816000820160009054906101000a900473ffffffffffffffffffffffffffffffffffffffff1673ffffffffffffffffffffffffffffffffffffffff1673ffffffffffffffffffffffffffffffffffffffff16815260200160018201548152602001600282015481526020016003820160009054906101000a900460ff1615151515815250509050806060015115610eb9576040517f08c379a0000000000000000000000000000000000000000000000000000000008152600401610eb0906126ce565b60405180910390fd5b60006001808360400151610ecd91906122dc565b81548110610ede57610edd612310565b5b90600052602060002090600502016040518060a00160405290816000820160009054906101000a900473ffffffffffffffffffffffffffffffffffffffff1673ffffffffffffffffffffffffffffffffffffffff1673ffffffffffffffffffffffffffffffffffffffff168152602001600182018054610f5d9061236e565b80601f0160208091040260200160405190810160405280929190818152602001828054610f899061236e565b8015610fd65780601f10610fab57610100808354040283529160200191610fd6565b820191906000526020600020905b815481529060010190602001808311610fb957829003601f168201915b505050505081526020016002820160009054906101000a900460ff1660ff1660ff168152602001600382015481526020016004820160009054906101000a900460ff161515151581525050905060003390508073ffffffffffffffffffffffffffffffffffffffff16826000015173ffffffffffffffffffffffffffffffffffffffff161461109a576040517f08c379a000000000000000000000000000000000000000000000000000000000815260040161109190612a2f565b60405180910390fd5b8160800151156110df576040517f08c379a00000000000000000000000000000000000000000000000000000000081526004016110d690612457565b60405180910390fd5b6000826040015160ff1611611129576040517f08c379a00000000000000000000000000000000000000000000000000000000081526004016111209061252f565b60405180910390fd5b81604001805180919061113b90612a4f565b60ff1660ff168152505081600180856040015161115891906122dc565b8154811061116957611168612310565b5b906000526020600020906005020160008201518160000160006101000a81548173ffffffffffffffffffffffffffffffffffffffff021916908373ffffffffffffffffffffffffffffffffffffffff16021790555060208201518160010190805190602001906111da929190611d8d565b5060408201518160020160006101000a81548160ff021916908360ff1602179055506060820151816003015560808201518160040160006101000a81548160ff021916908315150217905550905050826020015160046000846000015173ffffffffffffffffffffffffffffffffffffffff1673ffffffffffffffffffffffffffffffffffffffff16815260200190815260200160002060008282546112809190612a78565b9250508190555060018360600190151590811515815250508260026001866112a891906122dc565b815481106112b9576112b8612310565b5b906000526020600020906004020160008201518160000160006101000a81548173ffffffffffffffffffffffffffffffffffffffff021916908373ffffffffffffffffffffffffffffffffffffffff160217905550602082015181600101556040820151816002015560608201518160030160006101000a81548160ff0219169083151502179055509050507ffe7589e0482e7ecd3ea3232d0a6794865d32bf5f658ca3be27b39055cc4f75958360400151836040015160405161137e929190612ace565b60405180910390a15050505050565b60003390506000600360008373ffffffffffffffffffffffffffffffffffffffff1673ffffffffffffffffffffffffffffffffffffffff16815260200190815260200160002054905060008103611419576040517f08c379a000000000000000000000000000000000000000000000000000000000815260040161141090612b43565b60405180910390fd5b60006001808361142991906122dc565b8154811061143a57611439612310565b5b90600052602060002090600502016040518060a00160405290816000820160009054906101000a900473ffffffffffffffffffffffffffffffffffffffff1673ffffffffffffffffffffffffffffffffffffffff1673ffffffffffffffffffffffffffffffffffffffff1681526020016001820180546114b99061236e565b80601f01602080910402602001604051908101604052809291908181526020018280546114e59061236e565b80156115325780601f1061150757610100808354040283529160200191611532565b820191906000526020600020905b81548152906001019060200180831161151557829003601f168201915b505050505081526020016002820160009054906101000a900460ff1660ff1660ff168152602001600382015481526020016004820160009054906101000a900460ff161515151581525050905080608001516115c3576040517f08c379a00000000000000000000000000000000000000000000000000000000081526004016115ba90612baf565b60405180910390fd5b6000600360008573ffffffffffffffffffffffffffffffffffffffff1673ffffffffffffffffffffffffffffffffffffffff168152602001908152602001600020819055507f4b96a9f6ca7063c5d7a683f4b7c4a8eb1c213692fc782c7d10f196fb64a46ea2826040516116379190611eac565b60405180910390a1505050565b60003390506000600360008373ffffffffffffffffffffffffffffffffffffffff1673ffffffffffffffffffffffffffffffffffffffff168152602001908152602001600020549050600081036116d0576040517f08c379a00000000000000000000000000000000000000000000000000000000081526004016116c790612b43565b60405180910390fd5b600054600460008473ffffffffffffffffffffffffffffffffffffffff1673ffffffffffffffffffffffffffffffffffffffff1681526020019081526020016000205403611753576040517f08c379a000000000000000000000000000000000000000000000000000000000815260040161174a90612c1b565b60405180910390fd5b60006001808361176391906122dc565b8154811061177457611773612310565b5b90600052602060002090600502016040518060a00160405290816000820160009054906101000a900473ffffffffffffffffffffffffffffffffffffffff1673ffffffffffffffffffffffffffffffffffffffff1673ffffffffffffffffffffffffffffffffffffffff1681526020016001820180546117f39061236e565b80601f016020809104026020016040519081016040528092919081815260200182805461181f9061236e565b801561186c5780601f106118415761010080835404028352916020019161186c565b820191906000526020600020905b81548152906001019060200180831161184f57829003601f168201915b505050505081526020016002820160009054906101000a900460ff1660ff1660ff168152602001600382015481526020016004820160009054906101000a900460ff1615151515815250509050600181608001901515908115158152505080600180846118d991906122dc565b815481106118ea576118e9612310565b5b906000526020600020906005020160008201518160000160006101000a81548173ffffffffffffffffffffffffffffffffffffffff021916908373ffffffffffffffffffffffffffffffffffffffff160217905550602082015181600101908051906020019061195b929190611d8d565b5060408201518160020160006101000a81548160ff021916908360ff1602179055506060820151816003015560808201518160040160006101000a81548160ff0219169083151502179055509050508273ffffffffffffffffffffffffffffffffffffffff166108fc600460008673ffffffffffffffffffffffffffffffffffffffff1673ffffffffffffffffffffffffffffffffffffffff168152602001908152602001600020549081150290604051600060405180830381858888f19350505050158015611a2f573d6000803e3d6000fd5b506000600460008573ffffffffffffffffffffffffffffffffffffffff1673ffffffffffffffffffffffffffffffffffffffff168152602001908152602001600020819055507f16092bc1964df101ccee7353b4f8592b2c354aafd14a391c93cb46a1acfafcef82604051611aa49190611eac565b60405180910390a1505050565b60003390506000600360008373ffffffffffffffffffffffffffffffffffffffff1673ffffffffffffffffffffffffffffffffffffffff16815260200190815260200160002054905060008103611b3d576040517f08c379a0000000000000000000000000000000000000000000000000000000008152600401611b3490612b43565b60405180910390fd5b600054600460008473ffffffffffffffffffffffffffffffffffffffff1673ffffffffffffffffffffffffffffffffffffffff1681526020019081526020016000205414611bc0576040517f08c379a0000000000000000000000000000000000000000000000000000000008152600401611bb790612c87565b60405180910390fd5b6000600360008473ffffffffffffffffffffffffffffffffffffffff1673ffffffffffffffffffffffffffffffffffffffff168152602001908152602001600020819055506000600460008473ffffffffffffffffffffffffffffffffffffffff1673ffffffffffffffffffffffffffffffffffffffff168152602001908152602001600020819055507f33f593f5c5ecc55eda07904dd8f1514d8ad3b582ad3e4c157afcfac82e6d030781604051611c799190611eac565b60405180910390a15050565b60018181548110611c9557600080fd5b90600052602060002090600502016000915090508060000160009054906101000a900473ffffffffffffffffffffffffffffffffffffffff1690806001018054611cde9061236e565b80601f0160208091040260200160405190810160405280929190818152602001828054611d0a9061236e565b8015611d575780601f10611d2c57610100808354040283529160200191611d57565b820191906000526020600020905b815481529060010190602001808311611d3a57829003601f168201915b5050505050908060020160009054906101000a900460ff16908060030154908060040160009054906101000a900460ff16905085565b828054611d999061236e565b90600052602060002090601f016020900481019282611dbb5760008555611e02565b82601f10611dd457805160ff1916838001178555611e02565b82800160010185558215611e02579182015b82811115611e01578251825591602001919060010190611de6565b5b509050611e0f9190611e13565b5090565b5b80821115611e2c576000816000905550600101611e14565b5090565b600080fd5b600080fd5b6000819050919050565b611e4d81611e3a565b8114611e5857600080fd5b50565b600081359050611e6a81611e44565b92915050565b600060208284031215611e8657611e85611e30565b5b6000611e9484828501611e5b565b91505092915050565b611ea681611e3a565b82525050565b6000602082019050611ec16000830184611e9d565b92915050565b600073ffffffffffffffffffffffffffffffffffffffff82169050919050565b6000611ef282611ec7565b9050919050565b611f0281611ee7565b82525050565b60008115159050919050565b611f1d81611f08565b82525050565b6000608082019050611f386000830187611ef9565b611f456020830186611e9d565b611f526040830185611e9d565b611f5f6060830184611f14565b95945050505050565b600080fd5b600080fd5b600080fd5b60008083601f840112611f8d57611f8c611f68565b5b8235905067ffffffffffffffff811115611faa57611fa9611f6d565b5b602083019150836001820283011115611fc657611fc5611f72565b5b9250929050565b600060ff82169050919050565b611fe381611fcd565b8114611fee57600080fd5b50565b60008135905061200081611fda565b92915050565b600080600080606085870312156120205761201f611e30565b5b600085013567ffffffffffffffff81111561203e5761203d611e35565b5b61204a87828801611f77565b9450945050602061205d87828801611ff1565b925050604061206e87828801611e5b565b91505092959194509250565b61208381611ee7565b811461208e57600080fd5b50565b6000813590506120a08161207a565b92915050565b6000602082840312156120bc576120bb611e30565b5b60006120ca84828501612091565b91505092915050565b600081519050919050565b600082825260208201905092915050565b60005b8381101561210d5780820151818401526020810190506120f2565b8381111561211c576000848401525b50505050565b6000601f19601f8301169050919050565b600061213e826120d3565b61214881856120de565b93506121588185602086016120ef565b61216181612122565b840191505092915050565b61217581611fcd565b82525050565b600060a0820190506121906000830188611ef9565b81810360208301526121a28187612133565b90506121b1604083018661216c565b6121be6060830185611e9d565b6121cb6080830184611f14565b9695505050505050565b7f70617373656e6765722068617320626964000000000000000000000000000000600082015250565b600061220b6011836120de565b9150612216826121d5565b602082019050919050565b6000602082019050818103600083015261223a816121fe565b9050919050565b7f74726970206e6f74206578697374000000000000000000000000000000000000600082015250565b6000612277600e836120de565b915061228282612241565b602082019050919050565b600060208201905081810360008301526122a68161226a565b9050919050565b7f4e487b7100000000000000000000000000000000000000000000000000000000600052601160045260246000fd5b60006122e782611e3a565b91506122f283611e3a565b925082821015612305576123046122ad565b5b828203905092915050565b7f4e487b7100000000000000000000000000000000000000000000000000000000600052603260045260246000fd5b7f4e487b7100000000000000000000000000000000000000000000000000000000600052602260045260246000fd5b6000600282049050600182168061238657607f821691505b6020821081036123995761239861233f565b5b50919050565b7f696e73756666696369656e742066756e64730000000000000000000000000000600082015250565b60006123d56012836120de565b91506123e08261239f565b602082019050919050565b60006020820190508181036000830152612404816123c8565b9050919050565b7f7472697020686173207374617274656400000000000000000000000000000000600082015250565b60006124416010836120de565b915061244c8261240b565b602082019050919050565b6000602082019050818103600083015261247081612434565b9050919050565b7f73656c6620626964000000000000000000000000000000000000000000000000600082015250565b60006124ad6008836120de565b91506124b882612477565b602082019050919050565b600060208201905081810360008301526124dc816124a0565b9050919050565b7f6e6f206d6f726520736561747300000000000000000000000000000000000000600082015250565b6000612519600d836120de565b9150612524826124e3565b602082019050919050565b600060208201905081810360008301526125488161250c565b9050919050565b61255881611ee7565b82525050565b61256781611e3a565b82525050565b61257681611f08565b82525050565b608082016000820151612592600085018261254f565b5060208201516125a5602085018261255e565b5060408201516125b8604085018261255e565b5060608201516125cb606085018261256d565b50505050565b600060e0820190506125e66000830187611e9d565b6125f36020830186611e9d565b612600604083018561257c565b61260d60c0830184611ef9565b95945050505050565b7f70617373656e67657220686173206e6f20626964000000000000000000000000600082015250565b600061264c6014836120de565b915061265782612616565b602082019050919050565b6000602082019050818103600083015261267b8161263f565b9050919050565b7f62696420686173206265656e2061636365707465640000000000000000000000600082015250565b60006126b86015836120de565b91506126c382612682565b602082019050919050565b600060208201905081810360008301526126e7816126ab565b9050919050565b6000819050919050565b600061271361270e61270984611ec7565b6126ee565b611ec7565b9050919050565b6000612725826126f8565b9050919050565b60006127378261271a565b9050919050565b6127478161272c565b82525050565b60006060820190506127626000830186611e9d565b61276f6020830185611e9d565b61277c604083018461273e565b949350505050565b7f63616e7420706179207472697020666565000000000000000000000000000000600082015250565b60006127ba6011836120de565b91506127c582612784565b602082019050919050565b600060208201905081810360008301526127e9816127ad565b9050919050565b7f6e65656473207365617473000000000000000000000000000000000000000000600082015250565b6000612826600b836120de565b9150612831826127f0565b602082019050919050565b6000602082019050818103600083015261285581612819565b9050919050565b7f6472697665722068617320747269700000000000000000000000000000000000600082015250565b6000612892600f836120de565b915061289d8261285c565b602082019050919050565b600060208201905081810360008301526128c181612885565b9050919050565b600082825260208201905092915050565b60006128e4826120d3565b6128ee81856128c8565b93506128fe8185602086016120ef565b61290781612122565b840191505092915050565b61291b81611fcd565b82525050565b600060a083016000830151612939600086018261254f565b506020830151848203602086015261295182826128d9565b91505060408301516129666040860182612912565b506060830151612979606086018261255e565b50608083015161298c608086018261256d565b508091505092915050565b60006080820190506129ac6000830187611e9d565b81810360208301526129be8186612921565b90506129cd6040830185611e9d565b6129da6060830184611ef9565b95945050505050565b7f626964206973206e6f7420666f72206472697665720000000000000000000000600082015250565b6000612a196015836120de565b9150612a24826129e3565b602082019050919050565b60006020820190508181036000830152612a4881612a0c565b9050919050565b6000612a5a82611fcd565b915060008203612a6d57612a6c6122ad565b5b600182039050919050565b6000612a8382611e3a565b9150612a8e83611e3a565b9250827fffffffffffffffffffffffffffffffffffffffffffffffffffffffffffffffff03821115612ac357612ac26122ad565b5b828201905092915050565b6000604082019050612ae36000830185611e9d565b612af0602083018461216c565b9392505050565b7f64726976657220686173206e6f20747269700000000000000000000000000000600082015250565b6000612b2d6012836120de565b9150612b3882612af7565b602082019050919050565b60006020820190508181036000830152612b5c81612b20565b9050919050565b7f7472697020686173206e6f742073746172746564000000000000000000000000600082015250565b6000612b996014836120de565b9150612ba482612b63565b602082019050919050565b60006020820190508181036000830152612bc881612b8c565b9050919050565b7f7472697020686173206e6f2070617373656e6765727300000000000000000000600082015250565b6000612c056016836120de565b9150612c1082612bcf565b602082019050919050565b60006020820190508181036000830152612c3481612bf8565b9050919050565b7f7472697020616c7265616479206861732070617373656e676572730000000000600082015250565b6000612c71601b836120de565b9150612c7c82612c3b565b602082019050919050565b60006020820190508181036000830152612ca081612c64565b905091905056fea2646970667358221220a31f8c0d03f32887bba763a063058793aa7549afbce9b6da010b8934b1871f5e64736f6c634300080d0033",
  "immutableReferences": {},
  "source": "// SPDX-License-Identifier: MIT\npragma solidity >=0.8.0;\n\ncontract Nekobasu {\n    uint tripFee = 30;\n\n    function getTripFee() public view returns (uint) {\n        return tripFee;\n    }\n\n    event NewTripOffer(uint tripId, Trip trip, uint cost, address driver);\n    event NewTripBid(uint tripId, uint bidId, Bid bid, address passenger);\n    event SeatOccupied(uint tripId, uint8 seats);\n    event WithdrawBid(uint tripId, uint bidId, address passenger);\n    event StartedTrip(uint tripId);\n    event CancelledTrip(uint tripId);\n    event FinishedTrip(uint tripId);\n\n    struct Trip {\n        address driver;\n        string info;\n        uint8 seats;\n        uint cost;\n        bool started;\n    }\n\n    struct Bid {\n        address passenger;\n        uint amount;\n        uint tripId;\n        bool accepted;\n    }\n\n    Trip[] public trips;\n    Bid[] public bids;\n\n    mapping(address => uint) driverToTripId;\n    mapping(address => uint) driverToPool;\n    mapping(address => uint) passengerToBidId;\n\n    function offerTrip(string calldata info, uint8 seats, uint cost) public payable {\n        address driver = msg.sender;\n\n        require (msg.value == tripFee, \"cant pay trip fee\");\n\n        require (seats > 0, \"needs seats\");\n        require (driverToTripId[driver] == 0, \"driver has trip\");\n\n        Trip memory trip = Trip(driver, info, seats, cost, false);\n        trips.push(trip);\n\n        uint tripId = trips.length;\n\n        driverToTripId[driver] = tripId;\n\n        // Transactions\n        // driver.tripFee -> contract done with payable.\n        driverToPool[driver] = tripFee;\n\n        emit NewTripOffer(tripId, trip, cost, driver);\n    }\n\n    function makeBid(uint tripId) public payable {\n        address passenger = msg.sender;\n        uint amount = msg.value;\n\n        require (passengerToBidId[passenger] == 0, \"passenger has bid\");\n\n        require (tripId <= trips.length, \"trip not exist\");\n\n        Trip memory trip = trips[tripId-1];\n        require (amount >= trip.cost, \"insufficient funds\");\n        require (!trip.started, \"trip has started\");\n        require (trip.driver != passenger, \"self bid\");\n        require (trip.seats > 0, \"no more seats\");\n\n        Bid memory bid = Bid(passenger, amount, tripId, false);\n        bids.push(bid);\n\n        uint bidId = bids.length;\n\n        passengerToBidId[passenger] = bidId;\n\n        // Transactions\n        // passenger.amount -> contract done with payable.\n\n        emit NewTripBid(tripId, bidId, bid, passenger);\n    }\n\n    function acceptBid(address passenger) public {\n        uint bidId = passengerToBidId[passenger];\n\n        require (bidId > 0, \"passenger has no bid\");\n\n        Bid memory bid = bids[bidId-1];\n        require (!bid.accepted, \"bid has been accepted\");\n\n\n        Trip memory trip = trips[bid.tripId-1];\n        address driver = msg.sender;\n        require (trip.driver == driver, \"bid is not for driver\");\n        require (!trip.started, \"trip has started\");\n        require (trip.seats > 0, \"no more seats\");\n\n        trip.seats--;\n        trips[bid.tripId-1] = trip;\n\n        // Transactions\n        driverToPool[trip.driver] += bid.amount;\n\n        bid.accepted = true;\n        bids[bidId-1] = bid;\n\n\n        emit SeatOccupied(bid.tripId, trip.seats);\n    }\n\n    function withdrawBid() public {\n        address payable passenger = payable(msg.sender);\n        uint bidId = passengerToBidId[passenger];\n\n        require (bidId != 0, \"passenger has no bid\");\n\n        Bid memory bid = bids[bidId - 1];\n\n        require (!bid.accepted, \"bid has been accepted\");\n\n        passengerToBidId[passenger] = 0;\n\n        // Transactions\n        passenger.transfer(bid.amount);\n\n        emit WithdrawBid(bid.tripId, bidId, passenger);\n    }\n\n    function startTrip() public {\n        address payable driver = payable(msg.sender);\n        uint tripId = driverToTripId[driver];\n\n        require (tripId != 0, \"driver has no trip\");\n        require (driverToPool[driver] != tripFee, \"trip has no passengers\");\n\n        // TODO: Check that the trip is on time.\n        // https://cryptozombies.io/en/lesson/3/chapter/5\n\n        Trip memory trip = trips[tripId-1];\n        trip.started = true;\n        trips[tripId-1] = trip;\n\n        // Transactions\n        // pool -> driver\n        driver.transfer(driverToPool[driver]);\n        driverToPool[driver] = 0;\n\n        emit StartedTrip(tripId);\n    }\n\n    function cancelTrip() public {\n        address driver = msg.sender;\n        uint tripId = driverToTripId[driver];\n\n        require (tripId != 0, \"driver has no trip\");\n        require (driverToPool[driver] == tripFee, \"trip already has passengers\");\n\n        driverToTripId[driver] = 0;\n\n        // Transactions \n        // TripFee is not returned, driver should not cancel trip.\n        driverToPool[driver] = 0;\n\n\n        emit CancelledTrip(tripId);\n    }\n\n    function finishTrip() public {\n        address driver = msg.sender;\n        uint tripId = driverToTripId[driver];\n\n        require (tripId != 0, \"driver has no trip\");\n\n        Trip memory trip = trips[tripId-1];\n        \n        require (trip.started, \"trip has not started\");\n\n        driverToTripId[driver] = 0;\n\n        emit FinishedTrip(tripId);\n    }\n\n    /*\n    TODO: Rules should be explicit on frontend, for driver and for passenger.\n    Example cant withdraw bid when it has been accepted.\n\tCancel incurss on a tripFee.\n    Cannot cancel a trip if it has passengers.\n    */\n\n}\n",
  "sourcePath": "/Users/tlacuilose/Documents/ts/kobasu/nekobasu/contracts/Nekobasu.sol",
  "compiler": {
    "name": "solc",
    "version": "0.8.13+commit.abaa5c0e.Emscripten.clang"
  },
  "schemaVersion": "3.4.7",
  "updatedAt": "2022-06-10T08:21:54.506Z",
  "networkType": "ethereum",
  "devdoc": {
    "kind": "dev",
    "methods": {},
    "version": 1
  },
  "userdoc": {
    "kind": "user",
    "methods": {},
    "version": 1
  }
}